{
  "_format": "hh-sol-artifact-1",
  "contractName": "ERC1155OnChainMetadata",
  "sourceName": "contracts/ERC1155OnChainMetadata.sol",
  "abi": [
    {
      "inputs": [],
      "stateMutability": "nonpayable",
      "type": "constructor"
    },
    {
      "anonymous": false,
      "inputs": [
        {
          "indexed": true,
          "internalType": "address",
          "name": "account",
          "type": "address"
        },
        {
          "indexed": true,
          "internalType": "address",
          "name": "operator",
          "type": "address"
        },
        {
          "indexed": false,
          "internalType": "bool",
          "name": "approved",
          "type": "bool"
        }
      ],
      "name": "ApprovalForAll",
      "type": "event"
    },
    {
      "anonymous": false,
      "inputs": [
        {
          "indexed": true,
          "internalType": "address",
          "name": "operator",
          "type": "address"
        },
        {
          "indexed": true,
          "internalType": "address",
          "name": "from",
          "type": "address"
        },
        {
          "indexed": true,
          "internalType": "address",
          "name": "to",
          "type": "address"
        },
        {
          "indexed": false,
          "internalType": "uint256[]",
          "name": "ids",
          "type": "uint256[]"
        },
        {
          "indexed": false,
          "internalType": "uint256[]",
          "name": "values",
          "type": "uint256[]"
        }
      ],
      "name": "TransferBatch",
      "type": "event"
    },
    {
      "anonymous": false,
      "inputs": [
        {
          "indexed": true,
          "internalType": "address",
          "name": "operator",
          "type": "address"
        },
        {
          "indexed": true,
          "internalType": "address",
          "name": "from",
          "type": "address"
        },
        {
          "indexed": true,
          "internalType": "address",
          "name": "to",
          "type": "address"
        },
        {
          "indexed": false,
          "internalType": "uint256",
          "name": "id",
          "type": "uint256"
        },
        {
          "indexed": false,
          "internalType": "uint256",
          "name": "value",
          "type": "uint256"
        }
      ],
      "name": "TransferSingle",
      "type": "event"
    },
    {
      "anonymous": false,
      "inputs": [
        {
          "indexed": false,
          "internalType": "string",
          "name": "value",
          "type": "string"
        },
        {
          "indexed": true,
          "internalType": "uint256",
          "name": "id",
          "type": "uint256"
        }
      ],
      "name": "URI",
      "type": "event"
    },
    {
      "inputs": [
        {
          "internalType": "address",
          "name": "account",
          "type": "address"
        },
        {
          "internalType": "uint256",
          "name": "id",
          "type": "uint256"
        }
      ],
      "name": "balanceOf",
      "outputs": [
        {
          "internalType": "uint256",
          "name": "",
          "type": "uint256"
        }
      ],
      "stateMutability": "view",
      "type": "function"
    },
    {
      "inputs": [
        {
          "internalType": "address[]",
          "name": "accounts",
          "type": "address[]"
        },
        {
          "internalType": "uint256[]",
          "name": "ids",
          "type": "uint256[]"
        }
      ],
      "name": "balanceOfBatch",
      "outputs": [
        {
          "internalType": "uint256[]",
          "name": "",
          "type": "uint256[]"
        }
      ],
      "stateMutability": "view",
      "type": "function"
    },
    {
      "inputs": [],
      "name": "contractURI",
      "outputs": [
        {
          "internalType": "string",
          "name": "",
          "type": "string"
        }
      ],
      "stateMutability": "view",
      "type": "function"
    },
    {
      "inputs": [
        {
          "internalType": "address",
          "name": "account",
          "type": "address"
        },
        {
          "internalType": "address",
          "name": "operator",
          "type": "address"
        }
      ],
      "name": "isApprovedForAll",
      "outputs": [
        {
          "internalType": "bool",
          "name": "",
          "type": "bool"
        }
      ],
      "stateMutability": "view",
      "type": "function"
    },
    {
      "inputs": [
        {
          "internalType": "address",
          "name": "from",
          "type": "address"
        },
        {
          "internalType": "address",
          "name": "to",
          "type": "address"
        },
        {
          "internalType": "uint256[]",
          "name": "ids",
          "type": "uint256[]"
        },
        {
          "internalType": "uint256[]",
          "name": "amounts",
          "type": "uint256[]"
        },
        {
          "internalType": "bytes",
          "name": "data",
          "type": "bytes"
        }
      ],
      "name": "safeBatchTransferFrom",
      "outputs": [],
      "stateMutability": "nonpayable",
      "type": "function"
    },
    {
      "inputs": [
        {
          "internalType": "address",
          "name": "from",
          "type": "address"
        },
        {
          "internalType": "address",
          "name": "to",
          "type": "address"
        },
        {
          "internalType": "uint256",
          "name": "id",
          "type": "uint256"
        },
        {
          "internalType": "uint256",
          "name": "amount",
          "type": "uint256"
        },
        {
          "internalType": "bytes",
          "name": "data",
          "type": "bytes"
        }
      ],
      "name": "safeTransferFrom",
      "outputs": [],
      "stateMutability": "nonpayable",
      "type": "function"
    },
    {
      "inputs": [
        {
          "internalType": "address",
          "name": "operator",
          "type": "address"
        },
        {
          "internalType": "bool",
          "name": "approved",
          "type": "bool"
        }
      ],
      "name": "setApprovalForAll",
      "outputs": [],
      "stateMutability": "nonpayable",
      "type": "function"
    },
    {
      "inputs": [
        {
          "internalType": "bytes4",
          "name": "interfaceId",
          "type": "bytes4"
        }
      ],
      "name": "supportsInterface",
      "outputs": [
        {
          "internalType": "bool",
          "name": "",
          "type": "bool"
        }
      ],
      "stateMutability": "view",
      "type": "function"
    },
    {
      "inputs": [
        {
          "internalType": "uint256",
          "name": "tokenId",
          "type": "uint256"
        }
      ],
      "name": "uri",
      "outputs": [
        {
          "internalType": "string",
          "name": "",
          "type": "string"
        }
      ],
      "stateMutability": "view",
      "type": "function"
    }
  ],
  "bytecode": "0x60806040523480156200001157600080fd5b506040518060200160405280600081525062000033816200003a60201b60201c565b506200016b565b80600290805190602001906200005292919062000056565b5050565b828054620000649062000106565b90600052602060002090601f016020900481019282620000885760008555620000d4565b82601f10620000a357805160ff1916838001178555620000d4565b82800160010185558215620000d4579182015b82811115620000d3578251825591602001919060010190620000b6565b5b509050620000e39190620000e7565b5090565b5b8082111562000102576000816000905550600101620000e8565b5090565b600060028204905060018216806200011f57607f821691505b602082108114156200013657620001356200013c565b5b50919050565b7f4e487b7100000000000000000000000000000000000000000000000000000000600052602260045260246000fd5b6147ae806200017b6000396000f3fe608060405234801561001057600080fd5b50600436106100925760003560e01c80634e1273f4116100665780634e1273f414610143578063a22cb46514610173578063e8a3d4851461018f578063e985e9c5146101ad578063f242432a146101dd57610092565b8062fdd58e1461009757806301ffc9a7146100c75780630e89341c146100f75780632eb2c2d614610127575b600080fd5b6100b160048036038101906100ac9190612b5f565b6101f9565b6040516100be91906139b4565b60405180910390f35b6100e160048036038101906100dc9190612c07565b6102c2565b6040516100ee9190613817565b60405180910390f35b610111600480360381019061010c9190612c9a565b6103a4565b60405161011e9190613832565b60405180910390f35b610141600480360381019061013c91906129d5565b6103b6565b005b61015d60048036038101906101589190612b9b565b610457565b60405161016a91906137be565b60405180910390f35b61018d60048036038101906101889190612b23565b610608565b005b61019761061e565b6040516101a49190613832565b60405180910390f35b6101c760048036038101906101c29190612999565b61062d565b6040516101d49190613817565b60405180910390f35b6101f760048036038101906101f29190612a94565b6106c1565b005b60008073ffffffffffffffffffffffffffffffffffffffff168373ffffffffffffffffffffffffffffffffffffffff16141561026a576040517f08c379a0000000000000000000000000000000000000000000000000000000008152600401610261906138b4565b60405180910390fd5b60008083815260200190815260200160002060008473ffffffffffffffffffffffffffffffffffffffff1673ffffffffffffffffffffffffffffffffffffffff16815260200190815260200160002054905092915050565b60007fd9b67a26000000000000000000000000000000000000000000000000000000007bffffffffffffffffffffffffffffffffffffffffffffffffffffffff1916827bffffffffffffffffffffffffffffffffffffffffffffffffffffffff1916148061038d57507f0e89341c000000000000000000000000000000000000000000000000000000007bffffffffffffffffffffffffffffffffffffffffffffffffffffffff1916827bffffffffffffffffffffffffffffffffffffffffffffffffffffffff1916145b8061039d575061039c82610762565b5b9050919050565b60606103af826107cc565b9050919050565b6103be610e74565b73ffffffffffffffffffffffffffffffffffffffff168573ffffffffffffffffffffffffffffffffffffffff1614806104045750610403856103fe610e74565b61062d565b5b610443576040517f08c379a000000000000000000000000000000000000000000000000000000000815260040161043a90613914565b60405180910390fd5b6104508585858585610e7c565b5050505050565b6060815183511461049d576040517f08c379a000000000000000000000000000000000000000000000000000000000815260040161049490613974565b60405180910390fd5b6000835167ffffffffffffffff8111156104e0577f4e487b7100000000000000000000000000000000000000000000000000000000600052604160045260246000fd5b60405190808252806020026020018201604052801561050e5781602001602082028036833780820191505090505b50905060005b84518110156105fd576105a7858281518110610559577f4e487b7100000000000000000000000000000000000000000000000000000000600052603260045260246000fd5b602002602001015185838151811061059a577f4e487b7100000000000000000000000000000000000000000000000000000000600052603260045260246000fd5b60200260200101516101f9565b8282815181106105e0577f4e487b7100000000000000000000000000000000000000000000000000000000600052603260045260246000fd5b602002602001018181525050806105f690613dc8565b9050610514565b508091505092915050565b61061a610613610e74565b83836111dc565b5050565b6060610628611349565b905090565b6000600160008473ffffffffffffffffffffffffffffffffffffffff1673ffffffffffffffffffffffffffffffffffffffff16815260200190815260200160002060008373ffffffffffffffffffffffffffffffffffffffff1673ffffffffffffffffffffffffffffffffffffffff16815260200190815260200160002060009054906101000a900460ff16905092915050565b6106c9610e74565b73ffffffffffffffffffffffffffffffffffffffff168573ffffffffffffffffffffffffffffffffffffffff16148061070f575061070e85610709610e74565b61062d565b5b61074e576040517f08c379a0000000000000000000000000000000000000000000000000000000008152600401610745906138d4565b60405180910390fd5b61075b8585858585611685565b5050505050565b60007f01ffc9a7000000000000000000000000000000000000000000000000000000007bffffffffffffffffffffffffffffffffffffffffffffffffffffffff1916827bffffffffffffffffffffffffffffffffffffffffffffffffffffffff1916149050919050565b60608060006107fb847f74726169745f7479706500000000000000000000000000000000000000000000611907565b9050600081511115610ad4576040518060400160405280600181526020017f5b000000000000000000000000000000000000000000000000000000000000008152509150600061086b857f74726169745f76616c7565000000000000000000000000000000000000000000611907565b90506000610899867f74726169745f646973706c617900000000000000000000000000000000000000611907565b905060005b8351811015610aae5784600082116108c557604051806020016040528060008152506108fc565b6040518060400160405280600181526020017f2c000000000000000000000000000000000000000000000000000000000000008152505b6000848481518110610937577f4e487b7100000000000000000000000000000000000000000000000000000000600052603260045260246000fd5b6020026020010151511161095a57604051806020016040528060008152506109ce565b838381518110610993577f4e487b7100000000000000000000000000000000000000000000000000000000600052603260045260246000fd5b60200260200101518060200190518101906109ae9190612c59565b6040516020016109be9190613401565b6040516020818303038152906040525b868481518110610a07577f4e487b7100000000000000000000000000000000000000000000000000000000600052603260045260246000fd5b6020026020010151806020019051810190610a229190612c59565b868581518110610a5b577f4e487b7100000000000000000000000000000000000000000000000000000000600052603260045260246000fd5b6020026020010151806020019051810190610a769190612c59565b604051602001610a8a95949392919061333b565b60405160208183030381529060405294508080610aa690613dc8565b91505061089e565b5083604051602001610ac091906133b2565b604051602081830303815290604052935050505b6000610b00857f6e616d6500000000000000000000000000000000000000000000000000000000611a08565b806020019051810190610b139190612c59565b90506000610b41867f6465736372697074696f6e000000000000000000000000000000000000000000611a08565b806020019051810190610b549190612c59565b90506000610b82877f696d616765000000000000000000000000000000000000000000000000000000611a08565b90506000610bb0887f616e696d6174696f6e5f75726c00000000000000000000000000000000000000611a08565b90506000610bde897f65787465726e616c5f75726c0000000000000000000000000000000000000000611a08565b90506000610c0c8a7f6261636b67726f756e645f636f6c6f7200000000000000000000000000000000611a08565b90506000610c3a8b7f796f75747562655f75726c000000000000000000000000000000000000000000611a08565b9050610e4587876000885111610c5f5760405180602001604052806000815250610c93565b87806020019051810190610c739190612c59565b604051602001610c839190613488565b6040516020818303038152906040525b6000885111610cb15760405180602001604052806000815250610ce5565b87806020019051810190610cc59190612c59565b604051602001610cd591906136cf565b6040516020818303038152906040525b6000885111610d035760405180602001604052806000815250610d37565b87806020019051810190610d179190612c59565b604051602001610d27919061345b565b6040516020818303038152906040525b60008f5111610d555760405180602001604052806000815250610d76565b8e604051602001610d6691906136ad565b6040516020818303038152906040525b6000895111610d945760405180602001604052806000815250610dc8565b88806020019051810190610da89190612c59565b604051602001610db89190613669565b6040516020818303038152906040525b6000895111610de65760405180602001604052806000815250610e1a565b88806020019051810190610dfa9190612c59565b604051602001610e0a919061368b565b6040516020818303038152906040525b604051602001610e31989796959493929190613539565b604051602081830303815290604052611a86565b604051602001610e559190613647565b6040516020818303038152906040529950505050505050505050919050565b600033905090565b8151835114610ec0576040517f08c379a0000000000000000000000000000000000000000000000000000000008152600401610eb790613994565b60405180910390fd5b600073ffffffffffffffffffffffffffffffffffffffff168473ffffffffffffffffffffffffffffffffffffffff161415610f30576040517f08c379a0000000000000000000000000000000000000000000000000000000008152600401610f27906138f4565b60405180910390fd5b6000610f3a610e74565b9050610f4a818787878787611c10565b60005b8451811015611147576000858281518110610f91577f4e487b7100000000000000000000000000000000000000000000000000000000600052603260045260246000fd5b602002602001015190506000858381518110610fd6577f4e487b7100000000000000000000000000000000000000000000000000000000600052603260045260246000fd5b60200260200101519050600080600084815260200190815260200160002060008b73ffffffffffffffffffffffffffffffffffffffff1673ffffffffffffffffffffffffffffffffffffffff16815260200190815260200160002054905081811015611077576040517f08c379a000000000000000000000000000000000000000000000000000000000815260040161106e90613934565b60405180910390fd5b81810360008085815260200190815260200160002060008c73ffffffffffffffffffffffffffffffffffffffff1673ffffffffffffffffffffffffffffffffffffffff168152602001908152602001600020819055508160008085815260200190815260200160002060008b73ffffffffffffffffffffffffffffffffffffffff1673ffffffffffffffffffffffffffffffffffffffff168152602001908152602001600020600082825461112c9190613b5e565b925050819055505050508061114090613dc8565b9050610f4d565b508473ffffffffffffffffffffffffffffffffffffffff168673ffffffffffffffffffffffffffffffffffffffff168273ffffffffffffffffffffffffffffffffffffffff167f4a39dc06d4c0dbc64b70af90fd698a233a518aa5d07e595d983b8c0526c8f7fb87876040516111be9291906137e0565b60405180910390a46111d4818787878787611c18565b505050505050565b8173ffffffffffffffffffffffffffffffffffffffff168373ffffffffffffffffffffffffffffffffffffffff16141561124b576040517f08c379a000000000000000000000000000000000000000000000000000000000815260040161124290613954565b60405180910390fd5b80600160008573ffffffffffffffffffffffffffffffffffffffff1673ffffffffffffffffffffffffffffffffffffffff16815260200190815260200160002060008473ffffffffffffffffffffffffffffffffffffffff1673ffffffffffffffffffffffffffffffffffffffff16815260200190815260200160002060006101000a81548160ff0219169083151502179055508173ffffffffffffffffffffffffffffffffffffffff168373ffffffffffffffffffffffffffffffffffffffff167f17307eab39ab6107e8899845ad3d59bd9653f200f220920489ca2b5937696c318360405161133c9190613817565b60405180910390a3505050565b606060006113767f6e616d6500000000000000000000000000000000000000000000000000000000611dff565b905060006113a37f6465736372697074696f6e000000000000000000000000000000000000000000611dff565b905060006113d07f696d616765000000000000000000000000000000000000000000000000000000611dff565b905060006113fd7f65787465726e616c5f6c696e6b00000000000000000000000000000000000000611dff565b9050600061142a7f73656c6c65725f6665655f62617369735f706f696e7473000000000000000000611dff565b905060006114577f6665655f726563697069656e7400000000000000000000000000000000000000611dff565b905061165b868060200190518101906114709190612c59565b600087511161148e57604051806020016040528060008152506114c2565b868060200190518101906114a29190612c59565b6040516020016114b291906135ed565b6040516020818303038152906040525b60008751116114e05760405180602001604052806000815250611514565b868060200190518101906114f49190612c59565b6040516020016115049190613488565b6040516020818303038152906040525b60008751116115325760405180602001604052806000815250611566565b868060200190518101906115469190612c59565b604051602001611556919061361a565b6040516020818303038152906040525b600087511161158457604051806020016040528060008152506115c0565b6115a08780602001905181019061159b9190612cc3565b611e7b565b6040516020016115b091906133d4565b6040516020818303038152906040525b60008751116115de5760405180602001604052806000815250611632565b611612878060200190518101906115f59190612970565b73ffffffffffffffffffffffffffffffffffffffff166014612028565b604051602001611622919061342e565b6040516020818303038152906040525b604051602001611647969594939291906134b5565b604051602081830303815290604052611a86565b60405160200161166b9190613647565b604051602081830303815290604052965050505050505090565b600073ffffffffffffffffffffffffffffffffffffffff168473ffffffffffffffffffffffffffffffffffffffff1614156116f5576040517f08c379a00000000000000000000000000000000000000000000000000000000081526004016116ec906138f4565b60405180910390fd5b60006116ff610e74565b905061171f81878761171088612322565b61171988612322565b87611c10565b600080600086815260200190815260200160002060008873ffffffffffffffffffffffffffffffffffffffff1673ffffffffffffffffffffffffffffffffffffffff168152602001908152602001600020549050838110156117b6576040517f08c379a00000000000000000000000000000000000000000000000000000000081526004016117ad90613934565b60405180910390fd5b83810360008087815260200190815260200160002060008973ffffffffffffffffffffffffffffffffffffffff1673ffffffffffffffffffffffffffffffffffffffff168152602001908152602001600020819055508360008087815260200190815260200160002060008873ffffffffffffffffffffffffffffffffffffffff1673ffffffffffffffffffffffffffffffffffffffff168152602001908152602001600020600082825461186b9190613b5e565b925050819055508573ffffffffffffffffffffffffffffffffffffffff168773ffffffffffffffffffffffffffffffffffffffff168373ffffffffffffffffffffffffffffffffffffffff167fc3d58168c5ae7397731d063d5bbf3d657854427343f4c083240f7aacaa2d0f6288886040516118e89291906139cf565b60405180910390a46118fe8288888888886123e8565b50505050505050565b6060600660008481526020019081526020016000206001016000838152602001908152602001600020805480602002602001604051908101604052809291908181526020016000905b828210156119fc57838290600052602060002001805461196f90613d65565b80601f016020809104026020016040519081016040528092919081815260200182805461199b90613d65565b80156119e85780601f106119bd576101008083540402835291602001916119e8565b820191906000526020600020905b8154815290600101906020018083116119cb57829003601f168201915b505050505081526020019060010190611950565b50505050905092915050565b60606000611a168484611907565b9050600081511115611a6c5780600081518110611a5c577f4e487b7100000000000000000000000000000000000000000000000000000000600052603260045260246000fd5b6020026020010151915050611a80565b604051806020016040528060008152509150505b92915050565b6060600082511415611aa957604051806020016040528060008152509050611c0b565b60006040518060600160405280604081526020016147396040913990506000600360028551611ad89190613b5e565b611ae29190613bb4565b6004611aee9190613be5565b67ffffffffffffffff811115611b2d577f4e487b7100000000000000000000000000000000000000000000000000000000600052604160045260246000fd5b6040519080825280601f01601f191660200182016040528015611b5f5781602001600182028036833780820191505090505b509050600182016020820185865187015b80821015611bcb576003820191508151603f8160121c168501518453600184019350603f81600c1c168501518453600184019350603f8160061c168501518453600184019350603f8116850151845360018401935050611b70565b5050600386510660018114611be75760028114611bfa57611c02565b603d6001830353603d6002830353611c02565b603d60018303535b50505080925050505b919050565b505050505050565b611c378473ffffffffffffffffffffffffffffffffffffffff166125cf565b15611df7578373ffffffffffffffffffffffffffffffffffffffff1663bc197c8187878686866040518663ffffffff1660e01b8152600401611c7d9594939291906136fc565b602060405180830381600087803b158015611c9757600080fd5b505af1925050508015611cc857506040513d601f19601f82011682018060405250810190611cc59190612c30565b60015b611d6e57611cd4613efe565b806308c379a01415611d315750611ce961462f565b80611cf45750611d33565b806040517f08c379a0000000000000000000000000000000000000000000000000000000008152600401611d289190613832565b60405180910390fd5b505b6040517f08c379a0000000000000000000000000000000000000000000000000000000008152600401611d6590613854565b60405180910390fd5b63bc197c8160e01b7bffffffffffffffffffffffffffffffffffffffffffffffffffffffff1916817bffffffffffffffffffffffffffffffffffffffffffffffffffffffff191614611df5576040517f08c379a0000000000000000000000000000000000000000000000000000000008152600401611dec90613894565b60405180910390fd5b505b505050505050565b60606000611e0c836125f2565b9050600081511115611e625780600081518110611e52577f4e487b7100000000000000000000000000000000000000000000000000000000600052603260045260246000fd5b6020026020010151915050611e76565b604051806020016040528060008152509150505b919050565b60606000821415611ec3576040518060400160405280600181526020017f30000000000000000000000000000000000000000000000000000000000000008152509050612023565b600082905060005b60008214611ef5578080611ede90613dc8565b915050600a82611eee9190613bb4565b9150611ecb565b60008167ffffffffffffffff811115611f37577f4e487b7100000000000000000000000000000000000000000000000000000000600052604160045260246000fd5b6040519080825280601f01601f191660200182016040528015611f695781602001600182028036833780820191505090505b5090505b6000851461201c57600182611f829190613c3f565b9150600a85611f919190613e11565b6030611f9d9190613b5e565b60f81b818381518110611fd9577f4e487b7100000000000000000000000000000000000000000000000000000000600052603260045260246000fd5b60200101907effffffffffffffffffffffffffffffffffffffffffffffffffffffffffffff1916908160001a905350600a856120159190613bb4565b9450611f6d565b8093505050505b919050565b60606000600283600261203b9190613be5565b6120459190613b5e565b67ffffffffffffffff811115612084577f4e487b7100000000000000000000000000000000000000000000000000000000600052604160045260246000fd5b6040519080825280601f01601f1916602001820160405280156120b65781602001600182028036833780820191505090505b5090507f300000000000000000000000000000000000000000000000000000000000000081600081518110612114577f4e487b7100000000000000000000000000000000000000000000000000000000600052603260045260246000fd5b60200101907effffffffffffffffffffffffffffffffffffffffffffffffffffffffffffff1916908160001a9053507f78000000000000000000000000000000000000000000000000000000000000008160018151811061219e577f4e487b7100000000000000000000000000000000000000000000000000000000600052603260045260246000fd5b60200101907effffffffffffffffffffffffffffffffffffffffffffffffffffffffffffff1916908160001a905350600060018460026121de9190613be5565b6121e89190613b5e565b90505b60018111156122d4577f3031323334353637383961626364656600000000000000000000000000000000600f861660108110612250577f4e487b7100000000000000000000000000000000000000000000000000000000600052603260045260246000fd5b1a60f81b82828151811061228d577f4e487b7100000000000000000000000000000000000000000000000000000000600052603260045260246000fd5b60200101907effffffffffffffffffffffffffffffffffffffffffffffffffffffffffffff1916908160001a905350600485901c9450806122cd90613d3b565b90506121eb565b5060008414612318576040517f08c379a000000000000000000000000000000000000000000000000000000000815260040161230f90613874565b60405180910390fd5b8091505092915050565b60606000600167ffffffffffffffff811115612367577f4e487b7100000000000000000000000000000000000000000000000000000000600052604160045260246000fd5b6040519080825280602002602001820160405280156123955781602001602082028036833780820191505090505b50905082816000815181106123d3577f4e487b7100000000000000000000000000000000000000000000000000000000600052603260045260246000fd5b60200260200101818152505080915050919050565b6124078473ffffffffffffffffffffffffffffffffffffffff166125cf565b156125c7578373ffffffffffffffffffffffffffffffffffffffff1663f23a6e6187878686866040518663ffffffff1660e01b815260040161244d959493929190613764565b602060405180830381600087803b15801561246757600080fd5b505af192505050801561249857506040513d601f19601f820116820180604052508101906124959190612c30565b60015b61253e576124a4613efe565b806308c379a0141561250157506124b961462f565b806124c45750612503565b806040517f08c379a00000000000000000000000000000000000000000000000000000000081526004016124f89190613832565b60405180910390fd5b505b6040517f08c379a000000000000000000000000000000000000000000000000000000000815260040161253590613854565b60405180910390fd5b63f23a6e6160e01b7bffffffffffffffffffffffffffffffffffffffffffffffffffffffff1916817bffffffffffffffffffffffffffffffffffffffffffffffffffffffff1916146125c5576040517f08c379a00000000000000000000000000000000000000000000000000000000081526004016125bc90613894565b60405180910390fd5b505b505050505050565b6000808273ffffffffffffffffffffffffffffffffffffffff163b119050919050565b606060036001016000838152602001908152602001600020805480602002602001604051908101604052809291908181526020016000905b828210156126d657838290600052602060002001805461264990613d65565b80601f016020809104026020016040519081016040528092919081815260200182805461267590613d65565b80156126c25780601f10612697576101008083540402835291602001916126c2565b820191906000526020600020905b8154815290600101906020018083116126a557829003601f168201915b50505050508152602001906001019061262a565b505050509050919050565b60006126f46126ef84613a1d565b6139f8565b9050808382526020820190508285602086028201111561271357600080fd5b60005b8581101561274357816127298882612835565b845260208401935060208301925050600181019050612716565b5050509392505050565b600061276061275b84613a49565b6139f8565b9050808382526020820190508285602086028201111561277f57600080fd5b60005b858110156127af57816127958882612946565b845260208401935060208301925050600181019050612782565b5050509392505050565b60006127cc6127c784613a75565b6139f8565b9050828152602081018484840111156127e457600080fd5b6127ef848285613cf9565b509392505050565b600061280a61280584613aa6565b6139f8565b90508281526020810184848401111561282257600080fd5b61282d848285613d08565b509392505050565b600081359050612844816146c5565b92915050565b600081519050612859816146dc565b92915050565b600082601f83011261287057600080fd5b81356128808482602086016126e1565b91505092915050565b600082601f83011261289a57600080fd5b81356128aa84826020860161274d565b91505092915050565b6000813590506128c2816146f3565b92915050565b6000813590506128d78161470a565b92915050565b6000815190506128ec8161470a565b92915050565b600082601f83011261290357600080fd5b81356129138482602086016127b9565b91505092915050565b600082601f83011261292d57600080fd5b815161293d8482602086016127f7565b91505092915050565b60008135905061295581614721565b92915050565b60008151905061296a81614721565b92915050565b60006020828403121561298257600080fd5b60006129908482850161284a565b91505092915050565b600080604083850312156129ac57600080fd5b60006129ba85828601612835565b92505060206129cb85828601612835565b9150509250929050565b600080600080600060a086880312156129ed57600080fd5b60006129fb88828901612835565b9550506020612a0c88828901612835565b945050604086013567ffffffffffffffff811115612a2957600080fd5b612a3588828901612889565b935050606086013567ffffffffffffffff811115612a5257600080fd5b612a5e88828901612889565b925050608086013567ffffffffffffffff811115612a7b57600080fd5b612a87888289016128f2565b9150509295509295909350565b600080600080600060a08688031215612aac57600080fd5b6000612aba88828901612835565b9550506020612acb88828901612835565b9450506040612adc88828901612946565b9350506060612aed88828901612946565b925050608086013567ffffffffffffffff811115612b0a57600080fd5b612b16888289016128f2565b9150509295509295909350565b60008060408385031215612b3657600080fd5b6000612b4485828601612835565b9250506020612b55858286016128b3565b9150509250929050565b60008060408385031215612b7257600080fd5b6000612b8085828601612835565b9250506020612b9185828601612946565b9150509250929050565b60008060408385031215612bae57600080fd5b600083013567ffffffffffffffff811115612bc857600080fd5b612bd48582860161285f565b925050602083013567ffffffffffffffff811115612bf157600080fd5b612bfd85828601612889565b9150509250929050565b600060208284031215612c1957600080fd5b6000612c27848285016128c8565b91505092915050565b600060208284031215612c4257600080fd5b6000612c50848285016128dd565b91505092915050565b600060208284031215612c6b57600080fd5b600082015167ffffffffffffffff811115612c8557600080fd5b612c918482850161291c565b91505092915050565b600060208284031215612cac57600080fd5b6000612cba84828501612946565b91505092915050565b600060208284031215612cd557600080fd5b6000612ce38482850161295b565b91505092915050565b6000612cf8838361331d565b60208301905092915050565b612d0d81613c73565b82525050565b6000612d1e82613ae7565b612d288185613b15565b9350612d3383613ad7565b8060005b83811015612d64578151612d4b8882612cec565b9750612d5683613b08565b925050600181019050612d37565b5085935050505092915050565b612d7a81613c97565b82525050565b6000612d8b82613af2565b612d958185613b26565b9350612da5818560208601613d08565b612dae81613f20565b840191505092915050565b6000612dc482613af2565b612dce8185613b37565b9350612dde818560208601613d08565b80840191505092915050565b6000612df582613afd565b612dff8185613b42565b9350612e0f818560208601613d08565b612e1881613f20565b840191505092915050565b6000612e2e82613afd565b612e388185613b53565b9350612e48818560208601613d08565b80840191505092915050565b6000612e61603483613b42565b9150612e6c82613f3e565b604082019050919050565b6000612e84601d83613b53565b9150612e8f82613f8d565b601d82019050919050565b6000612ea7602083613b42565b9150612eb282613fb6565b602082019050919050565b6000612eca602883613b42565b9150612ed582613fdf565b604082019050919050565b6000612eed601183613b53565b9150612ef88261402e565b601182019050919050565b6000612f10602b83613b42565b9150612f1b82614057565b604082019050919050565b6000612f33600283613b53565b9150612f3e826140a6565b600282019050919050565b6000612f56602983613b42565b9150612f61826140cf565b604082019050919050565b6000612f79600d83613b53565b9150612f848261411e565b600d82019050919050565b6000612f9c600f83613b53565b9150612fa782614147565b600f82019050919050565b6000612fbf601483613b53565b9150612fca82614170565b601482019050919050565b6000612fe2601083613b53565b9150612fed82614199565b601082019050919050565b6000613005601383613b53565b9150613010826141c2565b601382019050919050565b6000613028600183613b53565b9150613033826141eb565b600182019050919050565b600061304b602583613b42565b915061305682614214565b604082019050919050565b600061306e603283613b42565b915061307982614263565b604082019050919050565b6000613091600c83613b53565b915061309c826142b2565b600c82019050919050565b60006130b4600283613b53565b91506130bf826142db565b600282019050919050565b60006130d7602a83613b42565b91506130e282614304565b604082019050919050565b60006130fa600183613b53565b915061310582614353565b600182019050919050565b600061311d600983613b53565b91506131288261437c565b600982019050919050565b6000613140600183613b53565b915061314b826143a5565b600182019050919050565b6000613163601283613b53565b915061316e826143ce565b601282019050919050565b6000613186600183613b53565b9150613191826143f7565b600182019050919050565b60006131a9601483613b53565b91506131b482614420565b601482019050919050565b60006131cc601d83613b53565b91506131d782614449565b601d82019050919050565b60006131ef600083613b53565b91506131fa82614472565b600082019050919050565b6000613212600383613b53565b915061321d82614475565b600382019050919050565b6000613235601683613b53565b91506132408261449e565b601682019050919050565b6000613258601183613b53565b9150613263826144c7565b601182019050919050565b600061327b602983613b42565b9150613286826144f0565b604082019050919050565b600061329e602983613b42565b91506132a98261453f565b604082019050919050565b60006132c1601083613b53565b91506132cc8261458e565b601082019050919050565b60006132e4602883613b42565b91506132ef826145b7565b604082019050919050565b6000613307601483613b53565b915061331282614606565b601482019050919050565b61332681613cef565b82525050565b61333581613cef565b82525050565b60006133478288612db9565b91506133538287612e23565b915061335e82613133565b915061336a8286612e23565b915061337582612f8f565b91506133818285612e23565b915061338c82612f6c565b91506133988284612e23565b91506133a3826130a7565b91508190509695505050505050565b60006133be8284612db9565b91506133c982613179565b915081905092915050565b60006133df82612e77565b91506133eb8284612e23565b91506133f6826131e2565b915081905092915050565b600061340c82612ee0565b91506134188284612e23565b915061342382612f26565b915081905092915050565b600061343982612fb2565b91506134458284612e23565b91506134508261301b565b915081905092915050565b600061346682612ff8565b91506134728284612e23565b915061347d8261301b565b915081905092915050565b600061349382613084565b915061349f8284612e23565b91506134aa8261301b565b915081905092915050565b60006134c082613133565b91506134cb82613110565b91506134d78289612e23565b91506134e28261301b565b91506134ee8288612e23565b91506134fa8287612e23565b91506135068286612e23565b91506135128285612e23565b915061351e8284612e23565b9150613529826130ed565b9150819050979650505050505050565b600061354482613133565b915061354f82613110565b915061355b828b612e23565b915061356682613205565b915061357182612fd5565b915061357d828a612e23565b91506135888261301b565b91506135948289612e23565b91506135a08288612e23565b91506135ac8287612e23565b91506135b88286612e23565b91506135c48285612e23565b91506135d08284612e23565b91506135db826130ed565b91508190509998505050505050505050565b60006135f882613156565b91506136048284612e23565b915061360f8261301b565b915081905092915050565b60006136258261319c565b91506136318284612e23565b915061363c8261301b565b915081905092915050565b6000613652826131bf565b915061365e8284612e23565b915081905092915050565b600061367482613228565b91506136808284612e23565b915081905092915050565b60006136968261324b565b91506136a28284612e23565b915081905092915050565b60006136b8826132b4565b91506136c48284612db9565b915081905092915050565b60006136da826132fa565b91506136e68284612e23565b91506136f18261301b565b915081905092915050565b600060a0820190506137116000830188612d04565b61371e6020830187612d04565b81810360408301526137308186612d13565b905081810360608301526137448185612d13565b905081810360808301526137588184612d80565b90509695505050505050565b600060a0820190506137796000830188612d04565b6137866020830187612d04565b613793604083018661332c565b6137a0606083018561332c565b81810360808301526137b28184612d80565b90509695505050505050565b600060208201905081810360008301526137d88184612d13565b905092915050565b600060408201905081810360008301526137fa8185612d13565b9050818103602083015261380e8184612d13565b90509392505050565b600060208201905061382c6000830184612d71565b92915050565b6000602082019050818103600083015261384c8184612dea565b905092915050565b6000602082019050818103600083015261386d81612e54565b9050919050565b6000602082019050818103600083015261388d81612e9a565b9050919050565b600060208201905081810360008301526138ad81612ebd565b9050919050565b600060208201905081810360008301526138cd81612f03565b9050919050565b600060208201905081810360008301526138ed81612f49565b9050919050565b6000602082019050818103600083015261390d8161303e565b9050919050565b6000602082019050818103600083015261392d81613061565b9050919050565b6000602082019050818103600083015261394d816130ca565b9050919050565b6000602082019050818103600083015261396d8161326e565b9050919050565b6000602082019050818103600083015261398d81613291565b9050919050565b600060208201905081810360008301526139ad816132d7565b9050919050565b60006020820190506139c9600083018461332c565b92915050565b60006040820190506139e4600083018561332c565b6139f1602083018461332c565b9392505050565b6000613a02613a13565b9050613a0e8282613d97565b919050565b6000604051905090565b600067ffffffffffffffff821115613a3857613a37613ecf565b5b602082029050602081019050919050565b600067ffffffffffffffff821115613a6457613a63613ecf565b5b602082029050602081019050919050565b600067ffffffffffffffff821115613a9057613a8f613ecf565b5b613a9982613f20565b9050602081019050919050565b600067ffffffffffffffff821115613ac157613ac0613ecf565b5b613aca82613f20565b9050602081019050919050565b6000819050602082019050919050565b600081519050919050565b600081519050919050565b600081519050919050565b6000602082019050919050565b600082825260208201905092915050565b600082825260208201905092915050565b600081905092915050565b600082825260208201905092915050565b600081905092915050565b6000613b6982613cef565b9150613b7483613cef565b9250827fffffffffffffffffffffffffffffffffffffffffffffffffffffffffffffffff03821115613ba957613ba8613e42565b5b828201905092915050565b6000613bbf82613cef565b9150613bca83613cef565b925082613bda57613bd9613e71565b5b828204905092915050565b6000613bf082613cef565b9150613bfb83613cef565b9250817fffffffffffffffffffffffffffffffffffffffffffffffffffffffffffffffff0483118215151615613c3457613c33613e42565b5b828202905092915050565b6000613c4a82613cef565b9150613c5583613cef565b925082821015613c6857613c67613e42565b5b828203905092915050565b6000613c7e82613ccf565b9050919050565b6000613c9082613ccf565b9050919050565b60008115159050919050565b60007fffffffff0000000000000000000000000000000000000000000000000000000082169050919050565b600073ffffffffffffffffffffffffffffffffffffffff82169050919050565b6000819050919050565b82818337600083830152505050565b60005b83811015613d26578082015181840152602081019050613d0b565b83811115613d35576000848401525b50505050565b6000613d4682613cef565b91506000821415613d5a57613d59613e42565b5b600182039050919050565b60006002820490506001821680613d7d57607f821691505b60208210811415613d9157613d90613ea0565b5b50919050565b613da082613f20565b810181811067ffffffffffffffff82111715613dbf57613dbe613ecf565b5b80604052505050565b6000613dd382613cef565b91507fffffffffffffffffffffffffffffffffffffffffffffffffffffffffffffffff821415613e0657613e05613e42565b5b600182019050919050565b6000613e1c82613cef565b9150613e2783613cef565b925082613e3757613e36613e71565b5b828206905092915050565b7f4e487b7100000000000000000000000000000000000000000000000000000000600052601160045260246000fd5b7f4e487b7100000000000000000000000000000000000000000000000000000000600052601260045260246000fd5b7f4e487b7100000000000000000000000000000000000000000000000000000000600052602260045260246000fd5b7f4e487b7100000000000000000000000000000000000000000000000000000000600052604160045260246000fd5b600060033d1115613f1d5760046000803e613f1a600051613f31565b90505b90565b6000601f19601f8301169050919050565b60008160e01c9050919050565b7f455243313135353a207472616e7366657220746f206e6f6e204552433131353560008201527f526563656976657220696d706c656d656e746572000000000000000000000000602082015250565b7f2c202273656c6c65725f6665655f62617369735f706f696e7473223a20000000600082015250565b7f537472696e67733a20686578206c656e67746820696e73756666696369656e74600082015250565b7f455243313135353a204552433131353552656365697665722072656a6563746560008201527f6420746f6b656e73000000000000000000000000000000000000000000000000602082015250565b7f22646973706c61795f74797065223a2022000000000000000000000000000000600082015250565b7f455243313135353a2062616c616e636520717565727920666f7220746865207a60008201527f65726f2061646472657373000000000000000000000000000000000000000000602082015250565b7f222c000000000000000000000000000000000000000000000000000000000000600082015250565b7f455243313135353a2063616c6c6572206973206e6f74206f776e6572206e6f7260008201527f20617070726f7665640000000000000000000000000000000000000000000000602082015250565b7f222c202276616c7565223a202200000000000000000000000000000000000000600082015250565b7f2274726169745f74797065223a20220000000000000000000000000000000000600082015250565b7f2c20226665655f726563697069656e74223a2022000000000000000000000000600082015250565b7f226465736372697074696f6e223a202200000000000000000000000000000000600082015250565b7f2c202265787465726e616c5f75726c223a202200000000000000000000000000600082015250565b7f2200000000000000000000000000000000000000000000000000000000000000600082015250565b7f455243313135353a207472616e7366657220746f20746865207a65726f20616460008201527f6472657373000000000000000000000000000000000000000000000000000000602082015250565b7f455243313135353a207472616e736665722063616c6c6572206973206e6f742060008201527f6f776e6572206e6f7220617070726f7665640000000000000000000000000000602082015250565b7f2c2022696d616765223a20220000000000000000000000000000000000000000600082015250565b7f227d000000000000000000000000000000000000000000000000000000000000600082015250565b7f455243313135353a20696e73756666696369656e742062616c616e636520666f60008201527f72207472616e7366657200000000000000000000000000000000000000000000602082015250565b7f7d00000000000000000000000000000000000000000000000000000000000000600082015250565b7f226e616d65223a20220000000000000000000000000000000000000000000000600082015250565b7f7b00000000000000000000000000000000000000000000000000000000000000600082015250565b7f2c20226465736372697074696f6e223a20220000000000000000000000000000600082015250565b7f5d00000000000000000000000000000000000000000000000000000000000000600082015250565b7f2c202265787465726e616c5f6c696e6b223a2022000000000000000000000000600082015250565b7f646174613a6170706c69636174696f6e2f6a736f6e3b6261736536342c000000600082015250565b50565b7f222c200000000000000000000000000000000000000000000000000000000000600082015250565b7f2c20226261636b67726f756e645f636f6c6f72223a2000000000000000000000600082015250565b7f2c2022796f75747562655f75726c223a20000000000000000000000000000000600082015250565b7f455243313135353a2073657474696e6720617070726f76616c2073746174757360008201527f20666f722073656c660000000000000000000000000000000000000000000000602082015250565b7f455243313135353a206163636f756e747320616e6420696473206c656e67746860008201527f206d69736d617463680000000000000000000000000000000000000000000000602082015250565b7f2c202261747472696275746573223a2000000000000000000000000000000000600082015250565b7f455243313135353a2069647320616e6420616d6f756e7473206c656e6774682060008201527f6d69736d61746368000000000000000000000000000000000000000000000000602082015250565b7f2c2022616e696d6174696f6e5f75726c223a2022000000000000000000000000600082015250565b600060443d101561463f576146c2565b614647613a13565b60043d036004823e80513d602482011167ffffffffffffffff8211171561466f5750506146c2565b808201805167ffffffffffffffff81111561468d57505050506146c2565b80602083010160043d0385018111156146aa5750505050506146c2565b6146b982602001850186613d97565b82955050505050505b90565b6146ce81613c73565b81146146d957600080fd5b50565b6146e581613c85565b81146146f057600080fd5b50565b6146fc81613c97565b811461470757600080fd5b50565b61471381613ca3565b811461471e57600080fd5b50565b61472a81613cef565b811461473557600080fd5b5056fe4142434445464748494a4b4c4d4e4f505152535455565758595a6162636465666768696a6b6c6d6e6f707172737475767778797a303132333435363738392b2fa26469706673582212202a2620f5ecb8182f8e2d08fd38ad1dddd6425b19ca744af29d632cf441dbabec64736f6c63430008010033",
  "linkReferences": {},
  "deployedLinkReferences": {}
}