{
  "_format": "hh-sol-artifact-1",
  "contractName": "ERC721OnChainMetadata",
  "sourceName": "contracts/ERC721OnChainMetadata.sol",
  "abi": [
    {
      "inputs": [
        {
          "internalType": "string",
          "name": "name",
          "type": "string"
        },
        {
          "internalType": "string",
          "name": "symbol",
          "type": "string"
        }
      ],
      "stateMutability": "nonpayable",
      "type": "constructor"
    },
    {
      "anonymous": false,
      "inputs": [
        {
          "indexed": true,
          "internalType": "address",
          "name": "owner",
          "type": "address"
        },
        {
          "indexed": true,
          "internalType": "address",
          "name": "approved",
          "type": "address"
        },
        {
          "indexed": true,
          "internalType": "uint256",
          "name": "tokenId",
          "type": "uint256"
        }
      ],
      "name": "Approval",
      "type": "event"
    },
    {
      "anonymous": false,
      "inputs": [
        {
          "indexed": true,
          "internalType": "address",
          "name": "owner",
          "type": "address"
        },
        {
          "indexed": true,
          "internalType": "address",
          "name": "operator",
          "type": "address"
        },
        {
          "indexed": false,
          "internalType": "bool",
          "name": "approved",
          "type": "bool"
        }
      ],
      "name": "ApprovalForAll",
      "type": "event"
    },
    {
      "anonymous": false,
      "inputs": [
        {
          "indexed": true,
          "internalType": "address",
          "name": "from",
          "type": "address"
        },
        {
          "indexed": true,
          "internalType": "address",
          "name": "to",
          "type": "address"
        },
        {
          "indexed": true,
          "internalType": "uint256",
          "name": "tokenId",
          "type": "uint256"
        }
      ],
      "name": "Transfer",
      "type": "event"
    },
    {
      "inputs": [
        {
          "internalType": "address",
          "name": "to",
          "type": "address"
        },
        {
          "internalType": "uint256",
          "name": "tokenId",
          "type": "uint256"
        }
      ],
      "name": "approve",
      "outputs": [],
      "stateMutability": "nonpayable",
      "type": "function"
    },
    {
      "inputs": [
        {
          "internalType": "address",
          "name": "owner",
          "type": "address"
        }
      ],
      "name": "balanceOf",
      "outputs": [
        {
          "internalType": "uint256",
          "name": "",
          "type": "uint256"
        }
      ],
      "stateMutability": "view",
      "type": "function"
    },
    {
      "inputs": [],
      "name": "contractURI",
      "outputs": [
        {
          "internalType": "string",
          "name": "",
          "type": "string"
        }
      ],
      "stateMutability": "view",
      "type": "function"
    },
    {
      "inputs": [
        {
          "internalType": "uint256",
          "name": "tokenId",
          "type": "uint256"
        }
      ],
      "name": "getApproved",
      "outputs": [
        {
          "internalType": "address",
          "name": "",
          "type": "address"
        }
      ],
      "stateMutability": "view",
      "type": "function"
    },
    {
      "inputs": [
        {
          "internalType": "address",
          "name": "owner",
          "type": "address"
        },
        {
          "internalType": "address",
          "name": "operator",
          "type": "address"
        }
      ],
      "name": "isApprovedForAll",
      "outputs": [
        {
          "internalType": "bool",
          "name": "",
          "type": "bool"
        }
      ],
      "stateMutability": "view",
      "type": "function"
    },
    {
      "inputs": [],
      "name": "name",
      "outputs": [
        {
          "internalType": "string",
          "name": "",
          "type": "string"
        }
      ],
      "stateMutability": "view",
      "type": "function"
    },
    {
      "inputs": [
        {
          "internalType": "uint256",
          "name": "tokenId",
          "type": "uint256"
        }
      ],
      "name": "ownerOf",
      "outputs": [
        {
          "internalType": "address",
          "name": "",
          "type": "address"
        }
      ],
      "stateMutability": "view",
      "type": "function"
    },
    {
      "inputs": [
        {
          "internalType": "address",
          "name": "from",
          "type": "address"
        },
        {
          "internalType": "address",
          "name": "to",
          "type": "address"
        },
        {
          "internalType": "uint256",
          "name": "tokenId",
          "type": "uint256"
        }
      ],
      "name": "safeTransferFrom",
      "outputs": [],
      "stateMutability": "nonpayable",
      "type": "function"
    },
    {
      "inputs": [
        {
          "internalType": "address",
          "name": "from",
          "type": "address"
        },
        {
          "internalType": "address",
          "name": "to",
          "type": "address"
        },
        {
          "internalType": "uint256",
          "name": "tokenId",
          "type": "uint256"
        },
        {
          "internalType": "bytes",
          "name": "_data",
          "type": "bytes"
        }
      ],
      "name": "safeTransferFrom",
      "outputs": [],
      "stateMutability": "nonpayable",
      "type": "function"
    },
    {
      "inputs": [
        {
          "internalType": "address",
          "name": "operator",
          "type": "address"
        },
        {
          "internalType": "bool",
          "name": "approved",
          "type": "bool"
        }
      ],
      "name": "setApprovalForAll",
      "outputs": [],
      "stateMutability": "nonpayable",
      "type": "function"
    },
    {
      "inputs": [
        {
          "internalType": "bytes4",
          "name": "interfaceId",
          "type": "bytes4"
        }
      ],
      "name": "supportsInterface",
      "outputs": [
        {
          "internalType": "bool",
          "name": "",
          "type": "bool"
        }
      ],
      "stateMutability": "view",
      "type": "function"
    },
    {
      "inputs": [],
      "name": "symbol",
      "outputs": [
        {
          "internalType": "string",
          "name": "",
          "type": "string"
        }
      ],
      "stateMutability": "view",
      "type": "function"
    },
    {
      "inputs": [
        {
          "internalType": "uint256",
          "name": "tokenId",
          "type": "uint256"
        }
      ],
      "name": "tokenURI",
      "outputs": [
        {
          "internalType": "string",
          "name": "",
          "type": "string"
        }
      ],
      "stateMutability": "view",
      "type": "function"
    },
    {
      "inputs": [
        {
          "internalType": "address",
          "name": "from",
          "type": "address"
        },
        {
          "internalType": "address",
          "name": "to",
          "type": "address"
        },
        {
          "internalType": "uint256",
          "name": "tokenId",
          "type": "uint256"
        }
      ],
      "name": "transferFrom",
      "outputs": [],
      "stateMutability": "nonpayable",
      "type": "function"
    }
  ],
  "bytecode": "0x60806040523480156200001157600080fd5b50604051620045e3380380620045e3833981810160405281019062000037919062000197565b818181600090805190602001906200005192919062000075565b5080600190805190602001906200006a92919062000075565b50505050506200037a565b82805462000083906200029f565b90600052602060002090601f016020900481019282620000a75760008555620000f3565b82601f10620000c257805160ff1916838001178555620000f3565b82800160010185558215620000f3579182015b82811115620000f2578251825591602001919060010190620000d5565b5b50905062000102919062000106565b5090565b5b808211156200012157600081600090555060010162000107565b5090565b60006200013c620001368462000233565b6200020a565b9050828152602081018484840111156200015557600080fd5b6200016284828562000269565b509392505050565b600082601f8301126200017c57600080fd5b81516200018e84826020860162000125565b91505092915050565b60008060408385031215620001ab57600080fd5b600083015167ffffffffffffffff811115620001c657600080fd5b620001d4858286016200016a565b925050602083015167ffffffffffffffff811115620001f257600080fd5b62000200858286016200016a565b9150509250929050565b60006200021662000229565b9050620002248282620002d5565b919050565b6000604051905090565b600067ffffffffffffffff8211156200025157620002506200033a565b5b6200025c8262000369565b9050602081019050919050565b60005b83811015620002895780820151818401526020810190506200026c565b8381111562000299576000848401525b50505050565b60006002820490506001821680620002b857607f821691505b60208210811415620002cf57620002ce6200030b565b5b50919050565b620002e08262000369565b810181811067ffffffffffffffff821117156200030257620003016200033a565b5b80604052505050565b7f4e487b7100000000000000000000000000000000000000000000000000000000600052602260045260246000fd5b7f4e487b7100000000000000000000000000000000000000000000000000000000600052604160045260246000fd5b6000601f19601f8301169050919050565b614259806200038a6000396000f3fe608060405234801561001057600080fd5b50600436106100ea5760003560e01c806370a082311161008c578063b88d4fde11610066578063b88d4fde1461025b578063c87b56dd14610277578063e8a3d485146102a7578063e985e9c5146102c5576100ea565b806370a08231146101f157806395d89b4114610221578063a22cb4651461023f576100ea565b8063095ea7b3116100c8578063095ea7b31461016d57806323b872dd1461018957806342842e0e146101a55780636352211e146101c1576100ea565b806301ffc9a7146100ef57806306fdde031461011f578063081812fc1461013d575b600080fd5b61010960048036038101906101049190612892565b6102f5565b60405161011691906133af565b60405180910390f35b6101276103d7565b60405161013491906133ca565b60405180910390f35b61015760048036038101906101529190612925565b610469565b6040516101649190613348565b60405180910390f35b61018760048036038101906101829190612856565b6104ee565b005b6101a3600480360381019061019e9190612750565b610606565b005b6101bf60048036038101906101ba9190612750565b610666565b005b6101db60048036038101906101d69190612925565b610686565b6040516101e89190613348565b60405180910390f35b61020b600480360381019061020691906126c2565b610738565b604051610218919061358c565b60405180910390f35b6102296107f0565b60405161023691906133ca565b60405180910390f35b6102596004803603810190610254919061281a565b610882565b005b6102756004803603810190610270919061279f565b610898565b005b610291600480360381019061028c9190612925565b6108fa565b60405161029e91906133ca565b60405180910390f35b6102af610954565b6040516102bc91906133ca565b60405180910390f35b6102df60048036038101906102da9190612714565b610963565b6040516102ec91906133af565b60405180910390f35b60007f80ac58cd000000000000000000000000000000000000000000000000000000007bffffffffffffffffffffffffffffffffffffffffffffffffffffffff1916827bffffffffffffffffffffffffffffffffffffffffffffffffffffffff191614806103c057507f5b5e139f000000000000000000000000000000000000000000000000000000007bffffffffffffffffffffffffffffffffffffffffffffffffffffffff1916827bffffffffffffffffffffffffffffffffffffffffffffffffffffffff1916145b806103d057506103cf826109f7565b5b9050919050565b6060600080546103e690613883565b80601f016020809104026020016040519081016040528092919081815260200182805461041290613883565b801561045f5780601f106104345761010080835404028352916020019161045f565b820191906000526020600020905b81548152906001019060200180831161044257829003601f168201915b5050505050905090565b600061047482610a61565b6104b3576040517f08c379a00000000000000000000000000000000000000000000000000000000081526004016104aa9061352c565b60405180910390fd5b6004600083815260200190815260200160002060009054906101000a900473ffffffffffffffffffffffffffffffffffffffff169050919050565b60006104f982610686565b90508073ffffffffffffffffffffffffffffffffffffffff168373ffffffffffffffffffffffffffffffffffffffff16141561056a576040517f08c379a00000000000000000000000000000000000000000000000000000000081526004016105619061354c565b60405180910390fd5b8073ffffffffffffffffffffffffffffffffffffffff16610589610acd565b73ffffffffffffffffffffffffffffffffffffffff1614806105b857506105b7816105b2610acd565b610963565b5b6105f7576040517f08c379a00000000000000000000000000000000000000000000000000000000081526004016105ee906134cc565b60405180910390fd5b6106018383610ad5565b505050565b610617610611610acd565b82610b8e565b610656576040517f08c379a000000000000000000000000000000000000000000000000000000000815260040161064d9061356c565b60405180910390fd5b610661838383610c6c565b505050565b61068183838360405180602001604052806000815250610898565b505050565b6000806002600084815260200190815260200160002060009054906101000a900473ffffffffffffffffffffffffffffffffffffffff169050600073ffffffffffffffffffffffffffffffffffffffff168173ffffffffffffffffffffffffffffffffffffffff16141561072f576040517f08c379a00000000000000000000000000000000000000000000000000000000081526004016107269061350c565b60405180910390fd5b80915050919050565b60008073ffffffffffffffffffffffffffffffffffffffff168273ffffffffffffffffffffffffffffffffffffffff1614156107a9576040517f08c379a00000000000000000000000000000000000000000000000000000000081526004016107a0906134ec565b60405180910390fd5b600360008373ffffffffffffffffffffffffffffffffffffffff1673ffffffffffffffffffffffffffffffffffffffff168152602001908152602001600020549050919050565b6060600180546107ff90613883565b80601f016020809104026020016040519081016040528092919081815260200182805461082b90613883565b80156108785780601f1061084d57610100808354040283529160200191610878565b820191906000526020600020905b81548152906001019060200180831161085b57829003601f168201915b5050505050905090565b61089461088d610acd565b8383610ed3565b5050565b6108a96108a3610acd565b83610b8e565b6108e8576040517f08c379a00000000000000000000000000000000000000000000000000000000081526004016108df9061356c565b60405180910390fd5b6108f484848484611040565b50505050565b606061090582610a61565b610944576040517f08c379a000000000000000000000000000000000000000000000000000000000815260040161093b9061340c565b60405180910390fd5b61094d8261109c565b9050919050565b606061095e611744565b905090565b6000600560008473ffffffffffffffffffffffffffffffffffffffff1673ffffffffffffffffffffffffffffffffffffffff16815260200190815260200160002060008373ffffffffffffffffffffffffffffffffffffffff1673ffffffffffffffffffffffffffffffffffffffff16815260200190815260200160002060009054906101000a900460ff16905092915050565b60007f01ffc9a7000000000000000000000000000000000000000000000000000000007bffffffffffffffffffffffffffffffffffffffffffffffffffffffff1916827bffffffffffffffffffffffffffffffffffffffffffffffffffffffff1916149050919050565b60008073ffffffffffffffffffffffffffffffffffffffff166002600084815260200190815260200160002060009054906101000a900473ffffffffffffffffffffffffffffffffffffffff1673ffffffffffffffffffffffffffffffffffffffff1614159050919050565b600033905090565b816004600083815260200190815260200160002060006101000a81548173ffffffffffffffffffffffffffffffffffffffff021916908373ffffffffffffffffffffffffffffffffffffffff160217905550808273ffffffffffffffffffffffffffffffffffffffff16610b4883610686565b73ffffffffffffffffffffffffffffffffffffffff167f8c5be1e5ebec7d5bd14f71427d1e84f3dd0314c0f7b2291e5b200ac8c7c3b92560405160405180910390a45050565b6000610b9982610a61565b610bd8576040517f08c379a0000000000000000000000000000000000000000000000000000000008152600401610bcf906134ac565b60405180910390fd5b6000610be383610686565b90508073ffffffffffffffffffffffffffffffffffffffff168473ffffffffffffffffffffffffffffffffffffffff161480610c5257508373ffffffffffffffffffffffffffffffffffffffff16610c3a84610469565b73ffffffffffffffffffffffffffffffffffffffff16145b80610c635750610c628185610963565b5b91505092915050565b8273ffffffffffffffffffffffffffffffffffffffff16610c8c82610686565b73ffffffffffffffffffffffffffffffffffffffff1614610ce2576040517f08c379a0000000000000000000000000000000000000000000000000000000008152600401610cd99061344c565b60405180910390fd5b600073ffffffffffffffffffffffffffffffffffffffff168273ffffffffffffffffffffffffffffffffffffffff161415610d52576040517f08c379a0000000000000000000000000000000000000000000000000000000008152600401610d499061346c565b60405180910390fd5b610d5d838383611a80565b610d68600082610ad5565b6001600360008573ffffffffffffffffffffffffffffffffffffffff1673ffffffffffffffffffffffffffffffffffffffff1681526020019081526020016000206000828254610db8919061375d565b925050819055506001600360008473ffffffffffffffffffffffffffffffffffffffff1673ffffffffffffffffffffffffffffffffffffffff1681526020019081526020016000206000828254610e0f919061367c565b92505081905550816002600083815260200190815260200160002060006101000a81548173ffffffffffffffffffffffffffffffffffffffff021916908373ffffffffffffffffffffffffffffffffffffffff160217905550808273ffffffffffffffffffffffffffffffffffffffff168473ffffffffffffffffffffffffffffffffffffffff167fddf252ad1be2c89b69c2b068fc378daa952ba7f163c4a11628f55a4df523b3ef60405160405180910390a4610ece838383611a85565b505050565b8173ffffffffffffffffffffffffffffffffffffffff168373ffffffffffffffffffffffffffffffffffffffff161415610f42576040517f08c379a0000000000000000000000000000000000000000000000000000000008152600401610f399061348c565b60405180910390fd5b80600560008573ffffffffffffffffffffffffffffffffffffffff1673ffffffffffffffffffffffffffffffffffffffff16815260200190815260200160002060008473ffffffffffffffffffffffffffffffffffffffff1673ffffffffffffffffffffffffffffffffffffffff16815260200190815260200160002060006101000a81548160ff0219169083151502179055508173ffffffffffffffffffffffffffffffffffffffff168373ffffffffffffffffffffffffffffffffffffffff167f17307eab39ab6107e8899845ad3d59bd9653f200f220920489ca2b5937696c318360405161103391906133af565b60405180910390a3505050565b61104b848484610c6c565b61105784848484611a8a565b611096576040517f08c379a000000000000000000000000000000000000000000000000000000000815260040161108d9061342c565b60405180910390fd5b50505050565b60608060006110cb847f74726169745f7479706500000000000000000000000000000000000000000000611c21565b90506000815111156113a4576040518060400160405280600181526020017f5b000000000000000000000000000000000000000000000000000000000000008152509150600061113b857f74726169745f76616c7565000000000000000000000000000000000000000000611c21565b90506000611169867f74726169745f646973706c617900000000000000000000000000000000000000611c21565b905060005b835181101561137e57846000821161119557604051806020016040528060008152506111cc565b6040518060400160405280600181526020017f2c000000000000000000000000000000000000000000000000000000000000008152505b6000848481518110611207577f4e487b7100000000000000000000000000000000000000000000000000000000600052603260045260246000fd5b6020026020010151511161122a576040518060200160405280600081525061129e565b838381518110611263577f4e487b7100000000000000000000000000000000000000000000000000000000600052603260045260246000fd5b602002602001015180602001905181019061127e91906128e4565b60405160200161128e919061304d565b6040516020818303038152906040525b8684815181106112d7577f4e487b7100000000000000000000000000000000000000000000000000000000600052603260045260246000fd5b60200260200101518060200190518101906112f291906128e4565b86858151811061132b577f4e487b7100000000000000000000000000000000000000000000000000000000600052603260045260246000fd5b602002602001015180602001905181019061134691906128e4565b60405160200161135a959493929190612f87565b60405160208183030381529060405294508080611376906138e6565b91505061116e565b50836040516020016113909190612ffe565b604051602081830303815290604052935050505b60006113d0857f6e616d6500000000000000000000000000000000000000000000000000000000611d22565b8060200190518101906113e391906128e4565b90506000611411867f6465736372697074696f6e000000000000000000000000000000000000000000611d22565b80602001905181019061142491906128e4565b90506000611452877f696d616765000000000000000000000000000000000000000000000000000000611d22565b90506000611480887f616e696d6174696f6e5f75726c00000000000000000000000000000000000000611d22565b905060006114ae897f65787465726e616c5f75726c0000000000000000000000000000000000000000611d22565b905060006114dc8a7f6261636b67726f756e645f636f6c6f7200000000000000000000000000000000611d22565b9050600061150a8b7f796f75747562655f75726c000000000000000000000000000000000000000000611d22565b90506117158787600088511161152f5760405180602001604052806000815250611563565b8780602001905181019061154391906128e4565b60405160200161155391906130d4565b6040516020818303038152906040525b600088511161158157604051806020016040528060008152506115b5565b8780602001905181019061159591906128e4565b6040516020016115a5919061331b565b6040516020818303038152906040525b60008851116115d35760405180602001604052806000815250611607565b878060200190518101906115e791906128e4565b6040516020016115f791906130a7565b6040516020818303038152906040525b60008f51116116255760405180602001604052806000815250611646565b8e60405160200161163691906132f9565b6040516020818303038152906040525b60008951116116645760405180602001604052806000815250611698565b8880602001905181019061167891906128e4565b60405160200161168891906132b5565b6040516020818303038152906040525b60008951116116b657604051806020016040528060008152506116ea565b888060200190518101906116ca91906128e4565b6040516020016116da91906132d7565b6040516020818303038152906040525b604051602001611701989796959493929190613185565b604051602081830303815290604052611da0565b6040516020016117259190613293565b6040516020818303038152906040529950505050505050505050919050565b606060006117717f6e616d6500000000000000000000000000000000000000000000000000000000611f2a565b9050600061179e7f6465736372697074696f6e000000000000000000000000000000000000000000611f2a565b905060006117cb7f696d616765000000000000000000000000000000000000000000000000000000611f2a565b905060006117f87f65787465726e616c5f6c696e6b00000000000000000000000000000000000000611f2a565b905060006118257f73656c6c65725f6665655f62617369735f706f696e7473000000000000000000611f2a565b905060006118527f6665655f726563697069656e7400000000000000000000000000000000000000611f2a565b9050611a568680602001905181019061186b91906128e4565b600087511161188957604051806020016040528060008152506118bd565b8680602001905181019061189d91906128e4565b6040516020016118ad9190613239565b6040516020818303038152906040525b60008751116118db576040518060200160405280600081525061190f565b868060200190518101906118ef91906128e4565b6040516020016118ff91906130d4565b6040516020818303038152906040525b600087511161192d5760405180602001604052806000815250611961565b8680602001905181019061194191906128e4565b6040516020016119519190613266565b6040516020818303038152906040525b600087511161197f57604051806020016040528060008152506119bb565b61199b87806020019051810190611996919061294e565b611fa6565b6040516020016119ab9190613020565b6040516020818303038152906040525b60008751116119d95760405180602001604052806000815250611a2d565b611a0d878060200190518101906119f091906126eb565b73ffffffffffffffffffffffffffffffffffffffff166014612153565b604051602001611a1d919061307a565b6040516020818303038152906040525b604051602001611a4296959493929190613101565b604051602081830303815290604052611da0565b604051602001611a669190613293565b604051602081830303815290604052965050505050505090565b505050565b505050565b6000611aab8473ffffffffffffffffffffffffffffffffffffffff1661244d565b15611c14578373ffffffffffffffffffffffffffffffffffffffff1663150b7a02611ad4610acd565b8786866040518563ffffffff1660e01b8152600401611af69493929190613363565b602060405180830381600087803b158015611b1057600080fd5b505af1925050508015611b4157506040513d601f19601f82011682018060405250810190611b3e91906128bb565b60015b611bc4573d8060008114611b71576040519150601f19603f3d011682016040523d82523d6000602084013e611b76565b606091505b50600081511415611bbc576040517f08c379a0000000000000000000000000000000000000000000000000000000008152600401611bb39061342c565b60405180910390fd5b805181602001fd5b63150b7a0260e01b7bffffffffffffffffffffffffffffffffffffffffffffffffffffffff1916817bffffffffffffffffffffffffffffffffffffffffffffffffffffffff191614915050611c19565b600190505b949350505050565b6060600960008481526020019081526020016000206001016000838152602001908152602001600020805480602002602001604051908101604052809291908181526020016000905b82821015611d16578382906000526020600020018054611c8990613883565b80601f0160208091040260200160405190810160405280929190818152602001828054611cb590613883565b8015611d025780601f10611cd757610100808354040283529160200191611d02565b820191906000526020600020905b815481529060010190602001808311611ce557829003601f168201915b505050505081526020019060010190611c6a565b50505050905092915050565b60606000611d308484611c21565b9050600081511115611d865780600081518110611d76577f4e487b7100000000000000000000000000000000000000000000000000000000600052603260045260246000fd5b6020026020010151915050611d9a565b604051806020016040528060008152509150505b92915050565b6060600082511415611dc357604051806020016040528060008152509050611f25565b60006040518060600160405280604081526020016141e46040913990506000600360028551611df2919061367c565b611dfc91906136d2565b6004611e089190613703565b67ffffffffffffffff811115611e47577f4e487b7100000000000000000000000000000000000000000000000000000000600052604160045260246000fd5b6040519080825280601f01601f191660200182016040528015611e795781602001600182028036833780820191505090505b509050600182016020820185865187015b80821015611ee5576003820191508151603f8160121c168501518453600184019350603f81600c1c168501518453600184019350603f8160061c168501518453600184019350603f8116850151845360018401935050611e8a565b5050600386510660018114611f015760028114611f1457611f1c565b603d6001830353603d6002830353611f1c565b603d60018303535b50505080925050505b919050565b60606000611f3783612470565b9050600081511115611f8d5780600081518110611f7d577f4e487b7100000000000000000000000000000000000000000000000000000000600052603260045260246000fd5b6020026020010151915050611fa1565b604051806020016040528060008152509150505b919050565b60606000821415611fee576040518060400160405280600181526020017f3000000000000000000000000000000000000000000000000000000000000000815250905061214e565b600082905060005b60008214612020578080612009906138e6565b915050600a8261201991906136d2565b9150611ff6565b60008167ffffffffffffffff811115612062577f4e487b7100000000000000000000000000000000000000000000000000000000600052604160045260246000fd5b6040519080825280601f01601f1916602001820160405280156120945781602001600182028036833780820191505090505b5090505b60008514612147576001826120ad919061375d565b9150600a856120bc919061392f565b60306120c8919061367c565b60f81b818381518110612104577f4e487b7100000000000000000000000000000000000000000000000000000000600052603260045260246000fd5b60200101907effffffffffffffffffffffffffffffffffffffffffffffffffffffffffffff1916908160001a905350600a8561214091906136d2565b9450612098565b8093505050505b919050565b6060600060028360026121669190613703565b612170919061367c565b67ffffffffffffffff8111156121af577f4e487b7100000000000000000000000000000000000000000000000000000000600052604160045260246000fd5b6040519080825280601f01601f1916602001820160405280156121e15781602001600182028036833780820191505090505b5090507f30000000000000000000000000000000000000000000000000000000000000008160008151811061223f577f4e487b7100000000000000000000000000000000000000000000000000000000600052603260045260246000fd5b60200101907effffffffffffffffffffffffffffffffffffffffffffffffffffffffffffff1916908160001a9053507f7800000000000000000000000000000000000000000000000000000000000000816001815181106122c9577f4e487b7100000000000000000000000000000000000000000000000000000000600052603260045260246000fd5b60200101907effffffffffffffffffffffffffffffffffffffffffffffffffffffffffffff1916908160001a905350600060018460026123099190613703565b612313919061367c565b90505b60018111156123ff577f3031323334353637383961626364656600000000000000000000000000000000600f86166010811061237b577f4e487b7100000000000000000000000000000000000000000000000000000000600052603260045260246000fd5b1a60f81b8282815181106123b8577f4e487b7100000000000000000000000000000000000000000000000000000000600052603260045260246000fd5b60200101907effffffffffffffffffffffffffffffffffffffffffffffffffffffffffffff1916908160001a905350600485901c9450806123f890613859565b9050612316565b5060008414612443576040517f08c379a000000000000000000000000000000000000000000000000000000000815260040161243a906133ec565b60405180910390fd5b8091505092915050565b6000808273ffffffffffffffffffffffffffffffffffffffff163b119050919050565b606060066001016000838152602001908152602001600020805480602002602001604051908101604052809291908181526020016000905b828210156125545783829060005260206000200180546124c790613883565b80601f01602080910402602001604051908101604052809291908181526020018280546124f390613883565b80156125405780601f1061251557610100808354040283529160200191612540565b820191906000526020600020905b81548152906001019060200180831161252357829003601f168201915b5050505050815260200190600101906124a8565b505050509050919050565b600061257261256d846135cc565b6135a7565b90508281526020810184848401111561258a57600080fd5b612595848285613817565b509392505050565b60006125b06125ab846135fd565b6135a7565b9050828152602081018484840111156125c857600080fd5b6125d3848285613826565b509392505050565b6000813590506125ea81614170565b92915050565b6000815190506125ff81614187565b92915050565b6000813590506126148161419e565b92915050565b600081359050612629816141b5565b92915050565b60008151905061263e816141b5565b92915050565b600082601f83011261265557600080fd5b813561266584826020860161255f565b91505092915050565b600082601f83011261267f57600080fd5b815161268f84826020860161259d565b91505092915050565b6000813590506126a7816141cc565b92915050565b6000815190506126bc816141cc565b92915050565b6000602082840312156126d457600080fd5b60006126e2848285016125db565b91505092915050565b6000602082840312156126fd57600080fd5b600061270b848285016125f0565b91505092915050565b6000806040838503121561272757600080fd5b6000612735858286016125db565b9250506020612746858286016125db565b9150509250929050565b60008060006060848603121561276557600080fd5b6000612773868287016125db565b9350506020612784868287016125db565b925050604061279586828701612698565b9150509250925092565b600080600080608085870312156127b557600080fd5b60006127c3878288016125db565b94505060206127d4878288016125db565b93505060406127e587828801612698565b925050606085013567ffffffffffffffff81111561280257600080fd5b61280e87828801612644565b91505092959194509250565b6000806040838503121561282d57600080fd5b600061283b858286016125db565b925050602061284c85828601612605565b9150509250929050565b6000806040838503121561286957600080fd5b6000612877858286016125db565b925050602061288885828601612698565b9150509250929050565b6000602082840312156128a457600080fd5b60006128b28482850161261a565b91505092915050565b6000602082840312156128cd57600080fd5b60006128db8482850161262f565b91505092915050565b6000602082840312156128f657600080fd5b600082015167ffffffffffffffff81111561291057600080fd5b61291c8482850161266e565b91505092915050565b60006020828403121561293757600080fd5b600061294584828501612698565b91505092915050565b60006020828403121561296057600080fd5b600061296e848285016126ad565b91505092915050565b61298081613791565b82525050565b61298f816137b5565b82525050565b60006129a08261362e565b6129aa8185613644565b93506129ba818560208601613826565b6129c381613a1c565b840191505092915050565b60006129d98261362e565b6129e38185613655565b93506129f3818560208601613826565b80840191505092915050565b6000612a0a82613639565b612a148185613660565b9350612a24818560208601613826565b612a2d81613a1c565b840191505092915050565b6000612a4382613639565b612a4d8185613671565b9350612a5d818560208601613826565b80840191505092915050565b6000612a76601d83613671565b9150612a8182613a2d565b601d82019050919050565b6000612a99602083613660565b9150612aa482613a56565b602082019050919050565b6000612abc601583613660565b9150612ac782613a7f565b602082019050919050565b6000612adf603283613660565b9150612aea82613aa8565b604082019050919050565b6000612b02601183613671565b9150612b0d82613af7565b601182019050919050565b6000612b25600283613671565b9150612b3082613b20565b600282019050919050565b6000612b48602583613660565b9150612b5382613b49565b604082019050919050565b6000612b6b600d83613671565b9150612b7682613b98565b600d82019050919050565b6000612b8e602483613660565b9150612b9982613bc1565b604082019050919050565b6000612bb1601983613660565b9150612bbc82613c10565b602082019050919050565b6000612bd4600f83613671565b9150612bdf82613c39565b600f82019050919050565b6000612bf7602c83613660565b9150612c0282613c62565b604082019050919050565b6000612c1a601483613671565b9150612c2582613cb1565b601482019050919050565b6000612c3d601083613671565b9150612c4882613cda565b601082019050919050565b6000612c60601383613671565b9150612c6b82613d03565b601382019050919050565b6000612c83603883613660565b9150612c8e82613d2c565b604082019050919050565b6000612ca6600183613671565b9150612cb182613d7b565b600182019050919050565b6000612cc9602a83613660565b9150612cd482613da4565b604082019050919050565b6000612cec602983613660565b9150612cf782613df3565b604082019050919050565b6000612d0f600c83613671565b9150612d1a82613e42565b600c82019050919050565b6000612d32600283613671565b9150612d3d82613e6b565b600282019050919050565b6000612d55600183613671565b9150612d6082613e94565b600182019050919050565b6000612d78602c83613660565b9150612d8382613ebd565b604082019050919050565b6000612d9b600983613671565b9150612da682613f0c565b600982019050919050565b6000612dbe600183613671565b9150612dc982613f35565b600182019050919050565b6000612de1601283613671565b9150612dec82613f5e565b601282019050919050565b6000612e04600183613671565b9150612e0f82613f87565b600182019050919050565b6000612e27601483613671565b9150612e3282613fb0565b601482019050919050565b6000612e4a602183613660565b9150612e5582613fd9565b604082019050919050565b6000612e6d601d83613671565b9150612e7882614028565b601d82019050919050565b6000612e90600083613671565b9150612e9b82614051565b600082019050919050565b6000612eb3603183613660565b9150612ebe82614054565b604082019050919050565b6000612ed6600383613671565b9150612ee1826140a3565b600382019050919050565b6000612ef9601683613671565b9150612f04826140cc565b601682019050919050565b6000612f1c601183613671565b9150612f27826140f5565b601182019050919050565b6000612f3f601083613671565b9150612f4a8261411e565b601082019050919050565b6000612f62601483613671565b9150612f6d82614147565b601482019050919050565b612f818161380d565b82525050565b6000612f9382886129ce565b9150612f9f8287612a38565b9150612faa82612db1565b9150612fb68286612a38565b9150612fc182612bc7565b9150612fcd8285612a38565b9150612fd882612b5e565b9150612fe48284612a38565b9150612fef82612d25565b91508190509695505050505050565b600061300a82846129ce565b915061301582612df7565b915081905092915050565b600061302b82612a69565b91506130378284612a38565b915061304282612e83565b915081905092915050565b600061305882612af5565b91506130648284612a38565b915061306f82612b18565b915081905092915050565b600061308582612c0d565b91506130918284612a38565b915061309c82612c99565b915081905092915050565b60006130b282612c53565b91506130be8284612a38565b91506130c982612c99565b915081905092915050565b60006130df82612d02565b91506130eb8284612a38565b91506130f682612c99565b915081905092915050565b600061310c82612db1565b915061311782612d8e565b91506131238289612a38565b915061312e82612c99565b915061313a8288612a38565b91506131468287612a38565b91506131528286612a38565b915061315e8285612a38565b915061316a8284612a38565b915061317582612d48565b9150819050979650505050505050565b600061319082612db1565b915061319b82612d8e565b91506131a7828b612a38565b91506131b282612ec9565b91506131bd82612c30565b91506131c9828a612a38565b91506131d482612c99565b91506131e08289612a38565b91506131ec8288612a38565b91506131f88287612a38565b91506132048286612a38565b91506132108285612a38565b915061321c8284612a38565b915061322782612d48565b91508190509998505050505050505050565b600061324482612dd4565b91506132508284612a38565b915061325b82612c99565b915081905092915050565b600061327182612e1a565b915061327d8284612a38565b915061328882612c99565b915081905092915050565b600061329e82612e60565b91506132aa8284612a38565b915081905092915050565b60006132c082612eec565b91506132cc8284612a38565b915081905092915050565b60006132e282612f0f565b91506132ee8284612a38565b915081905092915050565b600061330482612f32565b915061331082846129ce565b915081905092915050565b600061332682612f55565b91506133328284612a38565b915061333d82612c99565b915081905092915050565b600060208201905061335d6000830184612977565b92915050565b60006080820190506133786000830187612977565b6133856020830186612977565b6133926040830185612f78565b81810360608301526133a48184612995565b905095945050505050565b60006020820190506133c46000830184612986565b92915050565b600060208201905081810360008301526133e481846129ff565b905092915050565b6000602082019050818103600083015261340581612a8c565b9050919050565b6000602082019050818103600083015261342581612aaf565b9050919050565b6000602082019050818103600083015261344581612ad2565b9050919050565b6000602082019050818103600083015261346581612b3b565b9050919050565b6000602082019050818103600083015261348581612b81565b9050919050565b600060208201905081810360008301526134a581612ba4565b9050919050565b600060208201905081810360008301526134c581612bea565b9050919050565b600060208201905081810360008301526134e581612c76565b9050919050565b6000602082019050818103600083015261350581612cbc565b9050919050565b6000602082019050818103600083015261352581612cdf565b9050919050565b6000602082019050818103600083015261354581612d6b565b9050919050565b6000602082019050818103600083015261356581612e3d565b9050919050565b6000602082019050818103600083015261358581612ea6565b9050919050565b60006020820190506135a16000830184612f78565b92915050565b60006135b16135c2565b90506135bd82826138b5565b919050565b6000604051905090565b600067ffffffffffffffff8211156135e7576135e66139ed565b5b6135f082613a1c565b9050602081019050919050565b600067ffffffffffffffff821115613618576136176139ed565b5b61362182613a1c565b9050602081019050919050565b600081519050919050565b600081519050919050565b600082825260208201905092915050565b600081905092915050565b600082825260208201905092915050565b600081905092915050565b60006136878261380d565b91506136928361380d565b9250827fffffffffffffffffffffffffffffffffffffffffffffffffffffffffffffffff038211156136c7576136c6613960565b5b828201905092915050565b60006136dd8261380d565b91506136e88361380d565b9250826136f8576136f761398f565b5b828204905092915050565b600061370e8261380d565b91506137198361380d565b9250817fffffffffffffffffffffffffffffffffffffffffffffffffffffffffffffffff048311821515161561375257613751613960565b5b828202905092915050565b60006137688261380d565b91506137738361380d565b92508282101561378657613785613960565b5b828203905092915050565b600061379c826137ed565b9050919050565b60006137ae826137ed565b9050919050565b60008115159050919050565b60007fffffffff0000000000000000000000000000000000000000000000000000000082169050919050565b600073ffffffffffffffffffffffffffffffffffffffff82169050919050565b6000819050919050565b82818337600083830152505050565b60005b83811015613844578082015181840152602081019050613829565b83811115613853576000848401525b50505050565b60006138648261380d565b9150600082141561387857613877613960565b5b600182039050919050565b6000600282049050600182168061389b57607f821691505b602082108114156138af576138ae6139be565b5b50919050565b6138be82613a1c565b810181811067ffffffffffffffff821117156138dd576138dc6139ed565b5b80604052505050565b60006138f18261380d565b91507fffffffffffffffffffffffffffffffffffffffffffffffffffffffffffffffff82141561392457613923613960565b5b600182019050919050565b600061393a8261380d565b91506139458361380d565b9250826139555761395461398f565b5b828206905092915050565b7f4e487b7100000000000000000000000000000000000000000000000000000000600052601160045260246000fd5b7f4e487b7100000000000000000000000000000000000000000000000000000000600052601260045260246000fd5b7f4e487b7100000000000000000000000000000000000000000000000000000000600052602260045260246000fd5b7f4e487b7100000000000000000000000000000000000000000000000000000000600052604160045260246000fd5b6000601f19601f8301169050919050565b7f2c202273656c6c65725f6665655f62617369735f706f696e7473223a20000000600082015250565b7f537472696e67733a20686578206c656e67746820696e73756666696369656e74600082015250565b7f746f6b656e496420646f65736e27742065786973740000000000000000000000600082015250565b7f4552433732313a207472616e7366657220746f206e6f6e20455243373231526560008201527f63656976657220696d706c656d656e7465720000000000000000000000000000602082015250565b7f22646973706c61795f74797065223a2022000000000000000000000000000000600082015250565b7f222c000000000000000000000000000000000000000000000000000000000000600082015250565b7f4552433732313a207472616e736665722066726f6d20696e636f72726563742060008201527f6f776e6572000000000000000000000000000000000000000000000000000000602082015250565b7f222c202276616c7565223a202200000000000000000000000000000000000000600082015250565b7f4552433732313a207472616e7366657220746f20746865207a65726f2061646460008201527f7265737300000000000000000000000000000000000000000000000000000000602082015250565b7f4552433732313a20617070726f766520746f2063616c6c657200000000000000600082015250565b7f2274726169745f74797065223a20220000000000000000000000000000000000600082015250565b7f4552433732313a206f70657261746f7220717565727920666f72206e6f6e657860008201527f697374656e7420746f6b656e0000000000000000000000000000000000000000602082015250565b7f2c20226665655f726563697069656e74223a2022000000000000000000000000600082015250565b7f226465736372697074696f6e223a202200000000000000000000000000000000600082015250565b7f2c202265787465726e616c5f75726c223a202200000000000000000000000000600082015250565b7f4552433732313a20617070726f76652063616c6c6572206973206e6f74206f7760008201527f6e6572206e6f7220617070726f76656420666f7220616c6c0000000000000000602082015250565b7f2200000000000000000000000000000000000000000000000000000000000000600082015250565b7f4552433732313a2062616c616e636520717565727920666f7220746865207a6560008201527f726f206164647265737300000000000000000000000000000000000000000000602082015250565b7f4552433732313a206f776e657220717565727920666f72206e6f6e657869737460008201527f656e7420746f6b656e0000000000000000000000000000000000000000000000602082015250565b7f2c2022696d616765223a20220000000000000000000000000000000000000000600082015250565b7f227d000000000000000000000000000000000000000000000000000000000000600082015250565b7f7d00000000000000000000000000000000000000000000000000000000000000600082015250565b7f4552433732313a20617070726f76656420717565727920666f72206e6f6e657860008201527f697374656e7420746f6b656e0000000000000000000000000000000000000000602082015250565b7f226e616d65223a20220000000000000000000000000000000000000000000000600082015250565b7f7b00000000000000000000000000000000000000000000000000000000000000600082015250565b7f2c20226465736372697074696f6e223a20220000000000000000000000000000600082015250565b7f5d00000000000000000000000000000000000000000000000000000000000000600082015250565b7f2c202265787465726e616c5f6c696e6b223a2022000000000000000000000000600082015250565b7f4552433732313a20617070726f76616c20746f2063757272656e74206f776e6560008201527f7200000000000000000000000000000000000000000000000000000000000000602082015250565b7f646174613a6170706c69636174696f6e2f6a736f6e3b6261736536342c000000600082015250565b50565b7f4552433732313a207472616e736665722063616c6c6572206973206e6f74206f60008201527f776e6572206e6f7220617070726f766564000000000000000000000000000000602082015250565b7f222c200000000000000000000000000000000000000000000000000000000000600082015250565b7f2c20226261636b67726f756e645f636f6c6f72223a2000000000000000000000600082015250565b7f2c2022796f75747562655f75726c223a20000000000000000000000000000000600082015250565b7f2c202261747472696275746573223a2000000000000000000000000000000000600082015250565b7f2c2022616e696d6174696f6e5f75726c223a2022000000000000000000000000600082015250565b61417981613791565b811461418457600080fd5b50565b614190816137a3565b811461419b57600080fd5b50565b6141a7816137b5565b81146141b257600080fd5b50565b6141be816137c1565b81146141c957600080fd5b50565b6141d58161380d565b81146141e057600080fd5b5056fe4142434445464748494a4b4c4d4e4f505152535455565758595a6162636465666768696a6b6c6d6e6f707172737475767778797a303132333435363738392b2fa26469706673582212202419b8c7edb4da866881289e52894d74d5ea1f2a717409bba3bac9f0e93bda8e64736f6c63430008010033",
  "linkReferences": {},
  "deployedLinkReferences": {}
}