{
  "_format": "hh-sol-artifact-1",
  "contractName": "Example1ERC721OnChainMetadata",
  "sourceName": "contracts/Example1-721-svg.sol",
  "abi": [
    {
      "inputs": [],
      "stateMutability": "nonpayable",
      "type": "constructor"
    },
    {
      "anonymous": false,
      "inputs": [
        {
          "indexed": true,
          "internalType": "address",
          "name": "owner",
          "type": "address"
        },
        {
          "indexed": true,
          "internalType": "address",
          "name": "approved",
          "type": "address"
        },
        {
          "indexed": true,
          "internalType": "uint256",
          "name": "tokenId",
          "type": "uint256"
        }
      ],
      "name": "Approval",
      "type": "event"
    },
    {
      "anonymous": false,
      "inputs": [
        {
          "indexed": true,
          "internalType": "address",
          "name": "owner",
          "type": "address"
        },
        {
          "indexed": true,
          "internalType": "address",
          "name": "operator",
          "type": "address"
        },
        {
          "indexed": false,
          "internalType": "bool",
          "name": "approved",
          "type": "bool"
        }
      ],
      "name": "ApprovalForAll",
      "type": "event"
    },
    {
      "anonymous": false,
      "inputs": [
        {
          "indexed": true,
          "internalType": "address",
          "name": "previousOwner",
          "type": "address"
        },
        {
          "indexed": true,
          "internalType": "address",
          "name": "newOwner",
          "type": "address"
        }
      ],
      "name": "OwnershipTransferred",
      "type": "event"
    },
    {
      "anonymous": false,
      "inputs": [
        {
          "indexed": true,
          "internalType": "address",
          "name": "from",
          "type": "address"
        },
        {
          "indexed": true,
          "internalType": "address",
          "name": "to",
          "type": "address"
        },
        {
          "indexed": true,
          "internalType": "uint256",
          "name": "tokenId",
          "type": "uint256"
        }
      ],
      "name": "Transfer",
      "type": "event"
    },
    {
      "inputs": [
        {
          "internalType": "address",
          "name": "to",
          "type": "address"
        },
        {
          "internalType": "uint256",
          "name": "tokenId",
          "type": "uint256"
        }
      ],
      "name": "approve",
      "outputs": [],
      "stateMutability": "nonpayable",
      "type": "function"
    },
    {
      "inputs": [
        {
          "internalType": "address",
          "name": "owner",
          "type": "address"
        }
      ],
      "name": "balanceOf",
      "outputs": [
        {
          "internalType": "uint256",
          "name": "",
          "type": "uint256"
        }
      ],
      "stateMutability": "view",
      "type": "function"
    },
    {
      "inputs": [],
      "name": "contractURI",
      "outputs": [
        {
          "internalType": "string",
          "name": "",
          "type": "string"
        }
      ],
      "stateMutability": "view",
      "type": "function"
    },
    {
      "inputs": [
        {
          "internalType": "string",
          "name": "color",
          "type": "string"
        }
      ],
      "name": "createSVG",
      "outputs": [
        {
          "internalType": "string",
          "name": "",
          "type": "string"
        }
      ],
      "stateMutability": "pure",
      "type": "function"
    },
    {
      "inputs": [
        {
          "internalType": "uint256",
          "name": "tokenId",
          "type": "uint256"
        }
      ],
      "name": "getApproved",
      "outputs": [
        {
          "internalType": "address",
          "name": "",
          "type": "address"
        }
      ],
      "stateMutability": "view",
      "type": "function"
    },
    {
      "inputs": [
        {
          "internalType": "address",
          "name": "owner",
          "type": "address"
        },
        {
          "internalType": "address",
          "name": "operator",
          "type": "address"
        }
      ],
      "name": "isApprovedForAll",
      "outputs": [
        {
          "internalType": "bool",
          "name": "",
          "type": "bool"
        }
      ],
      "stateMutability": "view",
      "type": "function"
    },
    {
      "inputs": [],
      "name": "name",
      "outputs": [
        {
          "internalType": "string",
          "name": "",
          "type": "string"
        }
      ],
      "stateMutability": "view",
      "type": "function"
    },
    {
      "inputs": [],
      "name": "owner",
      "outputs": [
        {
          "internalType": "address",
          "name": "",
          "type": "address"
        }
      ],
      "stateMutability": "view",
      "type": "function"
    },
    {
      "inputs": [
        {
          "internalType": "uint256",
          "name": "tokenId",
          "type": "uint256"
        }
      ],
      "name": "ownerOf",
      "outputs": [
        {
          "internalType": "address",
          "name": "",
          "type": "address"
        }
      ],
      "stateMutability": "view",
      "type": "function"
    },
    {
      "inputs": [],
      "name": "renounceOwnership",
      "outputs": [],
      "stateMutability": "nonpayable",
      "type": "function"
    },
    {
      "inputs": [
        {
          "internalType": "address",
          "name": "from",
          "type": "address"
        },
        {
          "internalType": "address",
          "name": "to",
          "type": "address"
        },
        {
          "internalType": "uint256",
          "name": "tokenId",
          "type": "uint256"
        }
      ],
      "name": "safeTransferFrom",
      "outputs": [],
      "stateMutability": "nonpayable",
      "type": "function"
    },
    {
      "inputs": [
        {
          "internalType": "address",
          "name": "from",
          "type": "address"
        },
        {
          "internalType": "address",
          "name": "to",
          "type": "address"
        },
        {
          "internalType": "uint256",
          "name": "tokenId",
          "type": "uint256"
        },
        {
          "internalType": "bytes",
          "name": "_data",
          "type": "bytes"
        }
      ],
      "name": "safeTransferFrom",
      "outputs": [],
      "stateMutability": "nonpayable",
      "type": "function"
    },
    {
      "inputs": [
        {
          "internalType": "address",
          "name": "operator",
          "type": "address"
        },
        {
          "internalType": "bool",
          "name": "approved",
          "type": "bool"
        }
      ],
      "name": "setApprovalForAll",
      "outputs": [],
      "stateMutability": "nonpayable",
      "type": "function"
    },
    {
      "inputs": [
        {
          "internalType": "bytes4",
          "name": "interfaceId",
          "type": "bytes4"
        }
      ],
      "name": "supportsInterface",
      "outputs": [
        {
          "internalType": "bool",
          "name": "",
          "type": "bool"
        }
      ],
      "stateMutability": "view",
      "type": "function"
    },
    {
      "inputs": [],
      "name": "symbol",
      "outputs": [
        {
          "internalType": "string",
          "name": "",
          "type": "string"
        }
      ],
      "stateMutability": "view",
      "type": "function"
    },
    {
      "inputs": [
        {
          "internalType": "uint256",
          "name": "tokenId",
          "type": "uint256"
        }
      ],
      "name": "tokenURI",
      "outputs": [
        {
          "internalType": "string",
          "name": "",
          "type": "string"
        }
      ],
      "stateMutability": "view",
      "type": "function"
    },
    {
      "inputs": [
        {
          "internalType": "address",
          "name": "from",
          "type": "address"
        },
        {
          "internalType": "address",
          "name": "to",
          "type": "address"
        },
        {
          "internalType": "uint256",
          "name": "tokenId",
          "type": "uint256"
        }
      ],
      "name": "transferFrom",
      "outputs": [],
      "stateMutability": "nonpayable",
      "type": "function"
    },
    {
      "inputs": [
        {
          "internalType": "address",
          "name": "newOwner",
          "type": "address"
        }
      ],
      "name": "transferOwnership",
      "outputs": [],
      "stateMutability": "nonpayable",
      "type": "function"
    }
  ],
  "bytecode": "0x60806040523480156200001157600080fd5b506040518060400160405280601f81526020017f4552433732314f6e436861696e4d65746164617461204578616d706c652031008152506040518060400160405280600381526020017f4578310000000000000000000000000000000000000000000000000000000000815250818181600090805190602001906200009892919062001338565b508060019080519060200190620000b192919062001338565b5050505050620000d6620000ca6200063860201b60201c565b6200064060201b60201c565b6200012960067f6e616d65000000000000000000000000000000000000000000000000000000006040516020016200010e9062001ac9565b6040516020818303038152906040526200070660201b60201c565b6200019d60067f6465736372697074696f6e0000000000000000000000000000000000000000006040516020016200016190620018d2565b604051602081830303815290604052604051602001620001829190620019b7565b6040516020818303038152906040526200070660201b60201c565b6200023760067f696d6167650000000000000000000000000000000000000000000000000000006200020a6040518060400160405280600481526020017f626c756500000000000000000000000000000000000000000000000000000000815250620007e260201b60201c565b6040516020016200021c9190620019b7565b6040516020818303038152906040526200070660201b60201c565b6200028a60067f65787465726e616c5f6c696e6b000000000000000000000000000000000000006040516020016200026f9062001a1f565b6040516020818303038152906040526200070660201b60201c565b620002e060067f73656c6c65725f6665655f62617369735f706f696e747300000000000000000060c8604051602001620002c591906200199a565b6040516020818303038152906040526200070660201b60201c565b6200034460067f6665655f726563697069656e7400000000000000000000000000000000000000620003176200063860201b60201c565b60405160200162000329919062001929565b6040516020818303038152906040526200070660201b60201c565b6200043e60016040518060400160405280600581526020017f46697273740000000000000000000000000000000000000000000000000000008152506040518060400160405280600981526020017f4669727374204e46540000000000000000000000000000000000000000000000815250620003fc6040518060400160405280600381526020017f7265640000000000000000000000000000000000000000000000000000000000815250620007e260201b60201c565b6040518060400160405280600381526020017f72656400000000000000000000000000000000000000000000000000000000008152506200084360201b60201c565b6200053860026040518060400160405280600681526020017f5365636f6e6400000000000000000000000000000000000000000000000000008152506040518060400160405280600a81526020017f5365636f6e64204e465400000000000000000000000000000000000000000000815250620004f66040518060400160405280600581526020017f677265656e000000000000000000000000000000000000000000000000000000815250620007e260201b60201c565b6040518060400160405280600581526020017f677265656e0000000000000000000000000000000000000000000000000000008152506200084360201b60201c565b6200063260036040518060400160405280600581526020017f54686972640000000000000000000000000000000000000000000000000000008152506040518060400160405280600981526020017f5468697264204e46540000000000000000000000000000000000000000000000815250620005f06040518060400160405280600481526020017f626c756500000000000000000000000000000000000000000000000000000000815250620007e260201b60201c565b6040518060400160405280600481526020017f626c7565000000000000000000000000000000000000000000000000000000008152506200084360201b60201c565b620020cc565b600033905090565b6000600a60009054906101000a900473ffffffffffffffffffffffffffffffffffffffff16905081600a60006101000a81548173ffffffffffffffffffffffffffffffffffffffff021916908373ffffffffffffffffffffffffffffffffffffffff1602179055508173ffffffffffffffffffffffffffffffffffffffff168173ffffffffffffffffffffffffffffffffffffffff167f8be0079c531659141344cd1fd0a4f28419497f9722a3daafe3b4186f6b6457e060405160405180910390a35050565b6000600167ffffffffffffffff8111156200074a577f4e487b7100000000000000000000000000000000000000000000000000000000600052604160045260246000fd5b6040519080825280602002602001820160405280156200077f57816020015b6060815260200190600190039081620007695790505b5090508181600081518110620007be577f4e487b7100000000000000000000000000000000000000000000000000000000600052603260045260246000fd5b6020026020010181905250620007dc84848362000a6f60201b60201c565b50505050565b60606200081b82604051602001620007fb91906200189f565b60405160208183030381529060405262000b3160201b62000c911760201c565b6040516020016200082d919062001903565b6040516020818303038152906040529050919050565b62000897857f6e616d6500000000000000000000000000000000000000000000000000000000866040516020016200087c9190620019b7565b60405160208183030381529060405262000ccc60201b60201c565b620008eb857f6465736372697074696f6e00000000000000000000000000000000000000000085604051602001620008d09190620019b7565b60405160208183030381529060405262000ccc60201b60201c565b6200093f857f696d61676500000000000000000000000000000000000000000000000000000084604051602001620009249190620019b7565b60405160208183030381529060405262000ccc60201b60201c565b62000991857f74726169745f7479706500000000000000000000000000000000000000000000604051602001620009769062001a85565b60405160208183030381529060405262000ccc60201b60201c565b620009e5857f74726169745f76616c756500000000000000000000000000000000000000000083604051602001620009ca9190620019b7565b60405160208183030381529060405262000ccc60201b60201c565b62000a37857f74726169745f646973706c61790000000000000000000000000000000000000060405160200162000a1c9062001aa7565b60405160208183030381529060405262000ccc60201b60201c565b62000a6862000a4b6200063860201b60201c565b866040518060200160405280600081525062000da860201b60201c565b5050505050565b6000836002016000848152602001908152602001600020541462000aca576040517f08c379a000000000000000000000000000000000000000000000000000000000815260040162000ac19062001a63565b60405180910390fd5b6001836000015462000add919062001b2e565b836000018190555080836001016000848152602001908152602001600020908051906020019062000b10929190620013c9565b50805183600201600084815260200190815260200160002081905550505050565b606060008251141562000b565760405180602001604052806000815250905062000cc7565b6000604051806060016040528060408152602001620069e1604091399050600060036002855162000b88919062001b2e565b62000b94919062001b8b565b600462000ba2919062001bc3565b67ffffffffffffffff81111562000be2577f4e487b7100000000000000000000000000000000000000000000000000000000600052604160045260246000fd5b6040519080825280601f01601f19166020018201604052801562000c155781602001600182028036833780820191505090505b509050600182016020820185865187015b8082101562000c83576003820191508151603f8160121c168501518453600184019350603f81600c1c168501518453600184019350603f8160061c168501518453600184019350603f811685015184536001840193505062000c26565b505060038651066001811462000ca2576002811462000cb65762000cbe565b603d6001830353603d600283035362000cbe565b603d60018303535b50505080925050505b919050565b6000600167ffffffffffffffff81111562000d10577f4e487b7100000000000000000000000000000000000000000000000000000000600052604160045260246000fd5b60405190808252806020026020018201604052801562000d4557816020015b606081526020019060019003908162000d2f5790505b509050818160008151811062000d84577f4e487b7100000000000000000000000000000000000000000000000000000000600052603260045260246000fd5b602002602001018190525062000da284848362000e1660201b60201c565b50505050565b62000dba838362000eeb60201b60201c565b62000dcf6000848484620010e560201b60201c565b62000e11576040517f08c379a000000000000000000000000000000000000000000000000000000000815260040162000e0890620019db565b60405180910390fd5b505050565b6000600960008581526020019081526020016000209050600081600201600085815260200190815260200160002054141562000e7a576001816000015462000e5f919062001b2e565b60096000868152602001908152602001600020600001819055505b81600960008681526020019081526020016000206001016000858152602001908152602001600020908051906020019062000eb7929190620013c9565b5081516009600086815260200190815260200160002060020160008581526020019081526020016000208190555050505050565b600073ffffffffffffffffffffffffffffffffffffffff168273ffffffffffffffffffffffffffffffffffffffff16141562000f5e576040517f08c379a000000000000000000000000000000000000000000000000000000000815260040162000f559062001a41565b60405180910390fd5b62000f6f816200129f60201b60201c565b1562000fb2576040517f08c379a000000000000000000000000000000000000000000000000000000000815260040162000fa990620019fd565b60405180910390fd5b62000fc6600083836200130b60201b60201c565b6001600360008473ffffffffffffffffffffffffffffffffffffffff1673ffffffffffffffffffffffffffffffffffffffff168152602001908152602001600020600082825462001018919062001b2e565b92505081905550816002600083815260200190815260200160002060006101000a81548173ffffffffffffffffffffffffffffffffffffffff021916908373ffffffffffffffffffffffffffffffffffffffff160217905550808273ffffffffffffffffffffffffffffffffffffffff16600073ffffffffffffffffffffffffffffffffffffffff167fddf252ad1be2c89b69c2b068fc378daa952ba7f163c4a11628f55a4df523b3ef60405160405180910390a4620010e1600083836200131060201b60201c565b5050565b6000620011138473ffffffffffffffffffffffffffffffffffffffff166200131560201b62000e1b1760201c565b1562001292578373ffffffffffffffffffffffffffffffffffffffff1663150b7a02620011456200063860201b60201c565b8786866040518563ffffffff1660e01b815260040162001169949392919062001946565b602060405180830381600087803b1580156200118457600080fd5b505af1925050508015620011b857506040513d601f19601f82011682018060405250810190620011b5919062001565565b60015b62001241573d8060008114620011eb576040519150601f19603f3d011682016040523d82523d6000602084013e620011f0565b606091505b5060008151141562001239576040517f08c379a00000000000000000000000000000000000000000000000000000000081526004016200123090620019db565b60405180910390fd5b805181602001fd5b63150b7a0260e01b7bffffffffffffffffffffffffffffffffffffffffffffffffffffffff1916817bffffffffffffffffffffffffffffffffffffffffffffffffffffffff19161491505062001297565b600190505b949350505050565b60008073ffffffffffffffffffffffffffffffffffffffff166002600084815260200190815260200160002060009054906101000a900473ffffffffffffffffffffffffffffffffffffffff1673ffffffffffffffffffffffffffffffffffffffff1614159050919050565b505050565b505050565b6000808273ffffffffffffffffffffffffffffffffffffffff163b119050919050565b828054620013469062001ce5565b90600052602060002090601f0160209004810192826200136a5760008555620013b6565b82601f106200138557805160ff1916838001178555620013b6565b82800160010185558215620013b6579182015b82811115620013b557825182559160200191906001019062001398565b5b509050620013c5919062001430565b5090565b8280548282559060005260206000209081019282156200141d579160200282015b828111156200141c5782518290805190602001906200140b9291906200144f565b5091602001919060010190620013ea565b5b5090506200142c9190620014e0565b5090565b5b808211156200144b57600081600090555060010162001431565b5090565b8280546200145d9062001ce5565b90600052602060002090601f016020900481019282620014815760008555620014cd565b82601f106200149c57805160ff1916838001178555620014cd565b82800160010185558215620014cd579182015b82811115620014cc578251825591602001919060010190620014af565b5b509050620014dc919062001430565b5090565b5b80821115620015045760008181620014fa919062001508565b50600101620014e1565b5090565b508054620015169062001ce5565b6000825580601f106200152a57506200154b565b601f0160209004906000526020600020908101906200154a919062001430565b5b50565b6000815190506200155f81620020b2565b92915050565b6000602082840312156200157857600080fd5b600062001588848285016200154e565b91505092915050565b6200159c8162001c24565b82525050565b6000620015af8262001aeb565b620015bb818562001b01565b9350620015cd81856020860162001caf565b620015d88162001da8565b840191505092915050565b620015ee8162001c9b565b82525050565b6000620016018262001af6565b6200160d818562001b12565b93506200161f81856020860162001caf565b6200162a8162001da8565b840191505092915050565b6000620016428262001af6565b6200164e818562001b23565b93506200166081856020860162001caf565b80840191505092915050565b60006200167b60328362001b12565b9150620016888262001db9565b604082019050919050565b6000620016a2601c8362001b12565b9150620016af8262001e08565b602082019050919050565b6000620016c9607e8362001b23565b9150620016d68262001e31565b607e82019050919050565b6000620016f060018362001b23565b9150620016fd8262001ecc565b600182019050919050565b60006200171760358362001b12565b9150620017248262001ef5565b604082019050919050565b60006200173e60358362001b23565b91506200174b8262001ef5565b603582019050919050565b600062001765603e8362001b23565b9150620017728262001f44565b603e82019050919050565b60006200178c601d8362001b23565b9150620017998262001f93565b601d82019050919050565b6000620017b360208362001b12565b9150620017c08262001fbc565b602082019050919050565b6000620017da60238362001b12565b9150620017e78262001fe5565b604082019050919050565b60006200180160058362001b12565b91506200180e8262002034565b602082019050919050565b60006200182860008362001b12565b915062001835826200205d565b600082019050919050565b60006200184f601f8362001b12565b91506200185c8262002060565b602082019050919050565b600062001876601a8362001b23565b9150620018838262002089565b601a82019050919050565b620018998162001c84565b82525050565b6000620018ac82620016ba565b9150620018ba828462001635565b9150620018c7826200177d565b915081905092915050565b6000620018df8262001756565b9150620018ec826200172f565b9150620018f982620016e1565b9150819050919050565b6000620019108262001867565b91506200191e828462001635565b915081905092915050565b600060208201905062001940600083018462001591565b92915050565b60006080820190506200195d600083018762001591565b6200196c602083018662001591565b6200197b60408301856200188e565b81810360608301526200198f8184620015a2565b905095945050505050565b6000602082019050620019b16000830184620015e3565b92915050565b60006020820190508181036000830152620019d38184620015f4565b905092915050565b60006020820190508181036000830152620019f6816200166c565b9050919050565b6000602082019050818103600083015262001a188162001693565b9050919050565b6000602082019050818103600083015262001a3a8162001708565b9050919050565b6000602082019050818103600083015262001a5c81620017a4565b9050919050565b6000602082019050818103600083015262001a7e81620017cb565b9050919050565b6000602082019050818103600083015262001aa081620017f2565b9050919050565b6000602082019050818103600083015262001ac28162001819565b9050919050565b6000602082019050818103600083015262001ae48162001840565b9050919050565b600081519050919050565b600081519050919050565b600082825260208201905092915050565b600082825260208201905092915050565b600081905092915050565b600062001b3b8262001c84565b915062001b488362001c84565b9250827fffffffffffffffffffffffffffffffffffffffffffffffffffffffffffffffff0382111562001b805762001b7f62001d1b565b5b828201905092915050565b600062001b988262001c84565b915062001ba58362001c84565b92508262001bb85762001bb762001d4a565b5b828204905092915050565b600062001bd08262001c84565b915062001bdd8362001c84565b9250817fffffffffffffffffffffffffffffffffffffffffffffffffffffffffffffffff048311821515161562001c195762001c1862001d1b565b5b828202905092915050565b600062001c318262001c64565b9050919050565b60007fffffffff0000000000000000000000000000000000000000000000000000000082169050919050565b600073ffffffffffffffffffffffffffffffffffffffff82169050919050565b6000819050919050565b600060ff82169050919050565b600062001ca88262001c8e565b9050919050565b60005b8381101562001ccf57808201518184015260208101905062001cb2565b8381111562001cdf576000848401525b50505050565b6000600282049050600182168062001cfe57607f821691505b6020821081141562001d155762001d1462001d79565b5b50919050565b7f4e487b7100000000000000000000000000000000000000000000000000000000600052601160045260246000fd5b7f4e487b7100000000000000000000000000000000000000000000000000000000600052601260045260246000fd5b7f4e487b7100000000000000000000000000000000000000000000000000000000600052602260045260246000fd5b6000601f19601f8301169050919050565b7f4552433732313a207472616e7366657220746f206e6f6e20455243373231526560008201527f63656976657220696d706c656d656e7465720000000000000000000000000000602082015250565b7f4552433732313a20746f6b656e20616c7265616479206d696e74656400000000600082015250565b7f3c737667206865696768743d22333530222077696474683d223335302220766960008201527f6577426f783d2230203020333530203335302220786d6c6e733d22687474703a60208201527f2f2f7777772e77332e6f72672f323030302f737667223e3c726563742068656960408201527f6768743d2231303025222077696474683d2231303025222066696c6c3d220000606082015250565b7f2e00000000000000000000000000000000000000000000000000000000000000600082015250565b7f68747470733a2f2f6769746875622e636f6d2f44616e69656c4162616c64652f60008201527f4e46542d4f6e2d436861696e2d4d657461646174610000000000000000000000602082015250565b7f53696d706c65206578616d706c65206f66204552433732314f6e436861696e4d60008201527f65746164617461207573696e672073766720696d616765732e20536565200000602082015250565b7f222f3e20535647206e6f7420737570706f727465642e203c2f7376673e000000600082015250565b7f4552433732313a206d696e7420746f20746865207a65726f2061646472657373600082015250565b7f4d6574616461746120616c726561647920636f6e7461696e7320676976656e2060008201527f6b65790000000000000000000000000000000000000000000000000000000000602082015250565b7f636f6c6f72000000000000000000000000000000000000000000000000000000600082015250565b50565b7f4552433732314f6e436861696e4d65746164617461204578616d706c65203100600082015250565b7f646174613a696d6167652f7376672b786d6c3b6261736536342c000000000000600082015250565b620020bd8162001c38565b8114620020c957600080fd5b50565b61490580620020dc6000396000f3fe608060405234801561001057600080fd5b50600436106101165760003560e01c8063719acbd4116100a2578063b88d4fde11610071578063b88d4fde146102df578063c87b56dd146102fb578063e8a3d4851461032b578063e985e9c514610349578063f2fde38b1461037957610116565b8063719acbd4146102575780638da5cb5b1461028757806395d89b41146102a5578063a22cb465146102c357610116565b806323b872dd116100e957806323b872dd146101b557806342842e0e146101d15780636352211e146101ed57806370a082311461021d578063715018a61461024d57610116565b806301ffc9a71461011b57806306fdde031461014b578063081812fc14610169578063095ea7b314610199575b600080fd5b61013560048036038101906101309190612c5a565b610395565b60405161014291906138b6565b60405180910390f35b610153610477565b60405161016091906138d1565b60405180910390f35b610183600480360381019061017e9190612d2e565b610509565b604051610190919061384f565b60405180910390f35b6101b360048036038101906101ae9190612c1e565b61058e565b005b6101cf60048036038101906101ca9190612b18565b6106a6565b005b6101eb60048036038101906101e69190612b18565b610706565b005b61020760048036038101906102029190612d2e565b610726565b604051610214919061384f565b60405180910390f35b61023760048036038101906102329190612a8a565b6107d8565b6040516102449190613ad3565b60405180910390f35b610255610890565b005b610271600480360381019061026c9190612cac565b610918565b60405161027e91906138d1565b60405180910390f35b61028f610968565b60405161029c919061384f565b60405180910390f35b6102ad610992565b6040516102ba91906138d1565b60405180910390f35b6102dd60048036038101906102d89190612be2565b610a24565b005b6102f960048036038101906102f49190612b67565b610a3a565b005b61031560048036038101906103109190612d2e565b610a9c565b60405161032291906138d1565b60405180910390f35b610333610af6565b60405161034091906138d1565b60405180910390f35b610363600480360381019061035e9190612adc565b610b05565b60405161037091906138b6565b60405180910390f35b610393600480360381019061038e9190612a8a565b610b99565b005b60007f80ac58cd000000000000000000000000000000000000000000000000000000007bffffffffffffffffffffffffffffffffffffffffffffffffffffffff1916827bffffffffffffffffffffffffffffffffffffffffffffffffffffffff1916148061046057507f5b5e139f000000000000000000000000000000000000000000000000000000007bffffffffffffffffffffffffffffffffffffffffffffffffffffffff1916827bffffffffffffffffffffffffffffffffffffffffffffffffffffffff1916145b80610470575061046f82610e3e565b5b9050919050565b60606000805461048690613dca565b80601f01602080910402602001604051908101604052809291908181526020018280546104b290613dca565b80156104ff5780601f106104d4576101008083540402835291602001916104ff565b820191906000526020600020905b8154815290600101906020018083116104e257829003601f168201915b5050505050905090565b600061051482610ea8565b610553576040517f08c379a000000000000000000000000000000000000000000000000000000000815260040161054a90613a53565b60405180910390fd5b6004600083815260200190815260200160002060009054906101000a900473ffffffffffffffffffffffffffffffffffffffff169050919050565b600061059982610726565b90508073ffffffffffffffffffffffffffffffffffffffff168373ffffffffffffffffffffffffffffffffffffffff16141561060a576040517f08c379a000000000000000000000000000000000000000000000000000000000815260040161060190613a93565b60405180910390fd5b8073ffffffffffffffffffffffffffffffffffffffff16610629610f14565b73ffffffffffffffffffffffffffffffffffffffff161480610658575061065781610652610f14565b610b05565b5b610697576040517f08c379a000000000000000000000000000000000000000000000000000000000815260040161068e906139f3565b60405180910390fd5b6106a18383610f1c565b505050565b6106b76106b1610f14565b82610fd5565b6106f6576040517f08c379a00000000000000000000000000000000000000000000000000000000081526004016106ed90613ab3565b60405180910390fd5b6107018383836110b3565b505050565b61072183838360405180602001604052806000815250610a3a565b505050565b6000806002600084815260200190815260200160002060009054906101000a900473ffffffffffffffffffffffffffffffffffffffff169050600073ffffffffffffffffffffffffffffffffffffffff168173ffffffffffffffffffffffffffffffffffffffff1614156107cf576040517f08c379a00000000000000000000000000000000000000000000000000000000081526004016107c690613a33565b60405180910390fd5b80915050919050565b60008073ffffffffffffffffffffffffffffffffffffffff168273ffffffffffffffffffffffffffffffffffffffff161415610849576040517f08c379a000000000000000000000000000000000000000000000000000000000815260040161084090613a13565b60405180910390fd5b600360008373ffffffffffffffffffffffffffffffffffffffff1673ffffffffffffffffffffffffffffffffffffffff168152602001908152602001600020549050919050565b610898610f14565b73ffffffffffffffffffffffffffffffffffffffff166108b6610968565b73ffffffffffffffffffffffffffffffffffffffff161461090c576040517f08c379a000000000000000000000000000000000000000000000000000000000815260040161090390613a73565b60405180910390fd5b610916600061131a565b565b60606109428260405160200161092e919061355f565b604051602081830303815290604052610c91565b604051602001610952919061382d565b6040516020818303038152906040529050919050565b6000600a60009054906101000a900473ffffffffffffffffffffffffffffffffffffffff16905090565b6060600180546109a190613dca565b80601f01602080910402602001604051908101604052809291908181526020018280546109cd90613dca565b8015610a1a5780601f106109ef57610100808354040283529160200191610a1a565b820191906000526020600020905b8154815290600101906020018083116109fd57829003601f168201915b5050505050905090565b610a36610a2f610f14565b83836113e0565b5050565b610a4b610a45610f14565b83610fd5565b610a8a576040517f08c379a0000000000000000000000000000000000000000000000000000000008152600401610a8190613ab3565b60405180910390fd5b610a968484848461154d565b50505050565b6060610aa782610ea8565b610ae6576040517f08c379a0000000000000000000000000000000000000000000000000000000008152600401610add90613913565b60405180910390fd5b610aef826115a9565b9050919050565b6060610b00611c51565b905090565b6000600560008473ffffffffffffffffffffffffffffffffffffffff1673ffffffffffffffffffffffffffffffffffffffff16815260200190815260200160002060008373ffffffffffffffffffffffffffffffffffffffff1673ffffffffffffffffffffffffffffffffffffffff16815260200190815260200160002060009054906101000a900460ff16905092915050565b610ba1610f14565b73ffffffffffffffffffffffffffffffffffffffff16610bbf610968565b73ffffffffffffffffffffffffffffffffffffffff1614610c15576040517f08c379a0000000000000000000000000000000000000000000000000000000008152600401610c0c90613a73565b60405180910390fd5b600073ffffffffffffffffffffffffffffffffffffffff168173ffffffffffffffffffffffffffffffffffffffff161415610c85576040517f08c379a0000000000000000000000000000000000000000000000000000000008152600401610c7c90613953565b60405180910390fd5b610c8e8161131a565b50565b6060600082511415610cb457604051806020016040528060008152509050610e16565b60006040518060600160405280604081526020016148906040913990506000600360028551610ce39190613bc3565b610ced9190613c19565b6004610cf99190613c4a565b67ffffffffffffffff811115610d38577f4e487b7100000000000000000000000000000000000000000000000000000000600052604160045260246000fd5b6040519080825280601f01601f191660200182016040528015610d6a5781602001600182028036833780820191505090505b509050600182016020820185865187015b80821015610dd6576003820191508151603f8160121c168501518453600184019350603f81600c1c168501518453600184019350603f8160061c168501518453600184019350603f8116850151845360018401935050610d7b565b5050600386510660018114610df25760028114610e0557610e0d565b603d6001830353603d6002830353610e0d565b603d60018303535b50505080925050505b919050565b6000808273ffffffffffffffffffffffffffffffffffffffff163b119050919050565b60007f01ffc9a7000000000000000000000000000000000000000000000000000000007bffffffffffffffffffffffffffffffffffffffffffffffffffffffff1916827bffffffffffffffffffffffffffffffffffffffffffffffffffffffff1916149050919050565b60008073ffffffffffffffffffffffffffffffffffffffff166002600084815260200190815260200160002060009054906101000a900473ffffffffffffffffffffffffffffffffffffffff1673ffffffffffffffffffffffffffffffffffffffff1614159050919050565b600033905090565b816004600083815260200190815260200160002060006101000a81548173ffffffffffffffffffffffffffffffffffffffff021916908373ffffffffffffffffffffffffffffffffffffffff160217905550808273ffffffffffffffffffffffffffffffffffffffff16610f8f83610726565b73ffffffffffffffffffffffffffffffffffffffff167f8c5be1e5ebec7d5bd14f71427d1e84f3dd0314c0f7b2291e5b200ac8c7c3b92560405160405180910390a45050565b6000610fe082610ea8565b61101f576040517f08c379a0000000000000000000000000000000000000000000000000000000008152600401611016906139d3565b60405180910390fd5b600061102a83610726565b90508073ffffffffffffffffffffffffffffffffffffffff168473ffffffffffffffffffffffffffffffffffffffff16148061109957508373ffffffffffffffffffffffffffffffffffffffff1661108184610509565b73ffffffffffffffffffffffffffffffffffffffff16145b806110aa57506110a98185610b05565b5b91505092915050565b8273ffffffffffffffffffffffffffffffffffffffff166110d382610726565b73ffffffffffffffffffffffffffffffffffffffff1614611129576040517f08c379a000000000000000000000000000000000000000000000000000000000815260040161112090613973565b60405180910390fd5b600073ffffffffffffffffffffffffffffffffffffffff168273ffffffffffffffffffffffffffffffffffffffff161415611199576040517f08c379a000000000000000000000000000000000000000000000000000000000815260040161119090613993565b60405180910390fd5b6111a4838383611f8d565b6111af600082610f1c565b6001600360008573ffffffffffffffffffffffffffffffffffffffff1673ffffffffffffffffffffffffffffffffffffffff16815260200190815260200160002060008282546111ff9190613ca4565b925050819055506001600360008473ffffffffffffffffffffffffffffffffffffffff1673ffffffffffffffffffffffffffffffffffffffff16815260200190815260200160002060008282546112569190613bc3565b92505081905550816002600083815260200190815260200160002060006101000a81548173ffffffffffffffffffffffffffffffffffffffff021916908373ffffffffffffffffffffffffffffffffffffffff160217905550808273ffffffffffffffffffffffffffffffffffffffff168473ffffffffffffffffffffffffffffffffffffffff167fddf252ad1be2c89b69c2b068fc378daa952ba7f163c4a11628f55a4df523b3ef60405160405180910390a4611315838383611f92565b505050565b6000600a60009054906101000a900473ffffffffffffffffffffffffffffffffffffffff16905081600a60006101000a81548173ffffffffffffffffffffffffffffffffffffffff021916908373ffffffffffffffffffffffffffffffffffffffff1602179055508173ffffffffffffffffffffffffffffffffffffffff168173ffffffffffffffffffffffffffffffffffffffff167f8be0079c531659141344cd1fd0a4f28419497f9722a3daafe3b4186f6b6457e060405160405180910390a35050565b8173ffffffffffffffffffffffffffffffffffffffff168373ffffffffffffffffffffffffffffffffffffffff16141561144f576040517f08c379a0000000000000000000000000000000000000000000000000000000008152600401611446906139b3565b60405180910390fd5b80600560008573ffffffffffffffffffffffffffffffffffffffff1673ffffffffffffffffffffffffffffffffffffffff16815260200190815260200160002060008473ffffffffffffffffffffffffffffffffffffffff1673ffffffffffffffffffffffffffffffffffffffff16815260200190815260200160002060006101000a81548160ff0219169083151502179055508173ffffffffffffffffffffffffffffffffffffffff168373ffffffffffffffffffffffffffffffffffffffff167f17307eab39ab6107e8899845ad3d59bd9653f200f220920489ca2b5937696c318360405161154091906138b6565b60405180910390a3505050565b6115588484846110b3565b61156484848484611f97565b6115a3576040517f08c379a000000000000000000000000000000000000000000000000000000000815260040161159a90613933565b60405180910390fd5b50505050565b60608060006115d8847f74726169745f747970650000000000000000000000000000000000000000000061212e565b90506000815111156118b1576040518060400160405280600181526020017f5b0000000000000000000000000000000000000000000000000000000000000081525091506000611648857f74726169745f76616c756500000000000000000000000000000000000000000061212e565b90506000611676867f74726169745f646973706c61790000000000000000000000000000000000000061212e565b905060005b835181101561188b5784600082116116a257604051806020016040528060008152506116d9565b6040518060400160405280600181526020017f2c000000000000000000000000000000000000000000000000000000000000008152505b6000848481518110611714577f4e487b7100000000000000000000000000000000000000000000000000000000600052603260045260246000fd5b6020026020010151511161173757604051806020016040528060008152506117ab565b838381518110611770577f4e487b7100000000000000000000000000000000000000000000000000000000600052603260045260246000fd5b602002602001015180602001905181019061178b9190612ced565b60405160200161179b9190613505565b6040516020818303038152906040525b8684815181106117e4577f4e487b7100000000000000000000000000000000000000000000000000000000600052603260045260246000fd5b60200260200101518060200190518101906117ff9190612ced565b868581518110611838577f4e487b7100000000000000000000000000000000000000000000000000000000600052603260045260246000fd5b60200260200101518060200190518101906118539190612ced565b60405160200161186795949392919061343f565b6040516020818303038152906040529450808061188390613e2d565b91505061167b565b508360405160200161189d91906134b6565b604051602081830303815290604052935050505b60006118dd857f6e616d650000000000000000000000000000000000000000000000000000000061222f565b8060200190518101906118f09190612ced565b9050600061191e867f6465736372697074696f6e00000000000000000000000000000000000000000061222f565b8060200190518101906119319190612ced565b9050600061195f877f696d61676500000000000000000000000000000000000000000000000000000061222f565b9050600061198d887f616e696d6174696f6e5f75726c0000000000000000000000000000000000000061222f565b905060006119bb897f65787465726e616c5f75726c000000000000000000000000000000000000000061222f565b905060006119e98a7f6261636b67726f756e645f636f6c6f720000000000000000000000000000000061222f565b90506000611a178b7f796f75747562655f75726c00000000000000000000000000000000000000000061222f565b9050611c2287876000885111611a3c5760405180602001604052806000815250611a70565b87806020019051810190611a509190612ced565b604051602001611a6091906135b9565b6040516020818303038152906040525b6000885111611a8e5760405180602001604052806000815250611ac2565b87806020019051810190611aa29190612ced565b604051602001611ab29190613800565b6040516020818303038152906040525b6000885111611ae05760405180602001604052806000815250611b14565b87806020019051810190611af49190612ced565b604051602001611b04919061358c565b6040516020818303038152906040525b60008f5111611b325760405180602001604052806000815250611b53565b8e604051602001611b4391906137de565b6040516020818303038152906040525b6000895111611b715760405180602001604052806000815250611ba5565b88806020019051810190611b859190612ced565b604051602001611b95919061379a565b6040516020818303038152906040525b6000895111611bc35760405180602001604052806000815250611bf7565b88806020019051810190611bd79190612ced565b604051602001611be791906137bc565b6040516020818303038152906040525b604051602001611c0e98979695949392919061366a565b604051602081830303815290604052610c91565b604051602001611c329190613778565b6040516020818303038152906040529950505050505050505050919050565b60606000611c7e7f6e616d65000000000000000000000000000000000000000000000000000000006122ad565b90506000611cab7f6465736372697074696f6e0000000000000000000000000000000000000000006122ad565b90506000611cd87f696d6167650000000000000000000000000000000000000000000000000000006122ad565b90506000611d057f65787465726e616c5f6c696e6b000000000000000000000000000000000000006122ad565b90506000611d327f73656c6c65725f6665655f62617369735f706f696e74730000000000000000006122ad565b90506000611d5f7f6665655f726563697069656e74000000000000000000000000000000000000006122ad565b9050611f6386806020019051810190611d789190612ced565b6000875111611d965760405180602001604052806000815250611dca565b86806020019051810190611daa9190612ced565b604051602001611dba919061371e565b6040516020818303038152906040525b6000875111611de85760405180602001604052806000815250611e1c565b86806020019051810190611dfc9190612ced565b604051602001611e0c91906135b9565b6040516020818303038152906040525b6000875111611e3a5760405180602001604052806000815250611e6e565b86806020019051810190611e4e9190612ced565b604051602001611e5e919061374b565b6040516020818303038152906040525b6000875111611e8c5760405180602001604052806000815250611ec8565b611ea887806020019051810190611ea39190612d57565b612329565b604051602001611eb891906134d8565b6040516020818303038152906040525b6000875111611ee65760405180602001604052806000815250611f3a565b611f1a87806020019051810190611efd9190612ab3565b73ffffffffffffffffffffffffffffffffffffffff1660146124d6565b604051602001611f2a9190613532565b6040516020818303038152906040525b604051602001611f4f969594939291906135e6565b604051602081830303815290604052610c91565b604051602001611f739190613778565b604051602081830303815290604052965050505050505090565b505050565b505050565b6000611fb88473ffffffffffffffffffffffffffffffffffffffff16610e1b565b15612121578373ffffffffffffffffffffffffffffffffffffffff1663150b7a02611fe1610f14565b8786866040518563ffffffff1660e01b8152600401612003949392919061386a565b602060405180830381600087803b15801561201d57600080fd5b505af192505050801561204e57506040513d601f19601f8201168201806040525081019061204b9190612c83565b60015b6120d1573d806000811461207e576040519150601f19603f3d011682016040523d82523d6000602084013e612083565b606091505b506000815114156120c9576040517f08c379a00000000000000000000000000000000000000000000000000000000081526004016120c090613933565b60405180910390fd5b805181602001fd5b63150b7a0260e01b7bffffffffffffffffffffffffffffffffffffffffffffffffffffffff1916817bffffffffffffffffffffffffffffffffffffffffffffffffffffffff191614915050612126565b600190505b949350505050565b6060600960008481526020019081526020016000206001016000838152602001908152602001600020805480602002602001604051908101604052809291908181526020016000905b8282101561222357838290600052602060002001805461219690613dca565b80601f01602080910402602001604051908101604052809291908181526020018280546121c290613dca565b801561220f5780601f106121e45761010080835404028352916020019161220f565b820191906000526020600020905b8154815290600101906020018083116121f257829003601f168201915b505050505081526020019060010190612177565b50505050905092915050565b6060600061223d848461212e565b90506000815111156122935780600081518110612283577f4e487b7100000000000000000000000000000000000000000000000000000000600052603260045260246000fd5b60200260200101519150506122a7565b604051806020016040528060008152509150505b92915050565b606060006122ba836127d0565b90506000815111156123105780600081518110612300577f4e487b7100000000000000000000000000000000000000000000000000000000600052603260045260246000fd5b6020026020010151915050612324565b604051806020016040528060008152509150505b919050565b60606000821415612371576040518060400160405280600181526020017f300000000000000000000000000000000000000000000000000000000000000081525090506124d1565b600082905060005b600082146123a357808061238c90613e2d565b915050600a8261239c9190613c19565b9150612379565b60008167ffffffffffffffff8111156123e5577f4e487b7100000000000000000000000000000000000000000000000000000000600052604160045260246000fd5b6040519080825280601f01601f1916602001820160405280156124175781602001600182028036833780820191505090505b5090505b600085146124ca576001826124309190613ca4565b9150600a8561243f9190613e76565b603061244b9190613bc3565b60f81b818381518110612487577f4e487b7100000000000000000000000000000000000000000000000000000000600052603260045260246000fd5b60200101907effffffffffffffffffffffffffffffffffffffffffffffffffffffffffffff1916908160001a905350600a856124c39190613c19565b945061241b565b8093505050505b919050565b6060600060028360026124e99190613c4a565b6124f39190613bc3565b67ffffffffffffffff811115612532577f4e487b7100000000000000000000000000000000000000000000000000000000600052604160045260246000fd5b6040519080825280601f01601f1916602001820160405280156125645781602001600182028036833780820191505090505b5090507f3000000000000000000000000000000000000000000000000000000000000000816000815181106125c2577f4e487b7100000000000000000000000000000000000000000000000000000000600052603260045260246000fd5b60200101907effffffffffffffffffffffffffffffffffffffffffffffffffffffffffffff1916908160001a9053507f78000000000000000000000000000000000000000000000000000000000000008160018151811061264c577f4e487b7100000000000000000000000000000000000000000000000000000000600052603260045260246000fd5b60200101907effffffffffffffffffffffffffffffffffffffffffffffffffffffffffffff1916908160001a9053506000600184600261268c9190613c4a565b6126969190613bc3565b90505b6001811115612782577f3031323334353637383961626364656600000000000000000000000000000000600f8616601081106126fe577f4e487b7100000000000000000000000000000000000000000000000000000000600052603260045260246000fd5b1a60f81b82828151811061273b577f4e487b7100000000000000000000000000000000000000000000000000000000600052603260045260246000fd5b60200101907effffffffffffffffffffffffffffffffffffffffffffffffffffffffffffff1916908160001a905350600485901c94508061277b90613da0565b9050612699565b50600084146127c6576040517f08c379a00000000000000000000000000000000000000000000000000000000081526004016127bd906138f3565b60405180910390fd5b8091505092915050565b606060066001016000838152602001908152602001600020805480602002602001604051908101604052809291908181526020016000905b828210156128b457838290600052602060002001805461282790613dca565b80601f016020809104026020016040519081016040528092919081815260200182805461285390613dca565b80156128a05780601f10612875576101008083540402835291602001916128a0565b820191906000526020600020905b81548152906001019060200180831161288357829003601f168201915b505050505081526020019060010190612808565b505050509050919050565b60006128d26128cd84613b13565b613aee565b9050828152602081018484840111156128ea57600080fd5b6128f5848285613d5e565b509392505050565b600061291061290b84613b44565b613aee565b90508281526020810184848401111561292857600080fd5b612933848285613d5e565b509392505050565b600061294e61294984613b44565b613aee565b90508281526020810184848401111561296657600080fd5b612971848285613d6d565b509392505050565b6000813590506129888161481c565b92915050565b60008151905061299d81614833565b92915050565b6000813590506129b28161484a565b92915050565b6000813590506129c781614861565b92915050565b6000815190506129dc81614861565b92915050565b600082601f8301126129f357600080fd5b8135612a038482602086016128bf565b91505092915050565b600082601f830112612a1d57600080fd5b8135612a2d8482602086016128fd565b91505092915050565b600082601f830112612a4757600080fd5b8151612a5784826020860161293b565b91505092915050565b600081359050612a6f81614878565b92915050565b600081519050612a8481614878565b92915050565b600060208284031215612a9c57600080fd5b6000612aaa84828501612979565b91505092915050565b600060208284031215612ac557600080fd5b6000612ad38482850161298e565b91505092915050565b60008060408385031215612aef57600080fd5b6000612afd85828601612979565b9250506020612b0e85828601612979565b9150509250929050565b600080600060608486031215612b2d57600080fd5b6000612b3b86828701612979565b9350506020612b4c86828701612979565b9250506040612b5d86828701612a60565b9150509250925092565b60008060008060808587031215612b7d57600080fd5b6000612b8b87828801612979565b9450506020612b9c87828801612979565b9350506040612bad87828801612a60565b925050606085013567ffffffffffffffff811115612bca57600080fd5b612bd6878288016129e2565b91505092959194509250565b60008060408385031215612bf557600080fd5b6000612c0385828601612979565b9250506020612c14858286016129a3565b9150509250929050565b60008060408385031215612c3157600080fd5b6000612c3f85828601612979565b9250506020612c5085828601612a60565b9150509250929050565b600060208284031215612c6c57600080fd5b6000612c7a848285016129b8565b91505092915050565b600060208284031215612c9557600080fd5b6000612ca3848285016129cd565b91505092915050565b600060208284031215612cbe57600080fd5b600082013567ffffffffffffffff811115612cd857600080fd5b612ce484828501612a0c565b91505092915050565b600060208284031215612cff57600080fd5b600082015167ffffffffffffffff811115612d1957600080fd5b612d2584828501612a36565b91505092915050565b600060208284031215612d4057600080fd5b6000612d4e84828501612a60565b91505092915050565b600060208284031215612d6957600080fd5b6000612d7784828501612a75565b91505092915050565b612d8981613cd8565b82525050565b612d9881613cfc565b82525050565b6000612da982613b75565b612db38185613b8b565b9350612dc3818560208601613d6d565b612dcc81613f63565b840191505092915050565b6000612de282613b75565b612dec8185613b9c565b9350612dfc818560208601613d6d565b80840191505092915050565b6000612e1382613b80565b612e1d8185613ba7565b9350612e2d818560208601613d6d565b612e3681613f63565b840191505092915050565b6000612e4c82613b80565b612e568185613bb8565b9350612e66818560208601613d6d565b80840191505092915050565b6000612e7f601d83613bb8565b9150612e8a82613f74565b601d82019050919050565b6000612ea2602083613ba7565b9150612ead82613f9d565b602082019050919050565b6000612ec5601583613ba7565b9150612ed082613fc6565b602082019050919050565b6000612ee8603283613ba7565b9150612ef382613fef565b604082019050919050565b6000612f0b601183613bb8565b9150612f168261403e565b601182019050919050565b6000612f2e602683613ba7565b9150612f3982614067565b604082019050919050565b6000612f51600283613bb8565b9150612f5c826140b6565b600282019050919050565b6000612f74602583613ba7565b9150612f7f826140df565b604082019050919050565b6000612f97600d83613bb8565b9150612fa28261412e565b600d82019050919050565b6000612fba602483613ba7565b9150612fc582614157565b604082019050919050565b6000612fdd601983613ba7565b9150612fe8826141a6565b602082019050919050565b6000613000600f83613bb8565b915061300b826141cf565b600f82019050919050565b6000613023602c83613ba7565b915061302e826141f8565b604082019050919050565b6000613046601483613bb8565b915061305182614247565b601482019050919050565b6000613069607e83613bb8565b915061307482614270565b607e82019050919050565b600061308c601083613bb8565b91506130978261430b565b601082019050919050565b60006130af601383613bb8565b91506130ba82614334565b601382019050919050565b60006130d2603883613ba7565b91506130dd8261435d565b604082019050919050565b60006130f5600183613bb8565b9150613100826143ac565b600182019050919050565b6000613118602a83613ba7565b9150613123826143d5565b604082019050919050565b600061313b602983613ba7565b915061314682614424565b604082019050919050565b600061315e600c83613bb8565b915061316982614473565b600c82019050919050565b6000613181601d83613bb8565b915061318c8261449c565b601d82019050919050565b60006131a4600283613bb8565b91506131af826144c5565b600282019050919050565b60006131c7600183613bb8565b91506131d2826144ee565b600182019050919050565b60006131ea602c83613ba7565b91506131f582614517565b604082019050919050565b600061320d600983613bb8565b915061321882614566565b600982019050919050565b6000613230602083613ba7565b915061323b8261458f565b602082019050919050565b6000613253600183613bb8565b915061325e826145b8565b600182019050919050565b6000613276601283613bb8565b9150613281826145e1565b601282019050919050565b6000613299600183613bb8565b91506132a48261460a565b600182019050919050565b60006132bc601483613bb8565b91506132c782614633565b601482019050919050565b60006132df602183613ba7565b91506132ea8261465c565b604082019050919050565b6000613302601d83613bb8565b915061330d826146ab565b601d82019050919050565b6000613325600083613bb8565b9150613330826146d4565b600082019050919050565b6000613348603183613ba7565b9150613353826146d7565b604082019050919050565b600061336b600383613bb8565b915061337682614726565b600382019050919050565b600061338e601683613bb8565b91506133998261474f565b601682019050919050565b60006133b1601183613bb8565b91506133bc82614778565b601182019050919050565b60006133d4601083613bb8565b91506133df826147a1565b601082019050919050565b60006133f7601483613bb8565b9150613402826147ca565b601482019050919050565b600061341a601a83613bb8565b9150613425826147f3565b601a82019050919050565b61343981613d54565b82525050565b600061344b8288612dd7565b91506134578287612e41565b915061346282613246565b915061346e8286612e41565b915061347982612ff3565b91506134858285612e41565b915061349082612f8a565b915061349c8284612e41565b91506134a782613197565b91508190509695505050505050565b60006134c28284612dd7565b91506134cd8261328c565b915081905092915050565b60006134e382612e72565b91506134ef8284612e41565b91506134fa82613318565b915081905092915050565b600061351082612efe565b915061351c8284612e41565b915061352782612f44565b915081905092915050565b600061353d82613039565b91506135498284612e41565b9150613554826130e8565b915081905092915050565b600061356a8261305c565b91506135768284612e41565b915061358182613174565b915081905092915050565b6000613597826130a2565b91506135a38284612e41565b91506135ae826130e8565b915081905092915050565b60006135c482613151565b91506135d08284612e41565b91506135db826130e8565b915081905092915050565b60006135f182613246565b91506135fc82613200565b91506136088289612e41565b9150613613826130e8565b915061361f8288612e41565b915061362b8287612e41565b91506136378286612e41565b91506136438285612e41565b915061364f8284612e41565b915061365a826131ba565b9150819050979650505050505050565b600061367582613246565b915061368082613200565b915061368c828b612e41565b91506136978261335e565b91506136a28261307f565b91506136ae828a612e41565b91506136b9826130e8565b91506136c58289612e41565b91506136d18288612e41565b91506136dd8287612e41565b91506136e98286612e41565b91506136f58285612e41565b91506137018284612e41565b915061370c826131ba565b91508190509998505050505050505050565b600061372982613269565b91506137358284612e41565b9150613740826130e8565b915081905092915050565b6000613756826132af565b91506137628284612e41565b915061376d826130e8565b915081905092915050565b6000613783826132f5565b915061378f8284612e41565b915081905092915050565b60006137a582613381565b91506137b18284612e41565b915081905092915050565b60006137c7826133a4565b91506137d38284612e41565b915081905092915050565b60006137e9826133c7565b91506137f58284612dd7565b915081905092915050565b600061380b826133ea565b91506138178284612e41565b9150613822826130e8565b915081905092915050565b60006138388261340d565b91506138448284612e41565b915081905092915050565b60006020820190506138646000830184612d80565b92915050565b600060808201905061387f6000830187612d80565b61388c6020830186612d80565b6138996040830185613430565b81810360608301526138ab8184612d9e565b905095945050505050565b60006020820190506138cb6000830184612d8f565b92915050565b600060208201905081810360008301526138eb8184612e08565b905092915050565b6000602082019050818103600083015261390c81612e95565b9050919050565b6000602082019050818103600083015261392c81612eb8565b9050919050565b6000602082019050818103600083015261394c81612edb565b9050919050565b6000602082019050818103600083015261396c81612f21565b9050919050565b6000602082019050818103600083015261398c81612f67565b9050919050565b600060208201905081810360008301526139ac81612fad565b9050919050565b600060208201905081810360008301526139cc81612fd0565b9050919050565b600060208201905081810360008301526139ec81613016565b9050919050565b60006020820190508181036000830152613a0c816130c5565b9050919050565b60006020820190508181036000830152613a2c8161310b565b9050919050565b60006020820190508181036000830152613a4c8161312e565b9050919050565b60006020820190508181036000830152613a6c816131dd565b9050919050565b60006020820190508181036000830152613a8c81613223565b9050919050565b60006020820190508181036000830152613aac816132d2565b9050919050565b60006020820190508181036000830152613acc8161333b565b9050919050565b6000602082019050613ae86000830184613430565b92915050565b6000613af8613b09565b9050613b048282613dfc565b919050565b6000604051905090565b600067ffffffffffffffff821115613b2e57613b2d613f34565b5b613b3782613f63565b9050602081019050919050565b600067ffffffffffffffff821115613b5f57613b5e613f34565b5b613b6882613f63565b9050602081019050919050565b600081519050919050565b600081519050919050565b600082825260208201905092915050565b600081905092915050565b600082825260208201905092915050565b600081905092915050565b6000613bce82613d54565b9150613bd983613d54565b9250827fffffffffffffffffffffffffffffffffffffffffffffffffffffffffffffffff03821115613c0e57613c0d613ea7565b5b828201905092915050565b6000613c2482613d54565b9150613c2f83613d54565b925082613c3f57613c3e613ed6565b5b828204905092915050565b6000613c5582613d54565b9150613c6083613d54565b9250817fffffffffffffffffffffffffffffffffffffffffffffffffffffffffffffffff0483118215151615613c9957613c98613ea7565b5b828202905092915050565b6000613caf82613d54565b9150613cba83613d54565b925082821015613ccd57613ccc613ea7565b5b828203905092915050565b6000613ce382613d34565b9050919050565b6000613cf582613d34565b9050919050565b60008115159050919050565b60007fffffffff0000000000000000000000000000000000000000000000000000000082169050919050565b600073ffffffffffffffffffffffffffffffffffffffff82169050919050565b6000819050919050565b82818337600083830152505050565b60005b83811015613d8b578082015181840152602081019050613d70565b83811115613d9a576000848401525b50505050565b6000613dab82613d54565b91506000821415613dbf57613dbe613ea7565b5b600182039050919050565b60006002820490506001821680613de257607f821691505b60208210811415613df657613df5613f05565b5b50919050565b613e0582613f63565b810181811067ffffffffffffffff82111715613e2457613e23613f34565b5b80604052505050565b6000613e3882613d54565b91507fffffffffffffffffffffffffffffffffffffffffffffffffffffffffffffffff821415613e6b57613e6a613ea7565b5b600182019050919050565b6000613e8182613d54565b9150613e8c83613d54565b925082613e9c57613e9b613ed6565b5b828206905092915050565b7f4e487b7100000000000000000000000000000000000000000000000000000000600052601160045260246000fd5b7f4e487b7100000000000000000000000000000000000000000000000000000000600052601260045260246000fd5b7f4e487b7100000000000000000000000000000000000000000000000000000000600052602260045260246000fd5b7f4e487b7100000000000000000000000000000000000000000000000000000000600052604160045260246000fd5b6000601f19601f8301169050919050565b7f2c202273656c6c65725f6665655f62617369735f706f696e7473223a20000000600082015250565b7f537472696e67733a20686578206c656e67746820696e73756666696369656e74600082015250565b7f746f6b656e496420646f65736e27742065786973740000000000000000000000600082015250565b7f4552433732313a207472616e7366657220746f206e6f6e20455243373231526560008201527f63656976657220696d706c656d656e7465720000000000000000000000000000602082015250565b7f22646973706c61795f74797065223a2022000000000000000000000000000000600082015250565b7f4f776e61626c653a206e6577206f776e657220697320746865207a65726f206160008201527f6464726573730000000000000000000000000000000000000000000000000000602082015250565b7f222c000000000000000000000000000000000000000000000000000000000000600082015250565b7f4552433732313a207472616e736665722066726f6d20696e636f72726563742060008201527f6f776e6572000000000000000000000000000000000000000000000000000000602082015250565b7f222c202276616c7565223a202200000000000000000000000000000000000000600082015250565b7f4552433732313a207472616e7366657220746f20746865207a65726f2061646460008201527f7265737300000000000000000000000000000000000000000000000000000000602082015250565b7f4552433732313a20617070726f766520746f2063616c6c657200000000000000600082015250565b7f2274726169745f74797065223a20220000000000000000000000000000000000600082015250565b7f4552433732313a206f70657261746f7220717565727920666f72206e6f6e657860008201527f697374656e7420746f6b656e0000000000000000000000000000000000000000602082015250565b7f2c20226665655f726563697069656e74223a2022000000000000000000000000600082015250565b7f3c737667206865696768743d22333530222077696474683d223335302220766960008201527f6577426f783d2230203020333530203335302220786d6c6e733d22687474703a60208201527f2f2f7777772e77332e6f72672f323030302f737667223e3c726563742068656960408201527f6768743d2231303025222077696474683d2231303025222066696c6c3d220000606082015250565b7f226465736372697074696f6e223a202200000000000000000000000000000000600082015250565b7f2c202265787465726e616c5f75726c223a202200000000000000000000000000600082015250565b7f4552433732313a20617070726f76652063616c6c6572206973206e6f74206f7760008201527f6e6572206e6f7220617070726f76656420666f7220616c6c0000000000000000602082015250565b7f2200000000000000000000000000000000000000000000000000000000000000600082015250565b7f4552433732313a2062616c616e636520717565727920666f7220746865207a6560008201527f726f206164647265737300000000000000000000000000000000000000000000602082015250565b7f4552433732313a206f776e657220717565727920666f72206e6f6e657869737460008201527f656e7420746f6b656e0000000000000000000000000000000000000000000000602082015250565b7f2c2022696d616765223a20220000000000000000000000000000000000000000600082015250565b7f222f3e20535647206e6f7420737570706f727465642e203c2f7376673e000000600082015250565b7f227d000000000000000000000000000000000000000000000000000000000000600082015250565b7f7d00000000000000000000000000000000000000000000000000000000000000600082015250565b7f4552433732313a20617070726f76656420717565727920666f72206e6f6e657860008201527f697374656e7420746f6b656e0000000000000000000000000000000000000000602082015250565b7f226e616d65223a20220000000000000000000000000000000000000000000000600082015250565b7f4f776e61626c653a2063616c6c6572206973206e6f7420746865206f776e6572600082015250565b7f7b00000000000000000000000000000000000000000000000000000000000000600082015250565b7f2c20226465736372697074696f6e223a20220000000000000000000000000000600082015250565b7f5d00000000000000000000000000000000000000000000000000000000000000600082015250565b7f2c202265787465726e616c5f6c696e6b223a2022000000000000000000000000600082015250565b7f4552433732313a20617070726f76616c20746f2063757272656e74206f776e6560008201527f7200000000000000000000000000000000000000000000000000000000000000602082015250565b7f646174613a6170706c69636174696f6e2f6a736f6e3b6261736536342c000000600082015250565b50565b7f4552433732313a207472616e736665722063616c6c6572206973206e6f74206f60008201527f776e6572206e6f7220617070726f766564000000000000000000000000000000602082015250565b7f222c200000000000000000000000000000000000000000000000000000000000600082015250565b7f2c20226261636b67726f756e645f636f6c6f72223a2000000000000000000000600082015250565b7f2c2022796f75747562655f75726c223a20000000000000000000000000000000600082015250565b7f2c202261747472696275746573223a2000000000000000000000000000000000600082015250565b7f2c2022616e696d6174696f6e5f75726c223a2022000000000000000000000000600082015250565b7f646174613a696d6167652f7376672b786d6c3b6261736536342c000000000000600082015250565b61482581613cd8565b811461483057600080fd5b50565b61483c81613cea565b811461484757600080fd5b50565b61485381613cfc565b811461485e57600080fd5b50565b61486a81613d08565b811461487557600080fd5b50565b61488181613d54565b811461488c57600080fd5b5056fe4142434445464748494a4b4c4d4e4f505152535455565758595a6162636465666768696a6b6c6d6e6f707172737475767778797a303132333435363738392b2fa2646970667358221220445ee5a1156b5f1e5dd8d96a754fe71f26b0d48534a6e7151eb6491cc00f660564736f6c634300080100334142434445464748494a4b4c4d4e4f505152535455565758595a6162636465666768696a6b6c6d6e6f707172737475767778797a303132333435363738392b2f",
  "linkReferences": {},
  "deployedLinkReferences": {}
}