{
  "_format": "hh-sol-artifact-1",
  "contractName": "Example3ERC1155OnChainMetadata",
  "sourceName": "contracts/Example3-1155-html.sol",
  "abi": [
    {
      "inputs": [],
      "stateMutability": "nonpayable",
      "type": "constructor"
    },
    {
      "anonymous": false,
      "inputs": [
        {
          "indexed": true,
          "internalType": "address",
          "name": "account",
          "type": "address"
        },
        {
          "indexed": true,
          "internalType": "address",
          "name": "operator",
          "type": "address"
        },
        {
          "indexed": false,
          "internalType": "bool",
          "name": "approved",
          "type": "bool"
        }
      ],
      "name": "ApprovalForAll",
      "type": "event"
    },
    {
      "anonymous": false,
      "inputs": [
        {
          "indexed": true,
          "internalType": "address",
          "name": "previousOwner",
          "type": "address"
        },
        {
          "indexed": true,
          "internalType": "address",
          "name": "newOwner",
          "type": "address"
        }
      ],
      "name": "OwnershipTransferred",
      "type": "event"
    },
    {
      "anonymous": false,
      "inputs": [
        {
          "indexed": true,
          "internalType": "address",
          "name": "operator",
          "type": "address"
        },
        {
          "indexed": true,
          "internalType": "address",
          "name": "from",
          "type": "address"
        },
        {
          "indexed": true,
          "internalType": "address",
          "name": "to",
          "type": "address"
        },
        {
          "indexed": false,
          "internalType": "uint256[]",
          "name": "ids",
          "type": "uint256[]"
        },
        {
          "indexed": false,
          "internalType": "uint256[]",
          "name": "values",
          "type": "uint256[]"
        }
      ],
      "name": "TransferBatch",
      "type": "event"
    },
    {
      "anonymous": false,
      "inputs": [
        {
          "indexed": true,
          "internalType": "address",
          "name": "operator",
          "type": "address"
        },
        {
          "indexed": true,
          "internalType": "address",
          "name": "from",
          "type": "address"
        },
        {
          "indexed": true,
          "internalType": "address",
          "name": "to",
          "type": "address"
        },
        {
          "indexed": false,
          "internalType": "uint256",
          "name": "id",
          "type": "uint256"
        },
        {
          "indexed": false,
          "internalType": "uint256",
          "name": "value",
          "type": "uint256"
        }
      ],
      "name": "TransferSingle",
      "type": "event"
    },
    {
      "anonymous": false,
      "inputs": [
        {
          "indexed": false,
          "internalType": "string",
          "name": "value",
          "type": "string"
        },
        {
          "indexed": true,
          "internalType": "uint256",
          "name": "id",
          "type": "uint256"
        }
      ],
      "name": "URI",
      "type": "event"
    },
    {
      "inputs": [
        {
          "internalType": "address",
          "name": "account",
          "type": "address"
        },
        {
          "internalType": "uint256",
          "name": "id",
          "type": "uint256"
        }
      ],
      "name": "balanceOf",
      "outputs": [
        {
          "internalType": "uint256",
          "name": "",
          "type": "uint256"
        }
      ],
      "stateMutability": "view",
      "type": "function"
    },
    {
      "inputs": [
        {
          "internalType": "address[]",
          "name": "accounts",
          "type": "address[]"
        },
        {
          "internalType": "uint256[]",
          "name": "ids",
          "type": "uint256[]"
        }
      ],
      "name": "balanceOfBatch",
      "outputs": [
        {
          "internalType": "uint256[]",
          "name": "",
          "type": "uint256[]"
        }
      ],
      "stateMutability": "view",
      "type": "function"
    },
    {
      "inputs": [],
      "name": "contractURI",
      "outputs": [
        {
          "internalType": "string",
          "name": "",
          "type": "string"
        }
      ],
      "stateMutability": "view",
      "type": "function"
    },
    {
      "inputs": [],
      "name": "createSVG",
      "outputs": [
        {
          "internalType": "string",
          "name": "",
          "type": "string"
        }
      ],
      "stateMutability": "pure",
      "type": "function"
    },
    {
      "inputs": [
        {
          "internalType": "address",
          "name": "account",
          "type": "address"
        },
        {
          "internalType": "address",
          "name": "operator",
          "type": "address"
        }
      ],
      "name": "isApprovedForAll",
      "outputs": [
        {
          "internalType": "bool",
          "name": "",
          "type": "bool"
        }
      ],
      "stateMutability": "view",
      "type": "function"
    },
    {
      "inputs": [
        {
          "internalType": "address",
          "name": "to",
          "type": "address"
        },
        {
          "internalType": "uint256",
          "name": "id",
          "type": "uint256"
        },
        {
          "internalType": "uint256",
          "name": "amount",
          "type": "uint256"
        },
        {
          "internalType": "string",
          "name": "name",
          "type": "string"
        },
        {
          "internalType": "string",
          "name": "description",
          "type": "string"
        },
        {
          "internalType": "string",
          "name": "imageURI",
          "type": "string"
        },
        {
          "internalType": "string",
          "name": "url",
          "type": "string"
        }
      ],
      "name": "mintWithMetadata",
      "outputs": [],
      "stateMutability": "nonpayable",
      "type": "function"
    },
    {
      "inputs": [],
      "name": "owner",
      "outputs": [
        {
          "internalType": "address",
          "name": "",
          "type": "address"
        }
      ],
      "stateMutability": "view",
      "type": "function"
    },
    {
      "inputs": [],
      "name": "renounceOwnership",
      "outputs": [],
      "stateMutability": "nonpayable",
      "type": "function"
    },
    {
      "inputs": [
        {
          "internalType": "address",
          "name": "from",
          "type": "address"
        },
        {
          "internalType": "address",
          "name": "to",
          "type": "address"
        },
        {
          "internalType": "uint256[]",
          "name": "ids",
          "type": "uint256[]"
        },
        {
          "internalType": "uint256[]",
          "name": "amounts",
          "type": "uint256[]"
        },
        {
          "internalType": "bytes",
          "name": "data",
          "type": "bytes"
        }
      ],
      "name": "safeBatchTransferFrom",
      "outputs": [],
      "stateMutability": "nonpayable",
      "type": "function"
    },
    {
      "inputs": [
        {
          "internalType": "address",
          "name": "from",
          "type": "address"
        },
        {
          "internalType": "address",
          "name": "to",
          "type": "address"
        },
        {
          "internalType": "uint256",
          "name": "id",
          "type": "uint256"
        },
        {
          "internalType": "uint256",
          "name": "amount",
          "type": "uint256"
        },
        {
          "internalType": "bytes",
          "name": "data",
          "type": "bytes"
        }
      ],
      "name": "safeTransferFrom",
      "outputs": [],
      "stateMutability": "nonpayable",
      "type": "function"
    },
    {
      "inputs": [
        {
          "internalType": "address",
          "name": "operator",
          "type": "address"
        },
        {
          "internalType": "bool",
          "name": "approved",
          "type": "bool"
        }
      ],
      "name": "setApprovalForAll",
      "outputs": [],
      "stateMutability": "nonpayable",
      "type": "function"
    },
    {
      "inputs": [
        {
          "internalType": "bytes4",
          "name": "interfaceId",
          "type": "bytes4"
        }
      ],
      "name": "supportsInterface",
      "outputs": [
        {
          "internalType": "bool",
          "name": "",
          "type": "bool"
        }
      ],
      "stateMutability": "view",
      "type": "function"
    },
    {
      "inputs": [
        {
          "internalType": "address",
          "name": "newOwner",
          "type": "address"
        }
      ],
      "name": "transferOwnership",
      "outputs": [],
      "stateMutability": "nonpayable",
      "type": "function"
    },
    {
      "inputs": [
        {
          "internalType": "uint256",
          "name": "tokenId",
          "type": "uint256"
        }
      ],
      "name": "uri",
      "outputs": [
        {
          "internalType": "string",
          "name": "",
          "type": "string"
        }
      ],
      "stateMutability": "view",
      "type": "function"
    }
  ],
  "bytecode": "0x60806040523480156200001157600080fd5b506040518060200160405280600081525062000033816200033a60201b60201c565b5062000054620000486200035660201b60201c565b6200035e60201b60201c565b620000a760037f6e616d65000000000000000000000000000000000000000000000000000000006040516020016200008c9062001815565b6040516020818303038152906040526200042460201b60201c565b6200011b60037f6465736372697074696f6e000000000000000000000000000000000000000000604051602001620000df906200163b565b60405160208183030381529060405260405160200162000100919062001747565b6040516020818303038152906040526200042460201b60201c565b6200017f60037f696d616765000000000000000000000000000000000000000000000000000000620001526200050060201b60201c565b60405160200162000164919062001747565b6040516020818303038152906040526200042460201b60201c565b620001d260037f65787465726e616c5f6c696e6b00000000000000000000000000000000000000604051602001620001b790620017af565b6040516020818303038152906040526200042460201b60201c565b6200022860037f73656c6c65725f6665655f62617369735f706f696e747300000000000000000060c86040516020016200020d91906200172a565b6040516020818303038152906040526200042460201b60201c565b6200028c60037f6665655f726563697069656e74000000000000000000000000000000000000006200025f6200035660201b60201c565b604051602001620002719190620016a9565b6040516020818303038152906040526200042460201b60201c565b62000334620002a06200035660201b60201c565b6000600a6040518060400160405280600a81526020017f466972737420546573740000000000000000000000000000000000000000000081525060405180606001604052806024815260200162007b746024913960405180608001604052806050815260200162007b986050913960405180608001604052806051815260200162007ae3605191396200055d60201b60201c565b620021e4565b806002908051906020019062000352929190620010f9565b5050565b600033905090565b6000600760009054906101000a900473ffffffffffffffffffffffffffffffffffffffff16905081600760006101000a81548173ffffffffffffffffffffffffffffffffffffffff021916908373ffffffffffffffffffffffffffffffffffffffff1602179055508173ffffffffffffffffffffffffffffffffffffffff168173ffffffffffffffffffffffffffffffffffffffff167f8be0079c531659141344cd1fd0a4f28419497f9722a3daafe3b4186f6b6457e060405160405180910390a35050565b6000600167ffffffffffffffff81111562000468577f4e487b7100000000000000000000000000000000000000000000000000000000600052604160045260246000fd5b6040519080825280602002602001820160405280156200049d57816020015b6060815260200190600190039081620004875790505b5090508181600081518110620004dc577f4e487b7100000000000000000000000000000000000000000000000000000000600052603260045260246000fd5b6020026020010181905250620004fa848483620007fe60201b60201c565b50505050565b60606200053760405160200162000517906200166c565b604051602081830303815290604052620008c060201b62000c881760201c565b60405160200162000549919062001683565b604051602081830303815290604052905090565b6200056d6200035660201b60201c565b73ffffffffffffffffffffffffffffffffffffffff166200059362000a5b60201b60201c565b73ffffffffffffffffffffffffffffffffffffffff1614620005ec576040517f08c379a0000000000000000000000000000000000000000000000000000000008152600401620005e390620017d1565b60405180910390fd5b600015156008600088815260200190815260200160002060009054906101000a900460ff1615151462000656576040517f08c379a00000000000000000000000000000000000000000000000000000000081526004016200064d9062001859565b60405180910390fd5b620006aa867f6e616d6500000000000000000000000000000000000000000000000000000000866040516020016200068f919062001747565b60405160208183030381529060405262000a8560201b60201c565b620006fe867f6465736372697074696f6e00000000000000000000000000000000000000000085604051602001620006e3919062001747565b60405160208183030381529060405262000a8560201b60201c565b62000752867f696d6167650000000000000000000000000000000000000000000000000000008460405160200162000737919062001747565b60405160208183030381529060405262000a8560201b60201c565b620007a6867f616e696d6174696f6e5f75726c00000000000000000000000000000000000000836040516020016200078b919062001747565b60405160208183030381529060405262000a8560201b60201c565b60016008600088815260200190815260200160002060006101000a81548160ff021916908315150217905550620007f58787876040518060200160405280600081525062000b6160201b60201c565b50505050505050565b6000836002016000848152602001908152602001600020541462000859576040517f08c379a00000000000000000000000000000000000000000000000000000000081526004016200085090620017f3565b60405180910390fd5b600183600001546200086c9190620018f5565b83600001819055508083600101600084815260200190815260200160002090805190602001906200089f9291906200118a565b50805183600201600084815260200190815260200160002081905550505050565b6060600082511415620008e55760405180602001604052806000815250905062000a56565b600060405180606001604052806040815260200162007b346040913990506000600360028551620009179190620018f5565b62000923919062001952565b60046200093191906200198a565b67ffffffffffffffff81111562000971577f4e487b7100000000000000000000000000000000000000000000000000000000600052604160045260246000fd5b6040519080825280601f01601f191660200182016040528015620009a45781602001600182028036833780820191505090505b509050600182016020820185865187015b8082101562000a12576003820191508151603f8160121c168501518453600184019350603f81600c1c168501518453600184019350603f8160061c168501518453600184019350603f8116850151845360018401935050620009b5565b505060038651066001811462000a31576002811462000a455762000a4d565b603d6001830353603d600283035362000a4d565b603d60018303535b50505080925050505b919050565b6000600760009054906101000a900473ffffffffffffffffffffffffffffffffffffffff16905090565b6000600167ffffffffffffffff81111562000ac9577f4e487b7100000000000000000000000000000000000000000000000000000000600052604160045260246000fd5b60405190808252806020026020018201604052801562000afe57816020015b606081526020019060019003908162000ae85790505b509050818160008151811062000b3d577f4e487b7100000000000000000000000000000000000000000000000000000000600052603260045260246000fd5b602002602001018190525062000b5b84848362000d2660201b60201c565b50505050565b600073ffffffffffffffffffffffffffffffffffffffff168473ffffffffffffffffffffffffffffffffffffffff16141562000bd4576040517f08c379a000000000000000000000000000000000000000000000000000000000815260040162000bcb9062001837565b60405180910390fd5b600062000be66200035660201b60201c565b905062000c1f8160008762000c018862000dfb60201b60201c565b62000c128862000dfb60201b60201c565b8762000ec460201b60201c565b8260008086815260200190815260200160002060008773ffffffffffffffffffffffffffffffffffffffff1673ffffffffffffffffffffffffffffffffffffffff168152602001908152602001600020600082825462000c809190620018f5565b925050819055508473ffffffffffffffffffffffffffffffffffffffff16600073ffffffffffffffffffffffffffffffffffffffff168273ffffffffffffffffffffffffffffffffffffffff167fc3d58168c5ae7397731d063d5bbf3d657854427343f4c083240f7aacaa2d0f62878760405162000d009291906200187b565b60405180910390a462000d1f8160008787878762000ecc60201b60201c565b5050505050565b6000600660008581526020019081526020016000209050600081600201600085815260200190815260200160002054141562000d8a576001816000015462000d6f9190620018f5565b60066000868152602001908152602001600020600001819055505b81600660008681526020019081526020016000206001016000858152602001908152602001600020908051906020019062000dc79291906200118a565b5081516006600086815260200190815260200160002060020160008581526020019081526020016000208190555050505050565b60606000600167ffffffffffffffff81111562000e41577f4e487b7100000000000000000000000000000000000000000000000000000000600052604160045260246000fd5b60405190808252806020026020018201604052801562000e705781602001602082028036833780820191505090505b509050828160008151811062000eaf577f4e487b7100000000000000000000000000000000000000000000000000000000600052603260045260246000fd5b60200260200101818152505080915050919050565b505050505050565b62000ef88473ffffffffffffffffffffffffffffffffffffffff16620010d660201b62000e121760201c565b15620010ce578373ffffffffffffffffffffffffffffffffffffffff1663f23a6e6187878686866040518663ffffffff1660e01b815260040162000f41959493929190620016c6565b602060405180830381600087803b15801562000f5c57600080fd5b505af192505050801562000f9057506040513d601f19601f8201168201806040525081019062000f8d919062001326565b60015b620010425762000f9f62001bd4565b806308c379a0141562001003575062000fb762002128565b8062000fc4575062001005565b806040517f08c379a000000000000000000000000000000000000000000000000000000000815260040162000ffa919062001747565b60405180910390fd5b505b6040517f08c379a000000000000000000000000000000000000000000000000000000000815260040162001039906200176b565b60405180910390fd5b63f23a6e6160e01b7bffffffffffffffffffffffffffffffffffffffffffffffffffffffff1916817bffffffffffffffffffffffffffffffffffffffffffffffffffffffff191614620010cc576040517f08c379a0000000000000000000000000000000000000000000000000000000008152600401620010c3906200178d565b60405180910390fd5b505b505050505050565b6000808273ffffffffffffffffffffffffffffffffffffffff163b119050919050565b828054620011079062001aac565b90600052602060002090601f0160209004810192826200112b576000855562001177565b82601f106200114657805160ff191683800117855562001177565b8280016001018555821562001177579182015b828111156200117657825182559160200191906001019062001159565b5b509050620011869190620011f1565b5090565b828054828255906000526020600020908101928215620011de579160200282015b82811115620011dd578251829080519060200190620011cc92919062001210565b5091602001919060010190620011ab565b5b509050620011ed9190620012a1565b5090565b5b808211156200120c576000816000905550600101620011f2565b5090565b8280546200121e9062001aac565b90600052602060002090601f0160209004810192826200124257600085556200128e565b82601f106200125d57805160ff19168380011785556200128e565b828001600101855582156200128e579182015b828111156200128d57825182559160200191906001019062001270565b5b5090506200129d9190620011f1565b5090565b5b80821115620012c55760008181620012bb9190620012c9565b50600101620012a2565b5090565b508054620012d79062001aac565b6000825580601f10620012eb57506200130c565b601f0160209004906000526020600020908101906200130b9190620011f1565b5b50565b6000815190506200132081620021ca565b92915050565b6000602082840312156200133957600080fd5b600062001349848285016200130f565b91505092915050565b6200135d81620019eb565b82525050565b60006200137082620018b2565b6200137c8185620018c8565b93506200138e81856020860162001a76565b620013998162001bf9565b840191505092915050565b620013af8162001a62565b82525050565b6000620013c282620018bd565b620013ce8185620018d9565b9350620013e081856020860162001a76565b620013eb8162001bf9565b840191505092915050565b60006200140382620018bd565b6200140f8185620018ea565b93506200142181856020860162001a76565b80840191505092915050565b60006200143c603483620018d9565b9150620014498262001c17565b604082019050919050565b600062001463602883620018d9565b9150620014708262001c66565b604082019050919050565b60006200148a600183620018ea565b9150620014978262001cb5565b600182019050919050565b6000620014b1603583620018d9565b9150620014be8262001cde565b604082019050919050565b6000620014d8603583620018ea565b9150620014e58262001cde565b603582019050919050565b6000620014ff603983620018ea565b91506200150c8262001d2d565b603982019050919050565b600062001526602083620018d9565b9150620015338262001d7c565b602082019050919050565b60006200154d602383620018d9565b91506200155a8262001da5565b604082019050919050565b6000620015756101dd83620018ea565b9150620015828262001df4565b6101dd82019050919050565b60006200159d602083620018d9565b9150620015aa8262002038565b602082019050919050565b6000620015c4602183620018d9565b9150620015d18262002061565b604082019050919050565b6000620015eb603b83620018d9565b9150620015f882620020b0565b604082019050919050565b600062001612601a83620018ea565b91506200161f82620020ff565b601a82019050919050565b620016358162001a4b565b82525050565b60006200164882620014f0565b91506200165582620014c9565b915062001662826200147b565b9150819050919050565b6000620016798262001565565b9150819050919050565b6000620016908262001603565b91506200169e8284620013f6565b915081905092915050565b6000602082019050620016c0600083018462001352565b92915050565b600060a082019050620016dd600083018862001352565b620016ec602083018762001352565b620016fb60408301866200162a565b6200170a60608301856200162a565b81810360808301526200171e818462001363565b90509695505050505050565b6000602082019050620017416000830184620013a4565b92915050565b60006020820190508181036000830152620017638184620013b5565b905092915050565b6000602082019050818103600083015262001786816200142d565b9050919050565b60006020820190508181036000830152620017a88162001454565b9050919050565b60006020820190508181036000830152620017ca81620014a2565b9050919050565b60006020820190508181036000830152620017ec8162001517565b9050919050565b600060208201905081810360008301526200180e816200153e565b9050919050565b6000602082019050818103600083015262001830816200158e565b9050919050565b600060208201905081810360008301526200185281620015b5565b9050919050565b600060208201905081810360008301526200187481620015dc565b9050919050565b60006040820190506200189260008301856200162a565b620018a160208301846200162a565b9392505050565b6000604051905090565b600081519050919050565b600081519050919050565b600082825260208201905092915050565b600082825260208201905092915050565b600081905092915050565b6000620019028262001a4b565b91506200190f8362001a4b565b9250827fffffffffffffffffffffffffffffffffffffffffffffffffffffffffffffffff0382111562001947576200194662001b18565b5b828201905092915050565b60006200195f8262001a4b565b91506200196c8362001a4b565b9250826200197f576200197e62001b47565b5b828204905092915050565b6000620019978262001a4b565b9150620019a48362001a4b565b9250817fffffffffffffffffffffffffffffffffffffffffffffffffffffffffffffffff0483118215151615620019e057620019df62001b18565b5b828202905092915050565b6000620019f88262001a2b565b9050919050565b60007fffffffff0000000000000000000000000000000000000000000000000000000082169050919050565b600073ffffffffffffffffffffffffffffffffffffffff82169050919050565b6000819050919050565b600060ff82169050919050565b600062001a6f8262001a55565b9050919050565b60005b8381101562001a9657808201518184015260208101905062001a79565b8381111562001aa6576000848401525b50505050565b6000600282049050600182168062001ac557607f821691505b6020821081141562001adc5762001adb62001b76565b5b50919050565b62001aed8262001bf9565b810181811067ffffffffffffffff8211171562001b0f5762001b0e62001ba5565b5b80604052505050565b7f4e487b7100000000000000000000000000000000000000000000000000000000600052601160045260246000fd5b7f4e487b7100000000000000000000000000000000000000000000000000000000600052601260045260246000fd5b7f4e487b7100000000000000000000000000000000000000000000000000000000600052602260045260246000fd5b7f4e487b7100000000000000000000000000000000000000000000000000000000600052604160045260246000fd5b600060033d111562001bf65760046000803e62001bf360005162001c0a565b90505b90565b6000601f19601f8301169050919050565b60008160e01c9050919050565b7f455243313135353a207472616e7366657220746f206e6f6e204552433131353560008201527f526563656976657220696d706c656d656e746572000000000000000000000000602082015250565b7f455243313135353a204552433131353552656365697665722072656a6563746560008201527f6420746f6b656e73000000000000000000000000000000000000000000000000602082015250565b7f2e00000000000000000000000000000000000000000000000000000000000000600082015250565b7f68747470733a2f2f6769746875622e636f6d2f44616e69656c4162616c64652f60008201527f4e46542d4f6e2d436861696e2d4d657461646174610000000000000000000000602082015250565b7f53696d706c65206578616d706c65206f6620455243313135354f6e436861696e60008201527f4d65746164617461207573696e672068746d6c2e205365652000000000000000602082015250565b7f4f776e61626c653a2063616c6c6572206973206e6f7420746865206f776e6572600082015250565b7f4d6574616461746120616c726561647920636f6e7461696e7320676976656e2060008201527f6b65790000000000000000000000000000000000000000000000000000000000602082015250565b7f3c737667206865696768743d22333530222077696474683d223335302220766960008201527f6577426f783d2230203020333530203335302220786d6c6e733d22687474703a60208201527f2f2f7777772e77332e6f72672f323030302f737667223e3c726563742068656960408201527f6768743d2231303025222077696474683d2231303025222066696c6c3d22776860608201527f697465222f3e3c7465787420783d223530252220793d223530252220646f6d6960808201527f6e616e742d626173656c696e653d226d6964646c652220746578742d616e636860a08201527f6f723d226d6964646c65223e48544d4c3c616e696d6174655472616e73666f7260c08201527f6d206174747269627574654e616d653d227472616e73666f726d22206174747260e08201527f6962757465547970653d22584d4c2220747970653d22726f74617465222066726101008201527f6f6d3d223020313735203137352220746f3d22333630203137352031373522206101208201527f6475723d2232732220726570656174436f756e743d22696e646566696e6974656101408201527f222f3e3c2f746578743e20535647206e6f7420737570706f727465642e203c736101608201527f74796c653e3c215b43444154415b2074657874207b666f6e743a20626f6c64206101808201527f353070782056657264616e612c2048656c7665746963612c20417269616c2c206101a08201527f73616e732d73657269663b7d5d5d3e3c2f7374796c653e3c2f7376673e0000006101c082015250565b7f455243313135354f6e436861696e4d65746164617461204578616d706c652033600082015250565b7f455243313135353a206d696e7420746f20746865207a65726f2061646472657360008201527f7300000000000000000000000000000000000000000000000000000000000000602082015250565b7f455243313135354f6e436861696e4d657461646174613a206d696e745769746860008201527f4d657461646174613a20696420616c7265616479206578697374730000000000602082015250565b7f646174613a696d6167652f7376672b786d6c3b6261736536342c000000000000600082015250565b600060443d10156200213a57620021c7565b62002144620018a8565b60043d036004823e80513d602482011167ffffffffffffffff821117156200216e575050620021c7565b808201805167ffffffffffffffff8111156200218e5750505050620021c7565b80602083010160043d038501811115620021ad575050505050620021c7565b620021be8260200185018662001ae2565b82955050505050505b90565b620021d581620019ff565b8114620021e157600080fd5b50565b6158ef80620021f46000396000f3fe608060405234801561001057600080fd5b50600436106100e95760003560e01c80638da5cb5b1161008c578063e8a3d48511610066578063e8a3d48514610248578063e985e9c514610266578063f242432a14610296578063f2fde38b146102b2576100e9565b80638da5cb5b146101f0578063a22cb4651461020e578063daab4c861461022a576100e9565b80630e89341c116100c85780630e89341c1461016a5780632eb2c2d61461019a5780634e1273f4146101b6578063715018a6146101e6576100e9565b8062fdd58e146100ee57806301ffc9a71461011e57806304911f1e1461014e575b600080fd5b61010860048036038101906101039190613679565b6102ce565b6040516101159190614772565b60405180910390f35b6101386004803603810190610133919061381f565b610397565b6040516101459190614555565b60405180910390f35b610168600480360381019061016391906136b5565b610479565b005b610184600480360381019061017f91906138b2565b6106d4565b6040516101919190614570565b60405180910390f35b6101b460048036038101906101af91906134ef565b6106e6565b005b6101d060048036038101906101cb91906137b3565b610787565b6040516101dd91906144fc565b60405180910390f35b6101ee610938565b005b6101f86109c0565b604051610205919061441f565b60405180910390f35b6102286004803603810190610223919061363d565b6109ea565b005b610232610a00565b60405161023f9190614570565b60405180910390f35b610250610a4c565b60405161025d9190614570565b60405180910390f35b610280600480360381019061027b91906134b3565b610a5b565b60405161028d9190614555565b60405180910390f35b6102b060048036038101906102ab91906135ae565b610aef565b005b6102cc60048036038101906102c79190613461565b610b90565b005b60008073ffffffffffffffffffffffffffffffffffffffff168373ffffffffffffffffffffffffffffffffffffffff16141561033f576040517f08c379a0000000000000000000000000000000000000000000000000000000008152600401610336906145f2565b60405180910390fd5b60008083815260200190815260200160002060008473ffffffffffffffffffffffffffffffffffffffff1673ffffffffffffffffffffffffffffffffffffffff16815260200190815260200160002054905092915050565b60007fd9b67a26000000000000000000000000000000000000000000000000000000007bffffffffffffffffffffffffffffffffffffffffffffffffffffffff1916827bffffffffffffffffffffffffffffffffffffffffffffffffffffffff1916148061046257507f0e89341c000000000000000000000000000000000000000000000000000000007bffffffffffffffffffffffffffffffffffffffffffffffffffffffff1916827bffffffffffffffffffffffffffffffffffffffffffffffffffffffff1916145b80610472575061047182610e35565b5b9050919050565b610481610e9f565b73ffffffffffffffffffffffffffffffffffffffff1661049f6109c0565b73ffffffffffffffffffffffffffffffffffffffff16146104f5576040517f08c379a00000000000000000000000000000000000000000000000000000000081526004016104ec906146b2565b60405180910390fd5b600015156008600088815260200190815260200160002060009054906101000a900460ff1615151461055c576040517f08c379a000000000000000000000000000000000000000000000000000000000815260040161055390614752565b60405180910390fd5b6105a6867f6e616d6500000000000000000000000000000000000000000000000000000000866040516020016105929190614570565b604051602081830303815290604052610ea7565b6105f0867f6465736372697074696f6e000000000000000000000000000000000000000000856040516020016105dc9190614570565b604051602081830303815290604052610ea7565b61063a867f696d616765000000000000000000000000000000000000000000000000000000846040516020016106269190614570565b604051602081830303815290604052610ea7565b610684867f616e696d6174696f6e5f75726c00000000000000000000000000000000000000836040516020016106709190614570565b604051602081830303815290604052610ea7565b60016008600088815260200190815260200160002060006101000a81548160ff0219169083151502179055506106cb87878760405180602001604052806000815250610f77565b50505050505050565b60606106df8261110d565b9050919050565b6106ee610e9f565b73ffffffffffffffffffffffffffffffffffffffff168573ffffffffffffffffffffffffffffffffffffffff16148061073457506107338561072e610e9f565b610a5b565b5b610773576040517f08c379a000000000000000000000000000000000000000000000000000000000815260040161076a90614672565b60405180910390fd5b61078085858585856117b5565b5050505050565b606081518351146107cd576040517f08c379a00000000000000000000000000000000000000000000000000000000081526004016107c4906146f2565b60405180910390fd5b6000835167ffffffffffffffff811115610810577f4e487b7100000000000000000000000000000000000000000000000000000000600052604160045260246000fd5b60405190808252806020026020018201604052801561083e5781602001602082028036833780820191505090505b50905060005b845181101561092d576108d7858281518110610889577f4e487b7100000000000000000000000000000000000000000000000000000000600052603260045260246000fd5b60200260200101518583815181106108ca577f4e487b7100000000000000000000000000000000000000000000000000000000600052603260045260246000fd5b60200260200101516102ce565b828281518110610910577f4e487b7100000000000000000000000000000000000000000000000000000000600052603260045260246000fd5b6020026020010181815250508061092690614b86565b9050610844565b508091505092915050565b610940610e9f565b73ffffffffffffffffffffffffffffffffffffffff1661095e6109c0565b73ffffffffffffffffffffffffffffffffffffffff16146109b4576040517f08c379a00000000000000000000000000000000000000000000000000000000081526004016109ab906146b2565b60405180910390fd5b6109be6000611b15565b565b6000600760009054906101000a900473ffffffffffffffffffffffffffffffffffffffff16905090565b6109fc6109f5610e9f565b8383611bdb565b5050565b6060610a28604051602001610a1490614355565b604051602081830303815290604052610c88565b604051602001610a3891906143fd565b604051602081830303815290604052905090565b6060610a56611d48565b905090565b6000600160008473ffffffffffffffffffffffffffffffffffffffff1673ffffffffffffffffffffffffffffffffffffffff16815260200190815260200160002060008373ffffffffffffffffffffffffffffffffffffffff1673ffffffffffffffffffffffffffffffffffffffff16815260200190815260200160002060009054906101000a900460ff16905092915050565b610af7610e9f565b73ffffffffffffffffffffffffffffffffffffffff168573ffffffffffffffffffffffffffffffffffffffff161480610b3d5750610b3c85610b37610e9f565b610a5b565b5b610b7c576040517f08c379a0000000000000000000000000000000000000000000000000000000008152600401610b7390614632565b60405180910390fd5b610b898585858585612084565b5050505050565b610b98610e9f565b73ffffffffffffffffffffffffffffffffffffffff16610bb66109c0565b73ffffffffffffffffffffffffffffffffffffffff1614610c0c576040517f08c379a0000000000000000000000000000000000000000000000000000000008152600401610c03906146b2565b60405180910390fd5b600073ffffffffffffffffffffffffffffffffffffffff168173ffffffffffffffffffffffffffffffffffffffff161415610c7c576040517f08c379a0000000000000000000000000000000000000000000000000000000008152600401610c7390614612565b60405180910390fd5b610c8581611b15565b50565b6060600082511415610cab57604051806020016040528060008152509050610e0d565b600060405180606001604052806040815260200161587a6040913990506000600360028551610cda919061491c565b610ce49190614972565b6004610cf091906149a3565b67ffffffffffffffff811115610d2f577f4e487b7100000000000000000000000000000000000000000000000000000000600052604160045260246000fd5b6040519080825280601f01601f191660200182016040528015610d615781602001600182028036833780820191505090505b509050600182016020820185865187015b80821015610dcd576003820191508151603f8160121c168501518453600184019350603f81600c1c168501518453600184019350603f8160061c168501518453600184019350603f8116850151845360018401935050610d72565b5050600386510660018114610de95760028114610dfc57610e04565b603d6001830353603d6002830353610e04565b603d60018303535b50505080925050505b919050565b6000808273ffffffffffffffffffffffffffffffffffffffff163b119050919050565b60007f01ffc9a7000000000000000000000000000000000000000000000000000000007bffffffffffffffffffffffffffffffffffffffffffffffffffffffff1916827bffffffffffffffffffffffffffffffffffffffffffffffffffffffff1916149050919050565b600033905090565b6000600167ffffffffffffffff811115610eea577f4e487b7100000000000000000000000000000000000000000000000000000000600052604160045260246000fd5b604051908082528060200260200182016040528015610f1d57816020015b6060815260200190600190039081610f085790505b5090508181600081518110610f5b577f4e487b7100000000000000000000000000000000000000000000000000000000600052603260045260246000fd5b6020026020010181905250610f71848483612306565b50505050565b600073ffffffffffffffffffffffffffffffffffffffff168473ffffffffffffffffffffffffffffffffffffffff161415610fe7576040517f08c379a0000000000000000000000000000000000000000000000000000000008152600401610fde90614732565b60405180910390fd5b6000610ff1610e9f565b905061101281600087611003886123d6565b61100c886123d6565b8761249c565b8260008086815260200190815260200160002060008773ffffffffffffffffffffffffffffffffffffffff1673ffffffffffffffffffffffffffffffffffffffff1681526020019081526020016000206000828254611071919061491c565b925050819055508473ffffffffffffffffffffffffffffffffffffffff16600073ffffffffffffffffffffffffffffffffffffffff168273ffffffffffffffffffffffffffffffffffffffff167fc3d58168c5ae7397731d063d5bbf3d657854427343f4c083240f7aacaa2d0f6287876040516110ef92919061478d565b60405180910390a4611106816000878787876124a4565b5050505050565b606080600061113c847f74726169745f747970650000000000000000000000000000000000000000000061268b565b9050600081511115611415576040518060400160405280600181526020017f5b00000000000000000000000000000000000000000000000000000000000000815250915060006111ac857f74726169745f76616c756500000000000000000000000000000000000000000061268b565b905060006111da867f74726169745f646973706c61790000000000000000000000000000000000000061268b565b905060005b83518110156113ef578460008211611206576040518060200160405280600081525061123d565b6040518060400160405280600181526020017f2c000000000000000000000000000000000000000000000000000000000000008152505b6000848481518110611278577f4e487b7100000000000000000000000000000000000000000000000000000000600052603260045260246000fd5b6020026020010151511161129b576040518060200160405280600081525061130f565b8383815181106112d4577f4e487b7100000000000000000000000000000000000000000000000000000000600052603260045260246000fd5b60200260200101518060200190518101906112ef9190613871565b6040516020016112ff91906140ed565b6040516020818303038152906040525b868481518110611348577f4e487b7100000000000000000000000000000000000000000000000000000000600052603260045260246000fd5b60200260200101518060200190518101906113639190613871565b86858151811061139c577f4e487b7100000000000000000000000000000000000000000000000000000000600052603260045260246000fd5b60200260200101518060200190518101906113b79190613871565b6040516020016113cb959493929190614027565b604051602081830303815290604052945080806113e790614b86565b9150506111df565b5083604051602001611401919061409e565b604051602081830303815290604052935050505b6000611441857f6e616d650000000000000000000000000000000000000000000000000000000061278c565b8060200190518101906114549190613871565b90506000611482867f6465736372697074696f6e00000000000000000000000000000000000000000061278c565b8060200190518101906114959190613871565b905060006114c3877f696d61676500000000000000000000000000000000000000000000000000000061278c565b905060006114f1887f616e696d6174696f6e5f75726c0000000000000000000000000000000000000061278c565b9050600061151f897f65787465726e616c5f75726c000000000000000000000000000000000000000061278c565b9050600061154d8a7f6261636b67726f756e645f636f6c6f720000000000000000000000000000000061278c565b9050600061157b8b7f796f75747562655f75726c00000000000000000000000000000000000000000061278c565b9050611786878760008851116115a057604051806020016040528060008152506115d4565b878060200190518101906115b49190613871565b6040516020016115c49190614174565b6040516020818303038152906040525b60008851116115f25760405180602001604052806000815250611626565b878060200190518101906116069190613871565b60405160200161161691906143d0565b6040516020818303038152906040525b60008851116116445760405180602001604052806000815250611678565b878060200190518101906116589190613871565b6040516020016116689190614147565b6040516020818303038152906040525b60008f511161169657604051806020016040528060008152506116b7565b8e6040516020016116a791906143ae565b6040516020818303038152906040525b60008951116116d55760405180602001604052806000815250611709565b888060200190518101906116e99190613871565b6040516020016116f9919061436a565b6040516020818303038152906040525b6000895111611727576040518060200160405280600081525061175b565b8880602001905181019061173b9190613871565b60405160200161174b919061438c565b6040516020818303038152906040525b604051602001611772989796959493929190614225565b604051602081830303815290604052610c88565b6040516020016117969190614333565b6040516020818303038152906040529950505050505050505050919050565b81518351146117f9576040517f08c379a00000000000000000000000000000000000000000000000000000000081526004016117f090614712565b60405180910390fd5b600073ffffffffffffffffffffffffffffffffffffffff168473ffffffffffffffffffffffffffffffffffffffff161415611869576040517f08c379a000000000000000000000000000000000000000000000000000000000815260040161186090614652565b60405180910390fd5b6000611873610e9f565b905061188381878787878761249c565b60005b8451811015611a805760008582815181106118ca577f4e487b7100000000000000000000000000000000000000000000000000000000600052603260045260246000fd5b60200260200101519050600085838151811061190f577f4e487b7100000000000000000000000000000000000000000000000000000000600052603260045260246000fd5b60200260200101519050600080600084815260200190815260200160002060008b73ffffffffffffffffffffffffffffffffffffffff1673ffffffffffffffffffffffffffffffffffffffff168152602001908152602001600020549050818110156119b0576040517f08c379a00000000000000000000000000000000000000000000000000000000081526004016119a790614692565b60405180910390fd5b81810360008085815260200190815260200160002060008c73ffffffffffffffffffffffffffffffffffffffff1673ffffffffffffffffffffffffffffffffffffffff168152602001908152602001600020819055508160008085815260200190815260200160002060008b73ffffffffffffffffffffffffffffffffffffffff1673ffffffffffffffffffffffffffffffffffffffff1681526020019081526020016000206000828254611a65919061491c565b9250508190555050505080611a7990614b86565b9050611886565b508473ffffffffffffffffffffffffffffffffffffffff168673ffffffffffffffffffffffffffffffffffffffff168273ffffffffffffffffffffffffffffffffffffffff167f4a39dc06d4c0dbc64b70af90fd698a233a518aa5d07e595d983b8c0526c8f7fb8787604051611af792919061451e565b60405180910390a4611b0d81878787878761280a565b505050505050565b6000600760009054906101000a900473ffffffffffffffffffffffffffffffffffffffff16905081600760006101000a81548173ffffffffffffffffffffffffffffffffffffffff021916908373ffffffffffffffffffffffffffffffffffffffff1602179055508173ffffffffffffffffffffffffffffffffffffffff168173ffffffffffffffffffffffffffffffffffffffff167f8be0079c531659141344cd1fd0a4f28419497f9722a3daafe3b4186f6b6457e060405160405180910390a35050565b8173ffffffffffffffffffffffffffffffffffffffff168373ffffffffffffffffffffffffffffffffffffffff161415611c4a576040517f08c379a0000000000000000000000000000000000000000000000000000000008152600401611c41906146d2565b60405180910390fd5b80600160008573ffffffffffffffffffffffffffffffffffffffff1673ffffffffffffffffffffffffffffffffffffffff16815260200190815260200160002060008473ffffffffffffffffffffffffffffffffffffffff1673ffffffffffffffffffffffffffffffffffffffff16815260200190815260200160002060006101000a81548160ff0219169083151502179055508173ffffffffffffffffffffffffffffffffffffffff168373ffffffffffffffffffffffffffffffffffffffff167f17307eab39ab6107e8899845ad3d59bd9653f200f220920489ca2b5937696c3183604051611d3b9190614555565b60405180910390a3505050565b60606000611d757f6e616d65000000000000000000000000000000000000000000000000000000006129f1565b90506000611da27f6465736372697074696f6e0000000000000000000000000000000000000000006129f1565b90506000611dcf7f696d6167650000000000000000000000000000000000000000000000000000006129f1565b90506000611dfc7f65787465726e616c5f6c696e6b000000000000000000000000000000000000006129f1565b90506000611e297f73656c6c65725f6665655f62617369735f706f696e74730000000000000000006129f1565b90506000611e567f6665655f726563697069656e74000000000000000000000000000000000000006129f1565b905061205a86806020019051810190611e6f9190613871565b6000875111611e8d5760405180602001604052806000815250611ec1565b86806020019051810190611ea19190613871565b604051602001611eb191906142d9565b6040516020818303038152906040525b6000875111611edf5760405180602001604052806000815250611f13565b86806020019051810190611ef39190613871565b604051602001611f039190614174565b6040516020818303038152906040525b6000875111611f315760405180602001604052806000815250611f65565b86806020019051810190611f459190613871565b604051602001611f559190614306565b6040516020818303038152906040525b6000875111611f835760405180602001604052806000815250611fbf565b611f9f87806020019051810190611f9a91906138db565b612a6d565b604051602001611faf91906140c0565b6040516020818303038152906040525b6000875111611fdd5760405180602001604052806000815250612031565b61201187806020019051810190611ff4919061348a565b73ffffffffffffffffffffffffffffffffffffffff166014612c1a565b604051602001612021919061411a565b6040516020818303038152906040525b604051602001612046969594939291906141a1565b604051602081830303815290604052610c88565b60405160200161206a9190614333565b604051602081830303815290604052965050505050505090565b600073ffffffffffffffffffffffffffffffffffffffff168473ffffffffffffffffffffffffffffffffffffffff1614156120f4576040517f08c379a00000000000000000000000000000000000000000000000000000000081526004016120eb90614652565b60405180910390fd5b60006120fe610e9f565b905061211e81878761210f886123d6565b612118886123d6565b8761249c565b600080600086815260200190815260200160002060008873ffffffffffffffffffffffffffffffffffffffff1673ffffffffffffffffffffffffffffffffffffffff168152602001908152602001600020549050838110156121b5576040517f08c379a00000000000000000000000000000000000000000000000000000000081526004016121ac90614692565b60405180910390fd5b83810360008087815260200190815260200160002060008973ffffffffffffffffffffffffffffffffffffffff1673ffffffffffffffffffffffffffffffffffffffff168152602001908152602001600020819055508360008087815260200190815260200160002060008873ffffffffffffffffffffffffffffffffffffffff1673ffffffffffffffffffffffffffffffffffffffff168152602001908152602001600020600082825461226a919061491c565b925050819055508573ffffffffffffffffffffffffffffffffffffffff168773ffffffffffffffffffffffffffffffffffffffff168373ffffffffffffffffffffffffffffffffffffffff167fc3d58168c5ae7397731d063d5bbf3d657854427343f4c083240f7aacaa2d0f6288886040516122e792919061478d565b60405180910390a46122fd8288888888886124a4565b50505050505050565b60006006600085815260200190815260200160002090506000816002016000858152602001908152602001600020541415612367576001816000015461234c919061491c565b60066000868152602001908152602001600020600001819055505b8160066000868152602001908152602001600020600101600085815260200190815260200160002090805190602001906123a2929190613003565b5081516006600086815260200190815260200160002060020160008581526020019081526020016000208190555050505050565b60606000600167ffffffffffffffff81111561241b577f4e487b7100000000000000000000000000000000000000000000000000000000600052604160045260246000fd5b6040519080825280602002602001820160405280156124495781602001602082028036833780820191505090505b5090508281600081518110612487577f4e487b7100000000000000000000000000000000000000000000000000000000600052603260045260246000fd5b60200260200101818152505080915050919050565b505050505050565b6124c38473ffffffffffffffffffffffffffffffffffffffff16610e12565b15612683578373ffffffffffffffffffffffffffffffffffffffff1663f23a6e6187878686866040518663ffffffff1660e01b81526004016125099594939291906144a2565b602060405180830381600087803b15801561252357600080fd5b505af192505050801561255457506040513d601f19601f820116820180604052508101906125519190613848565b60015b6125fa57612560614cbc565b806308c379a014156125bd5750612575615770565b8061258057506125bf565b806040517f08c379a00000000000000000000000000000000000000000000000000000000081526004016125b49190614570565b60405180910390fd5b505b6040517f08c379a00000000000000000000000000000000000000000000000000000000081526004016125f190614592565b60405180910390fd5b63f23a6e6160e01b7bffffffffffffffffffffffffffffffffffffffffffffffffffffffff1916817bffffffffffffffffffffffffffffffffffffffffffffffffffffffff191614612681576040517f08c379a0000000000000000000000000000000000000000000000000000000008152600401612678906145d2565b60405180910390fd5b505b505050505050565b6060600660008481526020019081526020016000206001016000838152602001908152602001600020805480602002602001604051908101604052809291908181526020016000905b828210156127805783829060005260206000200180546126f390614b23565b80601f016020809104026020016040519081016040528092919081815260200182805461271f90614b23565b801561276c5780601f106127415761010080835404028352916020019161276c565b820191906000526020600020905b81548152906001019060200180831161274f57829003601f168201915b5050505050815260200190600101906126d4565b50505050905092915050565b6060600061279a848461268b565b90506000815111156127f057806000815181106127e0577f4e487b7100000000000000000000000000000000000000000000000000000000600052603260045260246000fd5b6020026020010151915050612804565b604051806020016040528060008152509150505b92915050565b6128298473ffffffffffffffffffffffffffffffffffffffff16610e12565b156129e9578373ffffffffffffffffffffffffffffffffffffffff1663bc197c8187878686866040518663ffffffff1660e01b815260040161286f95949392919061443a565b602060405180830381600087803b15801561288957600080fd5b505af19250505080156128ba57506040513d601f19601f820116820180604052508101906128b79190613848565b60015b612960576128c6614cbc565b806308c379a0141561292357506128db615770565b806128e65750612925565b806040517f08c379a000000000000000000000000000000000000000000000000000000000815260040161291a9190614570565b60405180910390fd5b505b6040517f08c379a000000000000000000000000000000000000000000000000000000000815260040161295790614592565b60405180910390fd5b63bc197c8160e01b7bffffffffffffffffffffffffffffffffffffffffffffffffffffffff1916817bffffffffffffffffffffffffffffffffffffffffffffffffffffffff1916146129e7576040517f08c379a00000000000000000000000000000000000000000000000000000000081526004016129de906145d2565b60405180910390fd5b505b505050505050565b606060006129fe83612f14565b9050600081511115612a545780600081518110612a44577f4e487b7100000000000000000000000000000000000000000000000000000000600052603260045260246000fd5b6020026020010151915050612a68565b604051806020016040528060008152509150505b919050565b60606000821415612ab5576040518060400160405280600181526020017f30000000000000000000000000000000000000000000000000000000000000008152509050612c15565b600082905060005b60008214612ae7578080612ad090614b86565b915050600a82612ae09190614972565b9150612abd565b60008167ffffffffffffffff811115612b29577f4e487b7100000000000000000000000000000000000000000000000000000000600052604160045260246000fd5b6040519080825280601f01601f191660200182016040528015612b5b5781602001600182028036833780820191505090505b5090505b60008514612c0e57600182612b7491906149fd565b9150600a85612b839190614bcf565b6030612b8f919061491c565b60f81b818381518110612bcb577f4e487b7100000000000000000000000000000000000000000000000000000000600052603260045260246000fd5b60200101907effffffffffffffffffffffffffffffffffffffffffffffffffffffffffffff1916908160001a905350600a85612c079190614972565b9450612b5f565b8093505050505b919050565b606060006002836002612c2d91906149a3565b612c37919061491c565b67ffffffffffffffff811115612c76577f4e487b7100000000000000000000000000000000000000000000000000000000600052604160045260246000fd5b6040519080825280601f01601f191660200182016040528015612ca85781602001600182028036833780820191505090505b5090507f300000000000000000000000000000000000000000000000000000000000000081600081518110612d06577f4e487b7100000000000000000000000000000000000000000000000000000000600052603260045260246000fd5b60200101907effffffffffffffffffffffffffffffffffffffffffffffffffffffffffffff1916908160001a9053507f780000000000000000000000000000000000000000000000000000000000000081600181518110612d90577f4e487b7100000000000000000000000000000000000000000000000000000000600052603260045260246000fd5b60200101907effffffffffffffffffffffffffffffffffffffffffffffffffffffffffffff1916908160001a90535060006001846002612dd091906149a3565b612dda919061491c565b90505b6001811115612ec6577f3031323334353637383961626364656600000000000000000000000000000000600f861660108110612e42577f4e487b7100000000000000000000000000000000000000000000000000000000600052603260045260246000fd5b1a60f81b828281518110612e7f577f4e487b7100000000000000000000000000000000000000000000000000000000600052603260045260246000fd5b60200101907effffffffffffffffffffffffffffffffffffffffffffffffffffffffffffff1916908160001a905350600485901c945080612ebf90614af9565b9050612ddd565b5060008414612f0a576040517f08c379a0000000000000000000000000000000000000000000000000000000008152600401612f01906145b2565b60405180910390fd5b8091505092915050565b606060036001016000838152602001908152602001600020805480602002602001604051908101604052809291908181526020016000905b82821015612ff8578382906000526020600020018054612f6b90614b23565b80601f0160208091040260200160405190810160405280929190818152602001828054612f9790614b23565b8015612fe45780601f10612fb957610100808354040283529160200191612fe4565b820191906000526020600020905b815481529060010190602001808311612fc757829003601f168201915b505050505081526020019060010190612f4c565b505050509050919050565b828054828255906000526020600020908101928215613052579160200282015b82811115613051578251829080519060200190613041929190613063565b5091602001919060010190613023565b5b50905061305f91906130e9565b5090565b82805461306f90614b23565b90600052602060002090601f01602090048101928261309157600085556130d8565b82601f106130aa57805160ff19168380011785556130d8565b828001600101855582156130d8579182015b828111156130d75782518255916020019190600101906130bc565b5b5090506130e5919061310d565b5090565b5b808211156131095760008181613100919061312a565b506001016130ea565b5090565b5b8082111561312657600081600090555060010161310e565b5090565b50805461313690614b23565b6000825580601f106131485750613167565b601f016020900490600052602060002090810190613166919061310d565b5b50565b600061317d613178846147db565b6147b6565b9050808382526020820190508285602086028201111561319c57600080fd5b60005b858110156131cc57816131b288826132fc565b84526020840193506020830192505060018101905061319f565b5050509392505050565b60006131e96131e484614807565b6147b6565b9050808382526020820190508285602086028201111561320857600080fd5b60005b85811015613238578161321e8882613437565b84526020840193506020830192505060018101905061320b565b5050509392505050565b600061325561325084614833565b6147b6565b90508281526020810184848401111561326d57600080fd5b613278848285614ab7565b509392505050565b600061329361328e84614864565b6147b6565b9050828152602081018484840111156132ab57600080fd5b6132b6848285614ab7565b509392505050565b60006132d16132cc84614864565b6147b6565b9050828152602081018484840111156132e957600080fd5b6132f4848285614ac6565b509392505050565b60008135905061330b81615806565b92915050565b6000815190506133208161581d565b92915050565b600082601f83011261333757600080fd5b813561334784826020860161316a565b91505092915050565b600082601f83011261336157600080fd5b81356133718482602086016131d6565b91505092915050565b60008135905061338981615834565b92915050565b60008135905061339e8161584b565b92915050565b6000815190506133b38161584b565b92915050565b600082601f8301126133ca57600080fd5b81356133da848260208601613242565b91505092915050565b600082601f8301126133f457600080fd5b8135613404848260208601613280565b91505092915050565b600082601f83011261341e57600080fd5b815161342e8482602086016132be565b91505092915050565b60008135905061344681615862565b92915050565b60008151905061345b81615862565b92915050565b60006020828403121561347357600080fd5b6000613481848285016132fc565b91505092915050565b60006020828403121561349c57600080fd5b60006134aa84828501613311565b91505092915050565b600080604083850312156134c657600080fd5b60006134d4858286016132fc565b92505060206134e5858286016132fc565b9150509250929050565b600080600080600060a0868803121561350757600080fd5b6000613515888289016132fc565b9550506020613526888289016132fc565b945050604086013567ffffffffffffffff81111561354357600080fd5b61354f88828901613350565b935050606086013567ffffffffffffffff81111561356c57600080fd5b61357888828901613350565b925050608086013567ffffffffffffffff81111561359557600080fd5b6135a1888289016133b9565b9150509295509295909350565b600080600080600060a086880312156135c657600080fd5b60006135d4888289016132fc565b95505060206135e5888289016132fc565b94505060406135f688828901613437565b935050606061360788828901613437565b925050608086013567ffffffffffffffff81111561362457600080fd5b613630888289016133b9565b9150509295509295909350565b6000806040838503121561365057600080fd5b600061365e858286016132fc565b925050602061366f8582860161337a565b9150509250929050565b6000806040838503121561368c57600080fd5b600061369a858286016132fc565b92505060206136ab85828601613437565b9150509250929050565b600080600080600080600060e0888a0312156136d057600080fd5b60006136de8a828b016132fc565b97505060206136ef8a828b01613437565b96505060406137008a828b01613437565b955050606088013567ffffffffffffffff81111561371d57600080fd5b6137298a828b016133e3565b945050608088013567ffffffffffffffff81111561374657600080fd5b6137528a828b016133e3565b93505060a088013567ffffffffffffffff81111561376f57600080fd5b61377b8a828b016133e3565b92505060c088013567ffffffffffffffff81111561379857600080fd5b6137a48a828b016133e3565b91505092959891949750929550565b600080604083850312156137c657600080fd5b600083013567ffffffffffffffff8111156137e057600080fd5b6137ec85828601613326565b925050602083013567ffffffffffffffff81111561380957600080fd5b61381585828601613350565b9150509250929050565b60006020828403121561383157600080fd5b600061383f8482850161338f565b91505092915050565b60006020828403121561385a57600080fd5b6000613868848285016133a4565b91505092915050565b60006020828403121561388357600080fd5b600082015167ffffffffffffffff81111561389d57600080fd5b6138a98482850161340d565b91505092915050565b6000602082840312156138c457600080fd5b60006138d284828501613437565b91505092915050565b6000602082840312156138ed57600080fd5b60006138fb8482850161344c565b91505092915050565b60006139108383614009565b60208301905092915050565b61392581614a31565b82525050565b6000613936826148a5565b61394081856148d3565b935061394b83614895565b8060005b8381101561397c5781516139638882613904565b975061396e836148c6565b92505060018101905061394f565b5085935050505092915050565b61399281614a55565b82525050565b60006139a3826148b0565b6139ad81856148e4565b93506139bd818560208601614ac6565b6139c681614cde565b840191505092915050565b60006139dc826148b0565b6139e681856148f5565b93506139f6818560208601614ac6565b80840191505092915050565b6000613a0d826148bb565b613a178185614900565b9350613a27818560208601614ac6565b613a3081614cde565b840191505092915050565b6000613a46826148bb565b613a508185614911565b9350613a60818560208601614ac6565b80840191505092915050565b6000613a79603483614900565b9150613a8482614cfc565b604082019050919050565b6000613a9c601d83614911565b9150613aa782614d4b565b601d82019050919050565b6000613abf602083614900565b9150613aca82614d74565b602082019050919050565b6000613ae2602883614900565b9150613aed82614d9d565b604082019050919050565b6000613b05601183614911565b9150613b1082614dec565b601182019050919050565b6000613b28602b83614900565b9150613b3382614e15565b604082019050919050565b6000613b4b602683614900565b9150613b5682614e64565b604082019050919050565b6000613b6e600283614911565b9150613b7982614eb3565b600282019050919050565b6000613b91602983614900565b9150613b9c82614edc565b604082019050919050565b6000613bb4600d83614911565b9150613bbf82614f2b565b600d82019050919050565b6000613bd7600f83614911565b9150613be282614f54565b600f82019050919050565b6000613bfa601483614911565b9150613c0582614f7d565b601482019050919050565b6000613c1d601083614911565b9150613c2882614fa6565b601082019050919050565b6000613c40601383614911565b9150613c4b82614fcf565b601382019050919050565b6000613c63600183614911565b9150613c6e82614ff8565b600182019050919050565b6000613c86602583614900565b9150613c9182615021565b604082019050919050565b6000613ca9603283614900565b9150613cb482615070565b604082019050919050565b6000613ccc600c83614911565b9150613cd7826150bf565b600c82019050919050565b6000613cef600283614911565b9150613cfa826150e8565b600282019050919050565b6000613d12602a83614900565b9150613d1d82615111565b604082019050919050565b6000613d35600183614911565b9150613d4082615160565b600182019050919050565b6000613d58600983614911565b9150613d6382615189565b600982019050919050565b6000613d7b602083614900565b9150613d86826151b2565b602082019050919050565b6000613d9e600183614911565b9150613da9826151db565b600182019050919050565b6000613dc1601283614911565b9150613dcc82615204565b601282019050919050565b6000613de4600183614911565b9150613def8261522d565b600182019050919050565b6000613e07601483614911565b9150613e1282615256565b601482019050919050565b6000613e2a601d83614911565b9150613e358261527f565b601d82019050919050565b6000613e4d600083614911565b9150613e58826152a8565b600082019050919050565b6000613e716101dd83614911565b9150613e7c826152ab565b6101dd82019050919050565b6000613e95600383614911565b9150613ea0826154ef565b600382019050919050565b6000613eb8601683614911565b9150613ec382615518565b601682019050919050565b6000613edb601183614911565b9150613ee682615541565b601182019050919050565b6000613efe602983614900565b9150613f098261556a565b604082019050919050565b6000613f21602983614900565b9150613f2c826155b9565b604082019050919050565b6000613f44601083614911565b9150613f4f82615608565b601082019050919050565b6000613f67602883614900565b9150613f7282615631565b604082019050919050565b6000613f8a602183614900565b9150613f9582615680565b604082019050919050565b6000613fad601483614911565b9150613fb8826156cf565b601482019050919050565b6000613fd0603b83614900565b9150613fdb826156f8565b604082019050919050565b6000613ff3601a83614911565b9150613ffe82615747565b601a82019050919050565b61401281614aad565b82525050565b61402181614aad565b82525050565b600061403382886139d1565b915061403f8287613a3b565b915061404a82613d91565b91506140568286613a3b565b915061406182613bca565b915061406d8285613a3b565b915061407882613ba7565b91506140848284613a3b565b915061408f82613ce2565b91508190509695505050505050565b60006140aa82846139d1565b91506140b582613dd7565b915081905092915050565b60006140cb82613a8f565b91506140d78284613a3b565b91506140e282613e40565b915081905092915050565b60006140f882613af8565b91506141048284613a3b565b915061410f82613b61565b915081905092915050565b600061412582613bed565b91506141318284613a3b565b915061413c82613c56565b915081905092915050565b600061415282613c33565b915061415e8284613a3b565b915061416982613c56565b915081905092915050565b600061417f82613cbf565b915061418b8284613a3b565b915061419682613c56565b915081905092915050565b60006141ac82613d91565b91506141b782613d4b565b91506141c38289613a3b565b91506141ce82613c56565b91506141da8288613a3b565b91506141e68287613a3b565b91506141f28286613a3b565b91506141fe8285613a3b565b915061420a8284613a3b565b915061421582613d28565b9150819050979650505050505050565b600061423082613d91565b915061423b82613d4b565b9150614247828b613a3b565b915061425282613e88565b915061425d82613c10565b9150614269828a613a3b565b915061427482613c56565b91506142808289613a3b565b915061428c8288613a3b565b91506142988287613a3b565b91506142a48286613a3b565b91506142b08285613a3b565b91506142bc8284613a3b565b91506142c782613d28565b91508190509998505050505050505050565b60006142e482613db4565b91506142f08284613a3b565b91506142fb82613c56565b915081905092915050565b600061431182613dfa565b915061431d8284613a3b565b915061432882613c56565b915081905092915050565b600061433e82613e1d565b915061434a8284613a3b565b915081905092915050565b600061436082613e63565b9150819050919050565b600061437582613eab565b91506143818284613a3b565b915081905092915050565b600061439782613ece565b91506143a38284613a3b565b915081905092915050565b60006143b982613f37565b91506143c582846139d1565b915081905092915050565b60006143db82613fa0565b91506143e78284613a3b565b91506143f282613c56565b915081905092915050565b600061440882613fe6565b91506144148284613a3b565b915081905092915050565b6000602082019050614434600083018461391c565b92915050565b600060a08201905061444f600083018861391c565b61445c602083018761391c565b818103604083015261446e818661392b565b90508181036060830152614482818561392b565b905081810360808301526144968184613998565b90509695505050505050565b600060a0820190506144b7600083018861391c565b6144c4602083018761391c565b6144d16040830186614018565b6144de6060830185614018565b81810360808301526144f08184613998565b90509695505050505050565b60006020820190508181036000830152614516818461392b565b905092915050565b60006040820190508181036000830152614538818561392b565b9050818103602083015261454c818461392b565b90509392505050565b600060208201905061456a6000830184613989565b92915050565b6000602082019050818103600083015261458a8184613a02565b905092915050565b600060208201905081810360008301526145ab81613a6c565b9050919050565b600060208201905081810360008301526145cb81613ab2565b9050919050565b600060208201905081810360008301526145eb81613ad5565b9050919050565b6000602082019050818103600083015261460b81613b1b565b9050919050565b6000602082019050818103600083015261462b81613b3e565b9050919050565b6000602082019050818103600083015261464b81613b84565b9050919050565b6000602082019050818103600083015261466b81613c79565b9050919050565b6000602082019050818103600083015261468b81613c9c565b9050919050565b600060208201905081810360008301526146ab81613d05565b9050919050565b600060208201905081810360008301526146cb81613d6e565b9050919050565b600060208201905081810360008301526146eb81613ef1565b9050919050565b6000602082019050818103600083015261470b81613f14565b9050919050565b6000602082019050818103600083015261472b81613f5a565b9050919050565b6000602082019050818103600083015261474b81613f7d565b9050919050565b6000602082019050818103600083015261476b81613fc3565b9050919050565b60006020820190506147876000830184614018565b92915050565b60006040820190506147a26000830185614018565b6147af6020830184614018565b9392505050565b60006147c06147d1565b90506147cc8282614b55565b919050565b6000604051905090565b600067ffffffffffffffff8211156147f6576147f5614c8d565b5b602082029050602081019050919050565b600067ffffffffffffffff82111561482257614821614c8d565b5b602082029050602081019050919050565b600067ffffffffffffffff82111561484e5761484d614c8d565b5b61485782614cde565b9050602081019050919050565b600067ffffffffffffffff82111561487f5761487e614c8d565b5b61488882614cde565b9050602081019050919050565b6000819050602082019050919050565b600081519050919050565b600081519050919050565b600081519050919050565b6000602082019050919050565b600082825260208201905092915050565b600082825260208201905092915050565b600081905092915050565b600082825260208201905092915050565b600081905092915050565b600061492782614aad565b915061493283614aad565b9250827fffffffffffffffffffffffffffffffffffffffffffffffffffffffffffffffff0382111561496757614966614c00565b5b828201905092915050565b600061497d82614aad565b915061498883614aad565b92508261499857614997614c2f565b5b828204905092915050565b60006149ae82614aad565b91506149b983614aad565b9250817fffffffffffffffffffffffffffffffffffffffffffffffffffffffffffffffff04831182151516156149f2576149f1614c00565b5b828202905092915050565b6000614a0882614aad565b9150614a1383614aad565b925082821015614a2657614a25614c00565b5b828203905092915050565b6000614a3c82614a8d565b9050919050565b6000614a4e82614a8d565b9050919050565b60008115159050919050565b60007fffffffff0000000000000000000000000000000000000000000000000000000082169050919050565b600073ffffffffffffffffffffffffffffffffffffffff82169050919050565b6000819050919050565b82818337600083830152505050565b60005b83811015614ae4578082015181840152602081019050614ac9565b83811115614af3576000848401525b50505050565b6000614b0482614aad565b91506000821415614b1857614b17614c00565b5b600182039050919050565b60006002820490506001821680614b3b57607f821691505b60208210811415614b4f57614b4e614c5e565b5b50919050565b614b5e82614cde565b810181811067ffffffffffffffff82111715614b7d57614b7c614c8d565b5b80604052505050565b6000614b9182614aad565b91507fffffffffffffffffffffffffffffffffffffffffffffffffffffffffffffffff821415614bc457614bc3614c00565b5b600182019050919050565b6000614bda82614aad565b9150614be583614aad565b925082614bf557614bf4614c2f565b5b828206905092915050565b7f4e487b7100000000000000000000000000000000000000000000000000000000600052601160045260246000fd5b7f4e487b7100000000000000000000000000000000000000000000000000000000600052601260045260246000fd5b7f4e487b7100000000000000000000000000000000000000000000000000000000600052602260045260246000fd5b7f4e487b7100000000000000000000000000000000000000000000000000000000600052604160045260246000fd5b600060033d1115614cdb5760046000803e614cd8600051614cef565b90505b90565b6000601f19601f8301169050919050565b60008160e01c9050919050565b7f455243313135353a207472616e7366657220746f206e6f6e204552433131353560008201527f526563656976657220696d706c656d656e746572000000000000000000000000602082015250565b7f2c202273656c6c65725f6665655f62617369735f706f696e7473223a20000000600082015250565b7f537472696e67733a20686578206c656e67746820696e73756666696369656e74600082015250565b7f455243313135353a204552433131353552656365697665722072656a6563746560008201527f6420746f6b656e73000000000000000000000000000000000000000000000000602082015250565b7f22646973706c61795f74797065223a2022000000000000000000000000000000600082015250565b7f455243313135353a2062616c616e636520717565727920666f7220746865207a60008201527f65726f2061646472657373000000000000000000000000000000000000000000602082015250565b7f4f776e61626c653a206e6577206f776e657220697320746865207a65726f206160008201527f6464726573730000000000000000000000000000000000000000000000000000602082015250565b7f222c000000000000000000000000000000000000000000000000000000000000600082015250565b7f455243313135353a2063616c6c6572206973206e6f74206f776e6572206e6f7260008201527f20617070726f7665640000000000000000000000000000000000000000000000602082015250565b7f222c202276616c7565223a202200000000000000000000000000000000000000600082015250565b7f2274726169745f74797065223a20220000000000000000000000000000000000600082015250565b7f2c20226665655f726563697069656e74223a2022000000000000000000000000600082015250565b7f226465736372697074696f6e223a202200000000000000000000000000000000600082015250565b7f2c202265787465726e616c5f75726c223a202200000000000000000000000000600082015250565b7f2200000000000000000000000000000000000000000000000000000000000000600082015250565b7f455243313135353a207472616e7366657220746f20746865207a65726f20616460008201527f6472657373000000000000000000000000000000000000000000000000000000602082015250565b7f455243313135353a207472616e736665722063616c6c6572206973206e6f742060008201527f6f776e6572206e6f7220617070726f7665640000000000000000000000000000602082015250565b7f2c2022696d616765223a20220000000000000000000000000000000000000000600082015250565b7f227d000000000000000000000000000000000000000000000000000000000000600082015250565b7f455243313135353a20696e73756666696369656e742062616c616e636520666f60008201527f72207472616e7366657200000000000000000000000000000000000000000000602082015250565b7f7d00000000000000000000000000000000000000000000000000000000000000600082015250565b7f226e616d65223a20220000000000000000000000000000000000000000000000600082015250565b7f4f776e61626c653a2063616c6c6572206973206e6f7420746865206f776e6572600082015250565b7f7b00000000000000000000000000000000000000000000000000000000000000600082015250565b7f2c20226465736372697074696f6e223a20220000000000000000000000000000600082015250565b7f5d00000000000000000000000000000000000000000000000000000000000000600082015250565b7f2c202265787465726e616c5f6c696e6b223a2022000000000000000000000000600082015250565b7f646174613a6170706c69636174696f6e2f6a736f6e3b6261736536342c000000600082015250565b50565b7f3c737667206865696768743d22333530222077696474683d223335302220766960008201527f6577426f783d2230203020333530203335302220786d6c6e733d22687474703a60208201527f2f2f7777772e77332e6f72672f323030302f737667223e3c726563742068656960408201527f6768743d2231303025222077696474683d2231303025222066696c6c3d22776860608201527f697465222f3e3c7465787420783d223530252220793d223530252220646f6d6960808201527f6e616e742d626173656c696e653d226d6964646c652220746578742d616e636860a08201527f6f723d226d6964646c65223e48544d4c3c616e696d6174655472616e73666f7260c08201527f6d206174747269627574654e616d653d227472616e73666f726d22206174747260e08201527f6962757465547970653d22584d4c2220747970653d22726f74617465222066726101008201527f6f6d3d223020313735203137352220746f3d22333630203137352031373522206101208201527f6475723d2232732220726570656174436f756e743d22696e646566696e6974656101408201527f222f3e3c2f746578743e20535647206e6f7420737570706f727465642e203c736101608201527f74796c653e3c215b43444154415b2074657874207b666f6e743a20626f6c64206101808201527f353070782056657264616e612c2048656c7665746963612c20417269616c2c206101a08201527f73616e732d73657269663b7d5d5d3e3c2f7374796c653e3c2f7376673e0000006101c082015250565b7f222c200000000000000000000000000000000000000000000000000000000000600082015250565b7f2c20226261636b67726f756e645f636f6c6f72223a2000000000000000000000600082015250565b7f2c2022796f75747562655f75726c223a20000000000000000000000000000000600082015250565b7f455243313135353a2073657474696e6720617070726f76616c2073746174757360008201527f20666f722073656c660000000000000000000000000000000000000000000000602082015250565b7f455243313135353a206163636f756e747320616e6420696473206c656e67746860008201527f206d69736d617463680000000000000000000000000000000000000000000000602082015250565b7f2c202261747472696275746573223a2000000000000000000000000000000000600082015250565b7f455243313135353a2069647320616e6420616d6f756e7473206c656e6774682060008201527f6d69736d61746368000000000000000000000000000000000000000000000000602082015250565b7f455243313135353a206d696e7420746f20746865207a65726f2061646472657360008201527f7300000000000000000000000000000000000000000000000000000000000000602082015250565b7f2c2022616e696d6174696f6e5f75726c223a2022000000000000000000000000600082015250565b7f455243313135354f6e436861696e4d657461646174613a206d696e745769746860008201527f4d657461646174613a20696420616c7265616479206578697374730000000000602082015250565b7f646174613a696d6167652f7376672b786d6c3b6261736536342c000000000000600082015250565b600060443d101561578057615803565b6157886147d1565b60043d036004823e80513d602482011167ffffffffffffffff821117156157b0575050615803565b808201805167ffffffffffffffff8111156157ce5750505050615803565b80602083010160043d0385018111156157eb575050505050615803565b6157fa82602001850186614b55565b82955050505050505b90565b61580f81614a31565b811461581a57600080fd5b50565b61582681614a43565b811461583157600080fd5b50565b61583d81614a55565b811461584857600080fd5b50565b61585481614a61565b811461585f57600080fd5b50565b61586b81614aad565b811461587657600080fd5b5056fe4142434445464748494a4b4c4d4e4f505152535455565758595a6162636465666768696a6b6c6d6e6f707172737475767778797a303132333435363738392b2fa26469706673582212202aa3a04e863f2fd1d8303eebc567eb2a47ed035ee7a1500e6e7fafc459125ea864736f6c6343000801003368747470733a2f2f676174657761792e70696e6174612e636c6f75642f697066732f516d53523338636d4a4d417164527271426b6d45575564777951377a64416d69464432565858524b7476345a39782f4142434445464748494a4b4c4d4e4f505152535455565758595a6162636465666768696a6b6c6d6e6f707172737475767778797a303132333435363738392b2f46697273742074657374206f6620455243313135354f6e436861696e4d6574616461746168747470733a2f2f676174657761792e70696e6174612e636c6f75642f697066732f516d5563697468356d537962576a4e31677754315566734b3476344c654273694852724b41334b364c6547526153",
  "linkReferences": {},
  "deployedLinkReferences": {}
}